:020000040000FA
:060000000A128A11122809
:10000800FE00030E83120313D4000408D5000A0867
:10001800D6007F08D7000A128A1541290A128A11C8
:1000280015288317A030FD001E30FE00FC30FF00AD
:10003800903084000A168A1521270A128A11831320
:10004800E930FD001E30FE00BB30FF00E0308400C8
:100058000A168A1521270A128A116930FD001F30F5
:10006800FE000C30FF00583084000A168A1521273C
:100078000A128A1183160313E901EA01EB01EC0164
:10008800ED01EE01EF0183120313E901EA01EB012F
:10009800EC01ED01EE0183010A128A15522D831637
:1000A800031331088039B6003608BB003108B600A2
:1000B8003607B7003708C100B01F632864286628D0
:1000C80041146628410803196A286B287B28410ACD
:1000D800031D6F28702879280030B1000030B00067
:1000E8000030AF000030AE007928B0178428003007
:1000F800B1000030B0000030AF000030AE008428FE
:1001080035088039B6003608BB063508B60036070C
:10011800B7003708C000B41F9228932895284014C8
:1001280095284008031999289A28AA28400A031DE7
:100138009E289F28A8280030B5000030B400003061
:10014800B3000030B200A828B417B3280030B500B7
:100158000030B4000030B3000030B200B3284008CB
:100168000319B728B828BE284108031DBC28BD2894
:10017800C828BE280030B1000030B0000030AF0001
:100188000030AE00C72BC72B2E08B6003608A000DB
:1001980034080A168A11E9210A128A1183160313F0
:1001A8002108C7002008C6004608B600B701B801F4
:1001B800B9013908BF003808BE003708BD00360845
:1001C800BC004708B600B701B801B9013908C50035
:1001D8003808C4003708C3003608C2002F08B60024
:1001E8003608A00033080A168A11E9210A128A1172
:1001F800831603132108C7002008C6004608B60066
:10020800B701B801B9013608BC073708031103184C
:10021800013E03191029BD07380803110318013ED0
:1002280003191729BE07390803110318013E0319DA
:100238001E29BF074708B600B701B801B90136083B
:10024800C207370803110318013E03192C29C307F5
:10025800380803110318013E03193329C407390864
:1002680003110318013E03193A29C5073008B600DF
:100278003608A00032080A168A11E9210A128A11E2
:10028800831603132108C7002008C6004608B600D5
:10029800B701B801B9013608BC07370803110318BC
:1002A800013E03195829BD07380803110318013EF8
:1002B80003195F29BE07390803110318013E031902
:1002C8006629BF074708B600B701B801B901360863
:1002D800C207370803110318013E03197429C3071D
:1002E800380803110318013E03197B29C40739088C
:1002F80003110318013E03198229C5070830B60007
:100308000310BC0DBD0DBE0DBF0DB60B84292F0803
:10031800B6003608A00032080A168A11E9210A1226
:100328008A11831603132108C7002008C60046084F
:10033800B6004708B700B801B9013608BC07370846
:1003480003110318013E0319AA29BD073808031130
:100358000318013E0319B129BE0739080311031810
:10036800013E0319B829BF072E08B6003608A000B9
:1003780033080A168A11E9210A128A11831603130F
:100388002108C7002008C6004608B6004708B7007D
:10039800B801B9013608BC07370803110318013E34
:1003A8000319D729BD07380803110318013E03199B
:1003B800DE29BE07390803110318013E0319E52990
:1003C800BF070830B6000310BC0DBD0DBE0DBF0D34
:1003D800B60BE7292E08B6003608A00032080A1620
:1003E8008A11E9210A128A11831603132108C7000A
:1003F8002008C6004608B6004708B700B801B9018A
:100408003608BC07370803110318013E03190D2AE3
:10041800BD07380803110318013E0319142ABE0743
:10042800390803110318013E03191B2ABF072F08B7
:10043800B6003608A00034080A168A11E9210A1203
:100448008A11831603132108C7002008C60046082E
:10045800B6004708B700B801B9013608C20737081F
:1004680003110318013E03193A2AC3073808031178
:100478000318013E0319412AC40739080311031858
:10048800013E0319482AC5073008B6003608A000FF
:1004980033080A168A11E9210A128A1183160313EE
:1004A8002108C7002008C6004608B6004708B7005C
:1004B800B801B9013608C207370803110318013E0D
:1004C8000319672AC307380803110318013E0319E3
:1004D8006E2AC407390803110318013E0319752A47
:1004E800C5073008B6003608A00034080A168A1175
:1004F800E9210A128A11831603132108C70020086C
:10050800C6004608B6004708B700B801B901083068
:100518000310B60DB70DB80DB90DFF3E031D8C2A9B
:100528003608C207370803110318013E03199D2A2C
:10053800C307380803110318013E0319A42AC40786
:10054800390803110318013E0319AB2AC5073C08F3
:10055800B6003D08B7003E08B8003F08B90018309B
:100568000310B90CB80CB70CB60CFF3E031DB42A27
:100578003608C207370803110318013E0319C52AB4
:10058800C307380803110318013E0319CC2AC4070E
:10059800390803110318013E0319D32AC507083087
:1005A800B6000310BC0DBD0DBE0DBF0DB60BD52A90
:1005B80041084007B600B701B70D3608823EC600AD
:1005C80037080318013EFF3EC700092B0130B6006B
:1005D8000310C20DC30DC40DC50DB60BEC2ABF1F09
:1005E800F62AF72AF92A4214F92A0130B60003102C
:1005F800BC0DBD0DBE0DBF0DB60BFB2AFF30C607E7
:100608000318C70AFF30C707092BC41F0C2B0D2B73
:10061800EA2A0E2BC001BF1F122B132B332BFF30DE
:100628003C05B600FF303D05B700FF303E05B80079
:100638007F303F05B90039083804370436040319F8
:10064800262B272B2A2BC001C00A332B421C2D2B0B
:100658002E2B332BC001C00A332B332B332B4008EE
:100668000319372B382B6B2B0130C20700300318C6
:100678000130C307003003180130C40700300318E5
:100688000130C507451C492B4A2B6B2B4208B60085
:100698004308B7004408B8004508B9000130BA005B
:1006A800390DB90CB80CB70CB60CBA0B542B390869
:1006B800C5003808C4003708C3003608C200013036
:1006C800C6070318C70A0030C7076B2B6B2B4708F0
:1006D800803AFF0080307F02031D742BFF304602F2
:1006E800031C772B782B832B7F3083160313C500CD
:1006F8008030C4000030C3000030C200BA2B83161B
:1007080003134708803AFF0080307F02031D8E2BB9
:10071800013046020318912B922B9E2B0030831632
:100728000313C5000030C4000030C3000030C2000D
:10073800BB01BA2B831603134608B6003608C1005E
:10074800FF30C205FF30C3057F30C4050030C50542
:10075800411CAF2BB02BB22BC417B22B4108B600EB
:100768000310360CB7003708C500BA2B3B08B60093
:100778003608C5044508B1004408B0004308AF0076
:100788004208AE00C72B08008312031323088039E0
:10079800A8002808AD002308A8002807A9002908F0
:1007A800B300A21FD82BD92BDB2B3314DB2B330838
:1007B8000319DF2BE02BF02B330A031DE42BE52B69
:1007C800EE2B0030A3000030A2000030A100003062
:1007D800A000EE2BA217F92B0030A3000030A200D6
:1007E8000030A1000030A000F92B27088039A800AC
:1007F8002808AD062708A8002807A9002908B2007C
:10080800A61F072C082C0A2C32140A2C32080319AC
:100818000E2C0F2C1F2C320A031D132C142C1D2CEC
:100828000030A7000030A6000030A5000030A4006A
:100838001D2CA617282C0030A7000030A600003079
:10084800A5000030A400282C320803192C2C2D2CCC
:10085800332C3308031D312C322C3D2C332C003023
:10086800A3000030A2000030A1000030A0003C2FFF
:100878003C2F2008A8002808F00026080A168A112C
:100888006B210A128A11710883120313B9007008C8
:10089800B8003808A800A901AA01AB012B08B100CB
:1008A8002A08B0002908AF002808AE003908A800B7
:1008B800A901AA01AB012B08B7002A08B60029082C
:1008C800B5002808B4002108A8002808F000250869
:1008D8000A168A116B210A128A11710883120313EE
:1008E800B9007008B8003808A800A901AA01AB012E
:1008F8002808AE07290803110318013E0319852C9F
:10090800AF072A0803110318013E03198C2CB007FE
:100918002B0803110318013E0319932CB10739085A
:10092800A800A901AA01AB012808B40729080311E6
:100938000318013E0319A12CB5072A08031103184F
:10094800013E0319A82CB6072B0803110318013E12
:100958000319AF2CB7072208A8002808F0002408BC
:100968000A168A116B210A128A117108831203135D
:10097800B9007008B8003808A800A901AA01AB019D
:100988002808AE07290803110318013E0319CD2CC6
:10099800AF072A0803110318013E0319D42CB00726
:1009A8002B0803110318013E0319DB2CB107390882
:1009B800A800A901AA01AB012808B4072908031156
:1009C8000318013E0319E92CB5072A080311031877
:1009D800013E0319F02CB6072B0803110318013E3A
:1009E8000319F72CB7070830A8000310AE0DAF0D98
:1009F800B00DB10DA80BF92C2108A8002808F000AB
:100A080024080A168A116B210A128A1171088312A6
:100A18000313B9007008B8003808A8003908A900FD
:100A2800AA01AB012808AE07290803110318013EE3
:100A380003191F2DAF072A0803110318013E0319D4
:100A4800262DB0072B0803110318013E03192D2D7D
:100A5800B1072008A8002808F00025080A168A11FE
:100A68006B210A128A11710883120313B9007008E6
:100A7800B8003808A8003908A900AA01AB0128085D
:100A8800AE07290803110318013E03194C2DAF07BF
:100A98002A0803110318013E0319532DB0072B0828
:100AA80003110318013E03195A2DB1070830A80095
:100AB8000310AE0DAF0DB00DB10DA80B5C2D2008C5
:100AC800A8002808F00024080A168A116B210A12C7
:100AD8008A11710883120313B9007008B800380826
:100AE800A8003908A900AA01AB012808AE072908FF
:100AF80003110318013E0319822DAF072A080311B9
:100B08000318013E0319892DB0072B080311031898
:100B1800013E0319902DB1072108A8002808F0000C
:100B280026080A168A116B210A128A117108831283
:100B38000313B9007008B8003808A8003908A900DC
:100B4800AA01AB012808B407290803110318013EBC
:100B58000319AF2DB5072A0803110318013E03191D
:100B6800B62DB6072B0803110318013E0319BD2D36
:100B7800B7072208A8002808F00025080A168A11D5
:100B88006B210A128A11710883120313B9007008C5
:100B9800B8003808A8003908A900AA01AB0128083C
:100BA800B407290803110318013E0319DC2DB50702
:100BB8002A0803110318013E0319E32DB6072B0871
:100BC80003110318013E0319EA2DB7072208A800EC
:100BD8002808F00026080A168A116B210A128A11C1
:100BE800710883120313B9007008B8003808A80008
:100BF8003908A900AA01AB0108300310A80DA90DF6
:100C0800AA0DAB0DFF3E031D012E2808B4072908C5
:100C180003110318013E0319122EB5072A08031100
:100C28000318013E0319192EB6072B0803110318E0
:100C3800013E0319202EB7072E08A8002F08A90087
:100C48003008AA003108AB0018300310AB0CAA0C0E
:100C5800A90CA80CFF3E031D292E2808B407290853
:100C680003110318013E03193A2EB5072A08031188
:100C78000318013E0319412EB6072B080311031868
:100C8800013E0319482EB7070830A8000310AE0D1F
:100C9800AF0DB00DB10DA80B4A2E33083207A800CE
:100CA800A901A90D2808823EB80029080318013EA9
:100CB800FF3EB9007E2E0130A8000310B40DB50D1B
:100CC800B60DB70DA80B612EB11F6B2E6C2E6E2EB4
:100CD80034146E2E0130A8000310AE0DAF0DB00D08
:100CE800B10DA80B702EFF30B8070318B90AFF30F2
:100CF800B9077E2EB61F812E822E5F2E832EB2015B
:100D0800B11F872E882EA82EFF302E05A800FF3091
:100D18002F05A900FF303005AA007F303105AB0050
:100D28002B082A042904280403199B2E9C2E9F2E85
:100D3800B201B20AA82E341CA22EA32EA82EB201EC
:100D4800B20AA82EA82EA82E32080319AC2EAD2E52
:100D5800E02E0130B407003003180130B507003029
:100D680003180130B607003003180130B707371CE5
:100D7800BE2EBF2EE02E3408A8003508A90036087C
:100D8800AA003708AB000130AC002B0DAB0CAA0C45
:100D9800A90CA80CAC0BC92E2B08B7002A08B60062
:100DA8002908B5002808B4000130B8070318B90AA3
:100DB8000030B907E02EE02E3908803AFF00803075
:100DC8007F02031DE92EFF303802031CEC2EED2EA6
:100DD800F82E7F3083120313B7008030B60000303E
:100DE800B5000030B4002F2F831203133908803A5E
:100DF800FF0080307F02031D032F013038020318E3
:100E0800062F072F132F003083120313B70000306B
:100E1800B6000030B5000030B400AD012F2F8312AA
:100E280003133808A8002808B300FF30B405FF30C2
:100E3800B5057F30B6050030B705331C242F252FA4
:100E4800272FB617272F3308A8000310280CA9004E
:100E58002908B7002F2F2D08A8002808B70437083D
:100E6800A3003608A2003508A1003408A0003C2FD2
:100E78000800F80078080319422F432F572FF31F53
:100E8800462F472F572F7009FA007109FB00720986
:100E9800FC007309FD00FA0A0319FB0A0319FC0A8E
:100EA8000319FD0A5F2F7308FD007208FC00710822
:100EB800FB007008FA007308720471047004031DC3
:100EC800662F672F712F0030F3000030F2000030DA
:100ED800F1000030F000FE2FFE2F9630F400740869
:100EE800F900842F0130F4007408F9070130031069
:100EF800FD0CFC0CFB0CFA0CFF3E031D7B2F842F12
:100F0800FE307D05031D892F8A2F762FA72FA72F47
:100F18000130F4007408F9070130FA0700300318AB
:100F28000130FB07003003180130FC0700300318BC
:100F38000130FD0701300310FD0CFC0CFB0CFA0C12
:100F4800FF3E031D9F2FFF307D05031DAC2FAD2FE6
:100F58008C2FBB2FBB2F0130F9020130F400031096
:100F6800FA0DFB0DFC0DFD0DF40BB32FBB2FFC1B75
:100F7800BE2FBF2FC62F023079020318C42FC52FEA
:100F8800AF2FC62F7918C92FCA2FD22FFF30FA05D5
:100F9800FF30FB057F30FC05FF30FD050310F90C21
:100FA8007908F400F501F601F70118300310F40D83
:100FB800F50DF60DF70DFF3E031DDA2F7408FA0440
:100FC8007508FB047608FC047708FD047808031903
:100FD800EE2FEF2FF52FF31FF22FF32FF52FFD171D
:100FE800F52F7D08F3007C08F2007B08F1007A08F1
:060FF800F000FE2F0800CE
:10100000FF1B0A2883137F1883170008840A03191B
:10101000FF0A080008308A000408840A82070034A6
:101020003134343437342A3432343534383430348B
:101030003334363439342334413442344334443441
:1010400055346D3469346434613464346534203427
:10105000203420343A3420342034203420342534D1
:101060000034543465346D3470342E3420344D34AF
:10107000653464342E343A3420342034203420341F
:1010800043340034413470346134673461346E3435
:1010900064346F342E342E342E340034533461349F
:1010A000763469346E3467342E342E342E34003462
:1010B00041347134753469347334693474346F3441
:1010C0007234003445344C3445344334543452344F
:1010D0004934433400346434653420344434613456
:1010E00064346F3473340034503455344C344C34DD
:0810F000203455345034003463
:1010FA00831203130813881308120808F0390338F7
:10110A0088008816C0308316031388000A30A000AE
:10111A000030A1000A168A1153200A128A152030BB
:10112A000A128A15BE200A128A1528300A128A154E
:10113A00BE200A128A150C300A128A15BE200A121B
:10114A008A1501300A128A15BE200A128A1502303F
:10115A000A128A15BE200A128A150A308316031348
:10116A00A0000030A1000A168A1153200A128A151B
:10117A00080083160313A5002508A4002408A60066
:10118A0083120313081283160313260E0F39A400C1
:10119A00831203130808831603132406F03924065E
:1011AA008312031388008812831603132503031975
:1011BA00DF28E028E72802302506031DE528E6286F
:1011CA00F128E7280230A0000030A1000A168A118F
:1011DA0053200A128A15FD28023083160313A00031
:1011EA000030A1000A168A1153200A128A15FD2816
:1011FA008312031388162030831603132506031956
:10120A000729082940298312031308128316031396
:10121A0026080F39A4008312031308088316031340
:10122A002406F039240683120313880088128316D1
:10123A00031325030319222923292A290230250603
:10124A00031D2829292934292A290230A00000301F
:10125A00A1000A168A1153200A128A153C29413024
:10126A0083160313A400A40B38293B293C298312B3
:10127A0003138816402908000C1C44294529C6294D
:10128A000C1010108F018E010130EB070318EC0AC5
:10129A000030EC076C08803AFF008B307F02031D98
:1012AA0058292D306B02031C5B295C296B29831298
:1012BA000313EB01EC010A168A11A0230A128A15FC
:1012CA000A168A15C8270A128A156B290A30F000ED
:1012DA000030F100831203136C08F3006B08F2006C
:1012EA000A168A111A250A128A1570087104031D32
:1012FA007F2980298D29831203136803031D8629F8
:10130A0087298D290A168A11C7240A128A158D2956
:10131A000230831203136806031D94299529C229F2
:10132A006909D0006A09D100D00A0319D10A6B08E9
:10133A005007D2006C0803186C0A5107D3005308EF
:10134A00803AFF0080307F02031DAD29153052021A
:10135A00031CB029B129C2290A168A111D210A12B1
:10136A008A150A168A11C7240A128A1583120313C8
:10137A00E801E80AE901EA01C229831203131014F9
:10138A00C6295708FF0056088A0055088400540EDB
:10139A008300FE0E7E0E0900831203133A08BE0074
:1013AA003B08BF003C08C0003D08C1000310400DC7
:1013BA00410DC2004208C4004408031DE529E6297C
:1013CA00F0290030BD000030BC000030BB00003006
:1013DA00BA006C2A6C2A3A08BE003B08BF003C08D7
:1013EA00C0003D08C1001F300310C10CC00CBF0C67
:1013FA00BE0CFF3E031DF9293E08C2004208C30085
:10140A00BC17FF30BA05FF30BB05FF30BC05003002
:10141A00BD059630C402C41F132A142A392A440867
:10142A00803A973E03181A2A1B2A262A0030BD0042
:10143A000030BC000030BB000030BA006C2A6C2AB5
:10144A00262A01300310BD0CBC0CBB0CBA0CFF3EA3
:10145A00031D272A0130BE003E08C407031D362A91
:10146A00372A262A5C2A5C2A20304402031C3E2A98
:10147A003F2A552A0030BD000030BC000030BB00B6
:10148A000030BA006C2A6C2A552A0130BE000310BB
:10149A00BA0DBB0DBC0DBD0DBE0B4C2A0130C402EA
:1014AA004408031D592A5A2A4A2A5C2A5C2A4308F4
:1014BA000319602A612A6C2ABA09BB09BC09BD0949
:1014CA00BA0A0319BB0A0319BC0A0319BD0A0800A0
:1014DA00831603134808CC004908CD004A08CE00F9
:1014EA004B08CF0003104E0D4F0DD0005008D2000C
:1014FA005208031D812A822A8C2A0030CB00003030
:10150A00CA000030C9000030C800082B082B480860
:10151A00CC004908CD004A08CE004B08CF001F3046
:10152A000310CF0CCE0CCD0CCC0CFF3E031D952A1C
:10153A004C08D0005008D100CA17FF30C805FF3048
:10154A00C905FF30CA050030CB059630D202D21F3A
:10155A00AF2AB02AD52A5208803A973E0318B62AEB
:10156A00B72AC22A0030CB000030CA000030C900B6
:10157A000030C800082B082BC22A01300310CB0CFC
:10158A00CA0CC90CC80CFF3E031DC32A0130CC008B
:10159A004C08D207031DD22AD32AC22AF82AF82ACB
:1015AA0020305202031CDA2ADB2AF12A0030CB004F
:1015BA000030CA000030C9000030C800082B082BD0
:1015CA00F12A0130CC000310C80DC90DCA0DCB0D8C
:1015DA00CC0BE82A0130D2025208031DF52AF62A5A
:1015EA00E62AF82AF82A51080319FC2AFD2A082BA8
:1015FA00C809C909CA09CB09C80A0319C90A0319BA
:10160A00CA0A0319CB0A0800003083160313B7006D
:10161A000030B6000030B5000030B4000030BB0026
:10162A000030BA000030B9000030B800BF016430A1
:10163A003F02031C212B222B242B892B892BBD0132
:10164A00BE013F080A168A11B3200A128A158316A8
:10165A0003132208BE002108BD003F08AE00AF01F7
:10166A002E08A0002F08A1003E08A3003D08A200F2
:10167A000A168A11BF210A128A1583160313200833
:10168A00B0002108B100B201B3013008B80731082F
:10169A0003110318013E0319532BB907320803112A
:1016AA000318013E03195A2BBA073308031103180A
:1016BA00013E0319612BBB073D08AE003E08AF008F
:1016CA00B001B1012E08B4072F0803110318013E17
:1016DA000319702BB507300803110318013E0319CB
:1016EA00772BB607310803110318013E03197E2B25
:1016FA00B7070130AE002E08BF0764303F02031C53
:10170A00872B882B242B892B3708A3003608A200A5
:10171A003508A1003408A0003B08A7003A08A60033
:10172A003908A5003808A4000A168A11AD260A123B
:10173A008A15831603132008AE002E08BC003C0845
:10174A00A62B080083160313A80028080319AE2B3A
:10175A00AF2BC32BA31FB22BB32BC32B2009AA0079
:10176A002109AB002209AC002309AD00AA0A03191A
:10177A00AB0A0319AC0A0319AD0ACB2B2308AD0037
:10178A002208AC002108AB002008AA002308220482
:10179A0021042004031DD22BD32BDD2B0030A30000
:1017AA000030A2000030A1000030A0006A2C6A2C90
:1017BA009630A4002408A900F02B0130A4002408C4
:1017CA00A90701300310AD0CAC0CAB0CAA0CFF3E00
:1017DA00031DE72BF02BFE302D05031DF52BF62BF1
:1017EA00E22B132C132C0130A4002408A907013082
:1017FA00AA07003003180130AB0700300318013084
:10180A00AC07003003180130AD0701300310AD0CEE
:10181A00AC0CAB0CAA0CFF3E031D0B2CFF302D05A4
:10182A00031D182C192CF82B272C272C0130A90260
:10183A000130A4000310AA0DAB0DAC0DAD0DA40B25
:10184A001F2C272CAC1B2A2C2B2C322C02302902C1
:10185A000318302C312C1B2C322C2918352C362C01
:10186A003E2CFF30AA05FF30AB057F30AC05FF30B8
:10187A00AD050310A90C2908A400A501A601A7011A
:10188A0018300310A40DA50DA60DA70DFF3E031DCC
:10189A00462C2408AA042508AB042608AC04270809
:1018AA00AD04280803195A2C5B2C612CA31F5E2C4B
:1018BA005F2C612CAD17612C2D08A3002C08A20007
:1018CA002B08A1002A08A0006A2C0800831603131B
:1018DA00A901071283120313071282308316031316
:1018EA00A300DD30A200A20B782CA30B782C831264
:1018FA0003130716831603130716832C8312071A7A
:10190A00872C882C832C8A2C8A2C071E8D2C8E2CB3
:10191A008A2C902C902C071A932C942C902C952C72
:10192A0083160313AA0120302A02031C9D2C9E2C25
:10193A00A12CED2CED2CA12C8312071EA52CA62C74
:10194A00A12CA72C413083160313A200A20BAB2CA7
:10195A00AE2C83160313200884008317211C8313DB
:10196A000310800D840A800D840A800D840A800D7C
:10197A0084038403840383120313071EC52CC62C15
:10198A00E02C83160313200884008317211C831379
:10199A0001308004840A00308004840A0030800404
:1019AA00840A00308004D92C8312071ADD2CDE2C1D
:1019BA00D92CE02CE02C013083160313A200220854
:1019CA00AA0720302A02031CEB2CEC2CA12CED2CAC
:1019DA00AA0108302A02031CF32CF42CF72C262D1A
:1019EA00262DF72C8312071EFB2CFC2CF72CFD2C22
:1019FA00413083160313A200A20B012D042D0310FC
:101A0A0083160313A90D83120313071E0D2D0E2D22
:101A1A00192D831603132914122D8312071A162D52
:101A2A00172D122D192D192D013083160313A2001B
:101A3A002208AA0708302A02031C242D252DF72C78
:101A4A00262D2008033EA20021080318013E003E6D
:101A5A00A300220884008317231C83130008A40010
:101A6A002008013EA50021080318013E003EA600F9
:101A7A00250884008317261C831300082407A7005F
:101A8A00A801A80D29082706280403194D2D4F2D52
:101A9A000130502D0030512D0800831603138701A1
:101AAA008312031387010A128A157D200A128A15E6
:101ABA000A168A15EC260A128A150A168A11922023
:101ACA000A128A150A168A15B3260A128A150A16DE
:101ADA008A15E4270A128A15643083160313A000B4
:101AEA000030A1000A168A1153200A128A15013001
:101AFA000A128A15BE200A128A150A168A111A2093
:101B0A000A128A15643083160313A0000030A1005C
:101B1A000A168A1153200A128A150A168A1159239B
:101B2A000A128A1501300A128A15BE200A128A156B
:101B3A000A168A15C4260A128A150A168A11442117
:101B4A000A128A150A168A1159230A128A15AD2D04
:101B5A000A128A1588260A128A1583160313DE00CA
:101B6A005E08EF000F30A0000030A1000A168A11AB
:101B7A0053200A128A15831603136F080319C62DF8
:101B8A00C72D702E6F080A168A1130240A128A1578
:101B9A00702E702E8B1301300A128A15BE200A127B
:101BAA008A150A168A1144210A128A150A168A11F6
:101BBA0059230A128A1583120313E801E80A8B17BC
:101BCA00AD2D8B1383120313E80101300A128A1513
:101BDA00BE200A128A150A168A1147260A128A157F
:101BEA008B17AD2D8B1301300A128A15BE200A12EB
:101BFA008A150A168A11E0220A128A1501308316FA
:101C0A000313A0000030A1000A128A156B240A12DD
:101C1A008A15003A0319122E132E1D2E831603134A
:101C2A006A08DE00DF015E08ED005F08EE001D2E87
:101C3A000A168A117A240A128A15033083160313A4
:101C4A00DE005E0883120313E8008B17AD2D8B1399
:101C5A000230DE005E0883120313E80001300A1224
:101C6A008A15BE200A128A150A168A15DE260A1253
:101C7A008A150A168A11E8230A128A150A168A117F
:101C8A0072200A128A15831203136C08EA006B0881
:101C9A00E9008B17AD2D8B130230DE005E0883122C
:101CAA000313E80001300A128A15BE200A128A15A7
:101CBA000A168A15D0260A128A150A168A11D520FA
:101CCA000A128A15831203136C08EA006B08E900EA
:101CDA008B17AD2DAD2D831603136F08233A031905
:101CEA00502E093A03192C2E6B3A0319CF2D033AB9
:101CFA000319E62D013A0319F72DAD2DAD2DAD2DA2
:101D0A000A128A1112288B138312031386170617D5
:101D1A008616061200000000831203130618962E78
:101D2A00972EA62E013084000A128A150A200A125A
:101D3A008A1583160313A000200883120313ED00EB
:101D4A00E22E8618A92EAA2EB92E023084000A1273
:101D5A008A150A200A128A1583160313A00020087E
:101D6A0083120313ED00E22E0619BC2EBD2ECC2ED3
:101D7A00033084000A128A150A200A128A15831669
:101D8A000313A000200883120313ED00E22E861924
:101D9A00CF2ED02EE22E043084000A128A150A2091
:101DAA000A128A1583160313A0002008831203134C
:101DBA00ED00E22EE22EE22EE22E8617061786129A
:101DCA00061600000000831203130618ED2EEE2EED
:101DDA00FD2E053084000A128A150A200A128A1575
:101DEA0083160313A000200883120313ED00392F72
:101DFA008618002F012F102F063084000A128A1528
:101E0A000A200A128A1583160313A00020088312D7
:101E1A000313ED00392F0619132F142F232F073020
:101E2A0084000A128A150A200A128A1583160313D5
:101E3A00A000200883120313ED00392F8619262FDC
:101E4A00272F392F083084000A128A150A200A120D
:101E5A008A1583160313A000200883120313ED00CA
:101E6A00392F392F392F392F86170613861606165A
:101E7A0000000000831203130618442F452F542F25
:101E8A00093084000A128A150A200A128A15831652
:101E9A000313A000200883120313ED00902F861865
:101EAA00572F582F672F0A3084000A128A150A20E2
:101EBA000A128A1583160313A0002008831203133B
:101ECA00ED00902F06196A2F6B2F7A2F0B308400A2
:101EDA000A128A150A200A128A1583160313A00009
:101EEA00200883120313ED00902F86197D2F7E2F71
:101EFA00902F0C3084000A128A150A200A128A15B9
:101F0A0083160313A000200883120313ED00902FF9
:101F1A00902F902F902F861306178616061600000C
:101F2A0000008312031306189B2F9C2FAB2F0D3032
:101F3A0084000A128A150A200A128A1583160313C4
:101F4A00A000200883120313ED00E72F8618AE2F96
:101F5A00AF2FBE2F0E3084000A128A150A200A12E9
:101F6A008A1583160313A000200883120313ED00B9
:101F7A00E72F0619C12FC22FD12F0F3084000A1262
:101F8A008A150A200A128A1583160313A00020084C
:101F9A0083120313ED00E72F8619D42FD52FE72FCD
:101FAA00103084000A128A150A200A128A1583162A
:101FBA000313A000200883120313ED00E72FE72F75
:101FCA00E72FE72F6D086E060319EC2FED2FFA2F76
:101FDA006D0883160313A000200883120313EE0072
:101FEA008B176D08FF2FFF2FFF2FED018B176D0841
:101FFA00FF2FFF2F080083160313AA003F302A057C
:10200A00A8002708A90005300310A90DFF3E031DEB
:10201A0009280310290DFF3A013E803828070A12C1
:10202A008A15BE200A168A11080083160313AB010B
:10203A004930AC008030AD0004300A168A111623EC
:10204A000A168A1183160313AB01AB0A5C30AC0083
:10205A008030AD0004300A168A1116230A168A1136
:10206A00080083160313A0003A28831603170C18D6
:10207A003F2840283A288C18432844283A284528DB
:10208A00831603132008831203178D008316031780
:10209A000C14831203170C085228080068284130D0
:1020AA0083160313A300ED30A200A20B5A28A30B38
:1020BA005A285F28013083160313A0020030031C3C
:1020CA00A103A10268288316031320082104031D13
:1020DA006F28702854287128080083160313A90052
:1020EA0029080A168A11B3200A168A1183160313BD
:1020FA002208A8002108A7000130A7070318A80A88
:10210A000030A8072808A4002708A30029080A16EF
:10211A008A1591270A168A110800831603130514D3
:10212A00831203130C13831603130C1381308312C7
:10213A0003139F008030831603139F000130831618
:10214A0003178800013083160313A0000030A10092
:10215A000A168A1153200A168A11080083160313D5
:10216A00A50025080A168A1136200A168A1183162E
:10217A000313A300A4012308A400A3012508643EB5
:10218A000A168A1136200A168A11831603132307A0
:10219A00A1000030031801302407A200D428080047
:1021AA0083160313A80164302802031CDD28DE28E5
:1021BA00E028F628F6280030A300A40028080A160A
:1021CA008A1591270A168A11013083160313A7006C
:1021DA002708A80764302802031CF428F528E028F9
:1021EA00F6280800F100F928831603178C18FE2830
:1021FA00FF28F92800297108831203178D00700837
:10220A008C00831603170C1500308B1B0130F2006B
:10221A008B1355308D00AA308D008C147218162934
:10222A0018298B1719298B13831603170C11080009
:10223A0026308400583083120313A2000408A30036
:10224A001030A4002208840083130008A500A20A03
:10225A002308840025088000A30AA40B2729DF305D
:10226A00A2002208B400FB012630FC000030FD0069
:10227A0000300A168A11AB220A168A110800B430F5
:10228A008400583083160313B0000408B1001030DC
:10229A00B2003008840083130008B300B00A310882
:1022AA00840033088000B10AB20B4E29DF30B00037
:1022BA003008C200AB01B430AC000030AD000030D1
:1022CA000A168A1116230A168A110800F800F40160
:1022DA00F5017008F200F3017208F6007308F700BE
:1022EA007629781C79297A2980297608F40703182F
:1022FA00F50A7708F50701300310F60DF70DFF3ED2
:10230A00031D81290310F80C7808031D8D298E29D5
:10231A0076298F297508F1007408F00094290800BD
:10232A002330F0000030F1000A168A155F270A16DA
:10233A008A11831203131F140130F0000030F100D8
:10234A000A168A155F270A168A11831203139F1425
:10235A00AE299F18B129B229AE29B3291E08F70060
:10236A00831603131E08F6007708F5007608F400B2
:10237A00BE29080083160313A401A501C429201C41
:10238A00C729C829CE292208A4070318A50A2308A1
:10239A00A50701300310A20DA30DFF3E031DCF298F
:1023AA0001300310A10CA00CFF3E031DD629200802
:1023BA002104031DE129E229C429E3292508A100F2
:1023CA002408A000E829080083160313A800A40122
:1023DA00A5012008A200A3012208A6002308A7003D
:1023EA00F629281CF929FA29002A2608A40703181D
:1023FA00A50A2708A50701300310A60DA70DFF3E61
:10240A00031D012A0310A80C2808031D0D2A0E2AF1
:10241A00F6290F2A2508A1002408A000142A08007A
:10242A00233083160313A0000030A1000A168A1174
:10243A0053200A168A11831203131F1401308316BC
:10244A000313A0000030A1000A168A1153200A16AD
:10245A008A11831203139F14322A9F18352A362AA7
:10246A00322A372A1E0883160313A7001E08A6005D
:10247A002708A5002608A400422A0800F5007508C6
:10248A00F4007408F600831203130816760E0F3947
:10249A00F40008087406F0397406880088120230BD
:1024AA00F0000030F1000A168A155F270A168A1111
:1024BA00831203138816081676080F39F4000808E1
:1024CA007406F0397406880088120230F000003071
:1024DA00F1000A168A155F270A168A118312031356
:1024EA008816080083160313A1007B2A8316031794
:1024FA008C18802A812A7B2A822A831603132108B0
:10250A00831203178D0083160313200883120317FF
:10251A008C00831603170C1500308B1B01308316B1
:10252A000313A2008B135530831603178D00AA30AC
:10253A008D008C14831603132218A42AA62A8B173B
:10254A00A72A8B13831603170C110800831203138F
:10255A00A1007B08A0002008F70021080A168A15A6
:10256A0047270A168A11CE2A7D0883120313FF0011
:10257A007C0884000A128A1500200A168A110A1693
:10258A008A1143220A168A110130FC070318FD0A30
:10259A00CE2A7D0883120313FF007C0884000A12E6
:1025AA008A1500200A168A11003A031DDD2ADE2A3E
:1025BA00B92ADF2A0800B430840090308316031346
:1025CA00B0000408B1001030B2003008840083174C
:1025DA000008B300B00A310884008313330880006E
:1025EA00B10AB20BEA2ADF30B0003008C200AB01F0
:1025FA00B430AC000030AD0000300A168A11162340
:10260A000A168A1183160313AB01AB0A1130AC0008
:10261A008030AD0000300A168A1116230A168A1174
:10262A00080083160313AF002B08AE002E08A7007C
:10263A002F080A168A1100200A168A11412B8316BE
:10264A0003132D0883120313FF00831603132C08A8
:10265A008400831203130A128A1500200A168A11AB
:10266A000A168A1130240A168A11013083160313B6
:10267A00AC070318AD0A412B831603132D088312E6
:10268A000313FF00831603132C0884008312031319
:10269A000A128A1500200A168A11003A031D562BBF
:1026AA00572B242B582B08000A168A11E8230A16DE
:1026BA008A1183160313D700D8015708DC0058087B
:1026CA00DD006608D9006708DA006808DB000A300E
:1026DA00A0000030A1005D08A3005C08A2000A1651
:1026EA008A118D270A168A11831603132008303E91
:1026FA00D7005708D9000A30A0000030A1005D08B1
:10270A00A3005C08A2000A168A11E2250A168A1199
:10271A00831603132008303ED7005708DA00AB01AE
:10272A00D930AC000030AD000C300A168A111623DD
:10273A000A168A1108008B130A168A1195210A169D
:10274A008A11750883120313C6007408C500450868
:10275A00F0004608F100F201F30100300A128A1172
:10276A003D270A168A11730883120313A7007208F9
:10277A00A6007108A5007008A4003E30A300FA3034
:10278A00A2003D30A1007130A0000A128A11C823AC
:10279A000A168A11831203132308BD002208BC00FB
:1027AA002108BB002008BA000A128A15D1210A168C
:1027BA008A11831203133B08C8003A08C7008B1713
:1027CA004708E72B08008B130A168A1115220A16E6
:1027DA008A11831603132508D4002408D30053084A
:1027EA00A0005408A100A201A30100300A128A1510
:1027FA00A7230A168A11831603132308B500220891
:10280A00B4002108B3002008B2003E30B100FA300B
:10281A00B0003D30AF007130AE000A128A11532069
:10282A000A168A11831603133108CB003008CA002E
:10283A002F08C9002E08C8000A128A156D220A1626
:10284A008A11831603134908D6004808D5008B1746
:10285A0055082F2C080083160313A5002508A40089
:10286A002408A60083120313081683160313260EE0
:10287A000F39A400831203130808831603132406CE
:10288A00F039240683120313880088120230831653
:10289A000313A0000030A1000A168A1153200A1659
:1028AA008A1183120313881608168316031326083F
:1028BA000F39A4008312031308088316031324068E
:1028CA00F039240683120313880088120230831613
:1028DA000313A0000030A1000A168A1153200A1619
:1028EA008A11831203138816080001308316031312
:1028FA00A0000030A1000A128A156B240A168A1158
:10290A0083160313B000B1013008B5003108B600D0
:10291A006308B2006408B3006508B4000A30A00076
:10292A000030A1003608A3003508A2000A168A1151
:10293A008D270A168A11831603132008303EB00029
:10294A003008B2000A30A0000030A1003608A30007
:10295A003508A2000A168A11E2250A168A11831678
:10296A0003132008303EB0003008B300AB01B23088
:10297A00AC000030AD000C300A168A1116230A1674
:10298A008A1108000A168A11A0230A168A118312CC
:10299A000313C900CA014908CE004A08CF008316AA
:1029AA000313660883120313CB0083160313670805
:1029BA0083120313CC0083160313680883120313CC
:1029CA00CD000A30F0000030F1004F08F3004E0845
:1029DA00F2000A168A111C270A168A117008303E5C
:1029EA0083120313C9004908CB000A30F0000030F3
:1029FA00F1004F08F3004E08F2000A168A111A2550
:102A0A000A168A117008303E83120313C900490856
:102A1A00CC00FB014B30FC000030FD000C300A16E4
:102A2A008A11AB220A168A110800F601F31F1E2D1D
:102A3A001F2D272DF209F309F20A0319F30AF601E9
:102A4A00F60A272DF11F2A2D2B2D312DF009F10918
:102A5A00F00A0319F10A312D700871040319362D91
:102A6A00372D6C2DF501F50A462D01300310F00DB6
:102A7A00F10DFF3E031D3B2D0130F4007408F507EC
:102A8A00462DF11F492D4A2D3A2D4C2D4C2D7108FA
:102A9A007302031D522D70087202031C552D562D08
:102AAA005D2D7008F2027108031CF303F3025D2D19
:102ABA0001300310F10CF00CFF3E031D5E2D0130B6
:102ACA00F502031D692D6A2D4C2D6C2D6C2D76088F
:102ADA000319702D712D772DF209F309F20A0319E2
:102AEA00F30A772D7308F1007208F0007C2D0800B4
:102AFA00F6007608F4007408F5008312031308122E
:102B0A00750E0F39F40008087406F0397406880047
:102B1A00881276030319922D932D9A2D0230760688
:102B2A00031D982D992DA42D9A2D0230F000003006
:102B3A00F1000A168A155F270A168A11AE2D02308D
:102B4A00F0000030F1000A168A155F270A168A116A
:102B5A00AE2D831203138816203076060319B62D7C
:102B6A00B72DE12D081275080F39F400080874060C
:102B7A00F03974068800881276030319C52DC62D0C
:102B8A00CD2D02307606031DCB2DCC2DD72DCD2D84
:102B9A000230F0000030F1000A168A155F270A1683
:102BAA008A11DD2D4230F400F40BD92D0000DD2D01
:102BBA00831203138816E12D080083160313A60156
:102BCA00A31FE82DE92DF12DA209A309A20A0319D1
:102BDA00A30AA601A60AF12DA11FF42DF52DFB2D9E
:102BEA00A009A109A00A0319A10AFB2D20082104A2
:102BFA000319002E012E362EA501A50A102E01302A
:102C0A000310A00DA10DFF3E031D052E0130A400E7
:102C1A002408A507102EA11F132E142E042E162EDB
:102C2A00162E21082302031D1C2E20082202031C33
:102C3A001F2E202E272E2008A2022108031CA303E0
:102C4A00A302272E01300310A10CA00CFF3E031D86
:102C5A00282E0130A502031D332E342E162E362EB1
:102C6A00362E260803193A2E3B2E412EA209A30915
:102C7A00A20A0319A30A412E2308A1002208A000D0
:102C8A00462E0800831603136008C3006108C400B7
:102C9A006208C500AB012230AC008030AD000030C4
:102CAA000A168A1116230A168A1183160313A70114
:102CBA000E300A168A1100200A168A11DF300A1607
:102CCA008A1130240A168A110A128A1509230A1649
:102CDA008A1183160313C0004008C6000A30A000F8
:102CEA000030A1004608C000C1014008A200410806
:102CFA00A3000A168A118D270A168A11831603134E
:102D0A002008303EC2004208C3000A30A00000304A
:102D1A00A1004608C000C1014008A2004108A30062
:102D2A000A168A11E2250A168A1183160313200845
:102D3A00303EC2004208C400AB01C330AC000030D0
:102D4A00AD000C300A168A1116230A168A110800D9
:102D5A00003083160313AC000030AB000030AA0029
:102D6A000030A90023082204210420040319BE2EDE
:102D7A00BF2E122FAD01AD0AD02E0130A8000310CC
:102D8A00A00DA10DA20DA30DA80BC42E0130A80001
:102D9A002808AD07D02EA31FD32ED42EC22ED62E8E
:102DAA00D62E0130A8000310A90DAA0DAB0DAC0D4B
:102DBA00A80BD82E23082702031DED2E220826026F
:102DCA00031DED2E21082502031DED2E20082402E5
:102DDA00031CF02EF12E012F2008A4022108031C47
:102DEA00210FA5022208031C220FA6022308031C96
:102DFA00230FA7022914012F01300310A30CA20CE0
:102E0A00A10CA00CFF3E031D022F0130AD02031DD1
:102E1A000F2F102FD62E122F122F2C08A3002B089B
:102E2A00A2002A08A1002908A0001B2F0800F60109
:102E3A00F11F202F212F292FF009F109F00A031978
:102E4A00F10AF601F60A292FF31F2C2F2D2F372FFF
:102E5A00F209F309F20A0319F30A0130F4007408BB
:102E6A00F606372FF701F8017008710403193E2F8F
:102E7A003F2F7C2FF501F50A4E2F01300310F00D7C
:102E8A00F10DFF3E031D432F0130F4007408F507CE
:102E9A004E2FF11F512F522F422F542F542F0130F2
:102EAA000310F70DF80DFF3E031D552F710873022D
:102EBA00031D612F70087202031C642F652F6D2F8A
:102ECA007008F2027108031CF303F30277146D2FE2
:102EDA0001300310F10CF00CFF3E031D6E2F013080
:102EEA00F502031D792F7A2F542F7C2F7C2F760819
:102EFA000319802F812F872FF709F809F70A031979
:102F0A00F80A872F7808F1007708F0008C2F08005C
:102F1A0083160313A601A11F932F942F9C2FA00998
:102F2A00A109A00A0319A10AA601A60A9C2FA31F98
:102F3A009F2FA02FAA2FA209A309A20A0319A30A45
:102F4A000130A4002408A606AA2FA701A801200878
:102F5A0021040319B12FB22FEF2FA501A50AC12F02
:102F6A0001300310A00DA10DFF3E031DB62F013045
:102F7A00A4002408A507C12FA11FC42FC52FB52F50
:102F8A00C72FC72F01300310A70DA80DFF3E031D41
:102F9A00C82F21082302031DD42F20082202031C54
:102FAA00D72FD82FE02F2008A2022108031CA30341
:102FBA00A3022714E02F01300310A10CA00CFF3E3E
:102FCA00031DE12F0130A502031DEC2FED2FC72FA2
:102FDA00EF2FEF2F26080319F32FF42FFA2FA70943
:102FEA00A809A70A0319A80AFA2F2808A10027087E
:062FFA00A000FF2F0800FB
:103D6600831203139412071683160313071608000B
:103D7600303430340034303430340034303430347D
:103D86000034831603130C148B170B1783120313BB
:103D96008F018E0131309000080083160313AB01AA
:103DA6003330AC008030AD0000300A168A1116237D
:103DB6000A168A15080083160313AB013F30AC00C0
:103DC6008030AD0000300A168A1116230A168A15AD
:103DD60008008316031381138316031789010F3016
:103DE600831603138600831203138601EE01ED0189
:103DF6000800543465346D3470342E342034413424
:103E06006D3462342E343A34203420342034203455
:103E16004334543465346D3470342E342034413494
:103E26007434753461346C343A342034203420349C
:103E3600433401347E088A007F0882000A168A15F8
:103E46001D270A168A158000840A04087D060319B0
:103E56000034FF0A0319FE0A212FF6007408F50044
:103E66007508F00076080A168A11F7200A168A15D0
:103E76007308F5007508F0007608643E0A168A1184
:103E8600F7200A168A150800FA003F307A05F8006E
:103E96007708F90005300310F90DFF3E031D4E2F7C
:103EA6000310790DFF3A013E803878070A168A1109
:103EB6007D250A168A150800702F4130F300EE3072
:103EC600F200F20B642FF30B642F00000130F002B6
:103ED6000030031CF103F102702F70087104031DFA
:103EE600752F762F602F772F0800F0007A2F831614
:103EF60003170C187F2F802F7A2F8C18832F842F6F
:103F06007A2F852F7008831203178D0083160317E7
:103F16000C14831203170C08902F08008316031342
:103F2600A6002408A5002508A00026080A168A115E
:103F360077220A168A15831603132308A500250877
:103F4600A0002608643E0A168A1177220A168A15E8
:103F56000800F50075080A168A1578270A168A15C4
:103F6600F300F4017308F400F3017508643E0A16C1
:103F76008A1578270A168A157307F1000030031888
:103F860001307407F200C72F0800F70077080A16F9
:103F96008A15AC270A168A157208F9007108F80006
:103FA6000130F8070318F90A0030F9077908F40018
:103FB6007808F30077080A168A1530270A168A1534
:103FC600080083160313AB015330AC008030AD00FC
:103FD60004300A168A1116230A168A158316031345
:103FE600AB01AB0A6530AC008030AD0004300A1678
:0A3FF6008A1116230A168A15080026
:02400E00C2E00E
:00000001FF
