:020000040000FA
:060000000A128A11122809
:10000800FE00030E83120313D4000408D5000A0867
:10001800D6007F08D7000A128A1528290A128A11E1
:1000280015288317B030FD001030FE003F30FF0068
:10003800903084000A168A15CE260A128A11831374
:10004800EB30FD001E30FE008830FF00E1308400F8
:100058000A168A15CE260A128A116530FD00083064
:10006800FE00A030FF00603084000A168A15CE26F4
:100078000A128A1183160313EB01EC01ED01EE015C
:10008800EF0183120313D801D901DA01DB01DC0186
:10009800DD01DE01DF0183010A128A15212D831695
:1000A800031331088039B6003608BB003108B600A2
:1000B8003607B7003708C100B01F632864286628D0
:1000C80041146628410803196A286B287B28410ACD
:1000D800031D6F28702879280030B1000030B00067
:1000E8000030AF000030AE007928B0178428003007
:1000F800B1000030B0000030AF000030AE008428FE
:1001080035088039B6003608BB063508B60036070C
:10011800B7003708C000B41F9228932895284014C8
:1001280095284008031999289A28AA28400A031DE7
:100138009E289F28A8280030B5000030B400003061
:10014800B3000030B200A828B417B3280030B500B7
:100158000030B4000030B3000030B200B3284008CB
:100168000319B728B828BE284108031DBC28BD2894
:10017800C828BE280030B1000030B0000030AF0001
:100188000030AE00C72BC72B2E08B6003608A000DB
:1001980034080A168A11B8210A128A118316031321
:1001A8002108C7002008C6004608B600B701B801F4
:1001B800B9013908BF003808BE003708BD00360845
:1001C800BC004708B600B701B801B9013908C50035
:1001D8003808C4003708C3003608C2002F08B60024
:1001E8003608A00033080A168A11B8210A128A11A3
:1001F800831603132108C7002008C6004608B60066
:10020800B701B801B9013608BC073708031103184C
:10021800013E03191029BD07380803110318013ED0
:1002280003191729BE07390803110318013E0319DA
:100238001E29BF074708B600B701B801B90136083B
:10024800C207370803110318013E03192C29C307F5
:10025800380803110318013E03193329C407390864
:1002680003110318013E03193A29C5073008B600DF
:100278003608A00032080A168A11B8210A128A1113
:10028800831603132108C7002008C6004608B600D5
:10029800B701B801B9013608BC07370803110318BC
:1002A800013E03195829BD07380803110318013EF8
:1002B80003195F29BE07390803110318013E031902
:1002C8006629BF074708B600B701B801B901360863
:1002D800C207370803110318013E03197429C3071D
:1002E800380803110318013E03197B29C40739088C
:1002F80003110318013E03198229C5070830B60007
:100308000310BC0DBD0DBE0DBF0DB60B84292F0803
:10031800B6003608A00032080A168A11B8210A1257
:100328008A11831603132108C7002008C60046084F
:10033800B6004708B700B801B9013608BC07370846
:1003480003110318013E0319AA29BD073808031130
:100358000318013E0319B129BE0739080311031810
:10036800013E0319B829BF072E08B6003608A000B9
:1003780033080A168A11B8210A128A118316031340
:100388002108C7002008C6004608B6004708B7007D
:10039800B801B9013608BC07370803110318013E34
:1003A8000319D729BD07380803110318013E03199B
:1003B800DE29BE07390803110318013E0319E52990
:1003C800BF070830B6000310BC0DBD0DBE0DBF0D34
:1003D800B60BE7292E08B6003608A00032080A1620
:1003E8008A11B8210A128A11831603132108C7003B
:1003F8002008C6004608B6004708B700B801B9018A
:100408003608BC07370803110318013E03190D2AE3
:10041800BD07380803110318013E0319142ABE0743
:10042800390803110318013E03191B2ABF072F08B7
:10043800B6003608A00034080A168A11B8210A1234
:100448008A11831603132108C7002008C60046082E
:10045800B6004708B700B801B9013608C20737081F
:1004680003110318013E03193A2AC3073808031178
:100478000318013E0319412AC40739080311031858
:10048800013E0319482AC5073008B6003608A000FF
:1004980033080A168A11B8210A128A11831603131F
:1004A8002108C7002008C6004608B6004708B7005C
:1004B800B801B9013608C207370803110318013E0D
:1004C8000319672AC307380803110318013E0319E3
:1004D8006E2AC407390803110318013E0319752A47
:1004E800C5073008B6003608A00034080A168A1175
:1004F800B8210A128A11831603132108C70020089D
:10050800C6004608B6004708B700B801B901083068
:100518000310B60DB70DB80DB90DFF3E031D8C2A9B
:100528003608C207370803110318013E03199D2A2C
:10053800C307380803110318013E0319A42AC40786
:10054800390803110318013E0319AB2AC5073C08F3
:10055800B6003D08B7003E08B8003F08B90018309B
:100568000310B90CB80CB70CB60CFF3E031DB42A27
:100578003608C207370803110318013E0319C52AB4
:10058800C307380803110318013E0319CC2AC4070E
:10059800390803110318013E0319D32AC507083087
:1005A800B6000310BC0DBD0DBE0DBF0DB60BD52A90
:1005B80041084007B600B701B70D3608823EC600AD
:1005C80037080318013EFF3EC700092B0130B6006B
:1005D8000310C20DC30DC40DC50DB60BEC2ABF1F09
:1005E800F62AF72AF92A4214F92A0130B60003102C
:1005F800BC0DBD0DBE0DBF0DB60BFB2AFF30C607E7
:100608000318C70AFF30C707092BC41F0C2B0D2B73
:10061800EA2A0E2BC001BF1F122B132B332BFF30DE
:100628003C05B600FF303D05B700FF303E05B80079
:100638007F303F05B90039083804370436040319F8
:10064800262B272B2A2BC001C00A332B421C2D2B0B
:100658002E2B332BC001C00A332B332B332B4008EE
:100668000319372B382B6B2B0130C20700300318C6
:100678000130C307003003180130C40700300318E5
:100688000130C507451C492B4A2B6B2B4208B60085
:100698004308B7004408B8004508B9000130BA005B
:1006A800390DB90CB80CB70CB60CBA0B542B390869
:1006B800C5003808C4003708C3003608C200013036
:1006C800C6070318C70A0030C7076B2B6B2B4708F0
:1006D800803AFF0080307F02031D742BFF304602F2
:1006E800031C772B782B832B7F3083160313C500CD
:1006F8008030C4000030C3000030C200BA2B83161B
:1007080003134708803AFF0080307F02031D8E2BB9
:10071800013046020318912B922B9E2B0030831632
:100728000313C5000030C4000030C3000030C2000D
:10073800BB01BA2B831603134608B6003608C1005E
:10074800FF30C205FF30C3057F30C4050030C50542
:10075800411CAF2BB02BB22BC417B22B4108B600EB
:100768000310360CB7003708C500BA2B3B08B60093
:100778003608C5044508B1004408B0004308AF0076
:100788004208AE00C72B08008312031323088039E0
:10079800A8002808AD002308A8002807A9002908F0
:1007A800B300A21FD82BD92BDB2B3314DB2B330838
:1007B8000319DF2BE02BF02B330A031DE42BE52B69
:1007C800EE2B0030A3000030A2000030A100003062
:1007D800A000EE2BA217F92B0030A3000030A200D6
:1007E8000030A1000030A000F92B27088039A800AC
:1007F8002808AD062708A8002807A9002908B2007C
:10080800A61F072C082C0A2C32140A2C32080319AC
:100818000E2C0F2C1F2C320A031D132C142C1D2CEC
:100828000030A7000030A6000030A5000030A4006A
:100838001D2CA617282C0030A7000030A600003079
:10084800A5000030A400282C320803192C2C2D2CCC
:10085800332C3308031D312C322C3D2C332C003023
:10086800A3000030A2000030A1000030A0003C2FFF
:100878003C2F2008A8002808F00026080A168A112C
:100888003A210A128A11710883120313B9007008F9
:10089800B8003808A800A901AA01AB012B08B100CB
:1008A8002A08B0002908AF002808AE003908A800B7
:1008B800A901AA01AB012B08B7002A08B60029082C
:1008C800B5002808B4002108A8002808F000250869
:1008D8000A168A113A210A128A117108831203131F
:1008E800B9007008B8003808A800A901AA01AB012E
:1008F8002808AE07290803110318013E0319852C9F
:10090800AF072A0803110318013E03198C2CB007FE
:100918002B0803110318013E0319932CB10739085A
:10092800A800A901AA01AB012808B40729080311E6
:100938000318013E0319A12CB5072A08031103184F
:10094800013E0319A82CB6072B0803110318013E12
:100958000319AF2CB7072208A8002808F0002408BC
:100968000A168A113A210A128A117108831203138E
:10097800B9007008B8003808A800A901AA01AB019D
:100988002808AE07290803110318013E0319CD2CC6
:10099800AF072A0803110318013E0319D42CB00726
:1009A8002B0803110318013E0319DB2CB107390882
:1009B800A800A901AA01AB012808B4072908031156
:1009C8000318013E0319E92CB5072A080311031877
:1009D800013E0319F02CB6072B0803110318013E3A
:1009E8000319F72CB7070830A8000310AE0DAF0D98
:1009F800B00DB10DA80BF92C2108A8002808F000AB
:100A080024080A168A113A210A128A1171088312D7
:100A18000313B9007008B8003808A8003908A900FD
:100A2800AA01AB012808AE07290803110318013EE3
:100A380003191F2DAF072A0803110318013E0319D4
:100A4800262DB0072B0803110318013E03192D2D7D
:100A5800B1072008A8002808F00025080A168A11FE
:100A68003A210A128A11710883120313B900700817
:100A7800B8003808A8003908A900AA01AB0128085D
:100A8800AE07290803110318013E03194C2DAF07BF
:100A98002A0803110318013E0319532DB0072B0828
:100AA80003110318013E03195A2DB1070830A80095
:100AB8000310AE0DAF0DB00DB10DA80B5C2D2008C5
:100AC800A8002808F00024080A168A113A210A12F8
:100AD8008A11710883120313B9007008B800380826
:100AE800A8003908A900AA01AB012808AE072908FF
:100AF80003110318013E0319822DAF072A080311B9
:100B08000318013E0319892DB0072B080311031898
:100B1800013E0319902DB1072108A8002808F0000C
:100B280026080A168A113A210A128A1171088312B4
:100B38000313B9007008B8003808A8003908A900DC
:100B4800AA01AB012808B407290803110318013EBC
:100B58000319AF2DB5072A0803110318013E03191D
:100B6800B62DB6072B0803110318013E0319BD2D36
:100B7800B7072208A8002808F00025080A168A11D5
:100B88003A210A128A11710883120313B9007008F6
:100B9800B8003808A8003908A900AA01AB0128083C
:100BA800B407290803110318013E0319DC2DB50702
:100BB8002A0803110318013E0319E32DB6072B0871
:100BC80003110318013E0319EA2DB7072208A800EC
:100BD8002808F00026080A168A113A210A128A11F2
:100BE800710883120313B9007008B8003808A80008
:100BF8003908A900AA01AB0108300310A80DA90DF6
:100C0800AA0DAB0DFF3E031D012E2808B4072908C5
:100C180003110318013E0319122EB5072A08031100
:100C28000318013E0319192EB6072B0803110318E0
:100C3800013E0319202EB7072E08A8002F08A90087
:100C48003008AA003108AB0018300310AB0CAA0C0E
:100C5800A90CA80CFF3E031D292E2808B407290853
:100C680003110318013E03193A2EB5072A08031188
:100C78000318013E0319412EB6072B080311031868
:100C8800013E0319482EB7070830A8000310AE0D1F
:100C9800AF0DB00DB10DA80B4A2E33083207A800CE
:100CA800A901A90D2808823EB80029080318013EA9
:100CB800FF3EB9007E2E0130A8000310B40DB50D1B
:100CC800B60DB70DA80B612EB11F6B2E6C2E6E2EB4
:100CD80034146E2E0130A8000310AE0DAF0DB00D08
:100CE800B10DA80B702EFF30B8070318B90AFF30F2
:100CF800B9077E2EB61F812E822E5F2E832EB2015B
:100D0800B11F872E882EA82EFF302E05A800FF3091
:100D18002F05A900FF303005AA007F303105AB0050
:100D28002B082A042904280403199B2E9C2E9F2E85
:100D3800B201B20AA82E341CA22EA32EA82EB201EC
:100D4800B20AA82EA82EA82E32080319AC2EAD2E52
:100D5800E02E0130B407003003180130B507003029
:100D680003180130B607003003180130B707371CE5
:100D7800BE2EBF2EE02E3408A8003508A90036087C
:100D8800AA003708AB000130AC002B0DAB0CAA0C45
:100D9800A90CA80CAC0BC92E2B08B7002A08B60062
:100DA8002908B5002808B4000130B8070318B90AA3
:100DB8000030B907E02EE02E3908803AFF00803075
:100DC8007F02031DE92EFF303802031CEC2EED2EA6
:100DD800F82E7F3083120313B7008030B60000303E
:100DE800B5000030B4002F2F831203133908803A5E
:100DF800FF0080307F02031D032F013038020318E3
:100E0800062F072F132F003083120313B70000306B
:100E1800B6000030B5000030B400AD012F2F8312AA
:100E280003133808A8002808B300FF30B405FF30C2
:100E3800B5057F30B6050030B705331C242F252FA4
:100E4800272FB617272F3308A8000310280CA9004E
:100E58002908B7002F2F2D08A8002808B70437083D
:100E6800A3003608A2003508A1003408A0003C2FD2
:100E78000800F80078080319422F432F572FF31F53
:100E8800462F472F572F7009FA007109FB00720986
:100E9800FC007309FD00FA0A0319FB0A0319FC0A8E
:100EA8000319FD0A5F2F7308FD007208FC00710822
:100EB800FB007008FA007308720471047004031DC3
:100EC800662F672F712F0030F3000030F2000030DA
:100ED800F1000030F000FE2FFE2F9630F400740869
:100EE800F900842F0130F4007408F9070130031069
:100EF800FD0CFC0CFB0CFA0CFF3E031D7B2F842F12
:100F0800FE307D05031D892F8A2F762FA72FA72F47
:100F18000130F4007408F9070130FA0700300318AB
:100F28000130FB07003003180130FC0700300318BC
:100F38000130FD0701300310FD0CFC0CFB0CFA0C12
:100F4800FF3E031D9F2FFF307D05031DAC2FAD2FE6
:100F58008C2FBB2FBB2F0130F9020130F400031096
:100F6800FA0DFB0DFC0DFD0DF40BB32FBB2FFC1B75
:100F7800BE2FBF2FC62F023079020318C42FC52FEA
:100F8800AF2FC62F7918C92FCA2FD22FFF30FA05D5
:100F9800FF30FB057F30FC05FF30FD050310F90C21
:100FA8007908F400F501F601F70118300310F40D83
:100FB800F50DF60DF70DFF3E031DDA2F7408FA0440
:100FC8007508FB047608FC047708FD047808031903
:100FD800EE2FEF2FF52FF31FF22FF32FF52FFD171D
:100FE800F52F7D08F3007C08F2007B08F1007A08F1
:060FF800F000FE2F0800CE
:10100000FF1B0A2883137F1883170008840A03191B
:10101000FF0A080008308A000408840A82070034A6
:101020003134343437342A3432343534383430348B
:101030003334363439342334413442344334443441
:1010400055346D3469346434613464346534203427
:1010500020343A34203420342034203420342534D1
:101060000034543465346D3470342E3420344134BB
:101070006D3462343A342034203420342034DF3468
:101080004334003455346D34693464346134643429
:1010900065342034203420343A3420342034203451
:1010A000203425340034543465346D3470342E3497
:1010B00020344D34653464342E343A3420342034B2
:1010C0002034203443340034413470346134673484
:1010D00061346E3464346F342E342E342E34003444
:1010E00053346134763469346E3467342E342E349C
:1010F0002E340034413471347534693473346934B6
:1011000074346F347234003445344C3445344334D1
:101110005434523449344334003464346534203414
:101120004434613464346F3473340034503455348F
:0C1130004C344C3420345534503400341E
:101140000134203420342034003483160313A500E6
:101150002508A4002408A60083120313081283168E
:101160000313260E0F39A4008312031308088316F5
:1011700003132406F039240683120313880088120F
:101180008316031325030319C628C728CE28023067
:101190002506031DCC28CD28D828CE280230A00053
:1011A0000030A1000A168A1100200A128A15E428CC
:1011B000023083160313A0000030A1000A168A1122
:1011C00000200A128A15E42883120313881620309F
:1011D0008316031325060319EE28EF282729831207
:1011E000031308128316031326080F39A400831271
:1011F00003130808831603132406F0392406831208
:101200000313880088128316031325030319092981
:101210000A29112902302506031D0F2910291B292F
:1012200011290230A0000030A1000A168A11002006
:101230000A128A152329413083160313A400A40B34
:101240001F2922292329831203138816272908001E
:101250000C1C2B292C29AD290C1010108F018E018C
:101260000130DC070318DD0A0030DD075D08803A35
:10127000FF008B307F02031D3F292D305C02031CD1
:1012800042294329522983120313DC01DD010A1686
:101290008A117A230A128A150A168A158F270A12CA
:1012A0008A1552290A30F0000030F100831203132E
:1012B0005D08F3005C08F2000A168A11A7240A12DE
:1012C0008A1570087104031D662967297429831221
:1012D00003136003031D6D296E2974290A168A11F0
:1012E00054240A128A1574290230831203136006EB
:1012F000031D7B297C29A9295A09D0005B09D1004B
:10130000D00A0319D10A5C085007D2005D080318FF
:101310005D0A5107D3005308803AFF0080307F02F6
:10132000031D942915305202031C97299829A929D5
:101330000A168A11EA200A128A150A168A115424FA
:101340000A128A1583120313E001E00ADA01DB01B5
:10135000A929831203131014AD295708FF0056085A
:101360008A0055088400540E8300FE0E7E0E09008C
:10137000831203133A08BE003B08BF003C08C000BC
:101380003D08C1000310400D410DC2004208C400D9
:101390004408031DCC29CD29D7290030BD000030D9
:1013A000BC000030BB000030BA00532A532A3A0870
:1013B000BE003B08BF003C08C0003D08C1001F3014
:1013C0000310C10CC00CBF0CBE0CFF3E031DE02976
:1013D0003E08C2004208C300BC17FF30BA05FF3008
:1013E000BB05FF30BC050030BD059630C402C41FEC
:1013F000FA29FB29202A4408803A973E0318012A3B
:10140000022A0D2A0030BD000030BC000030BB00B5
:101410000030BA00532A532A0D2A01300310BD0CA4
:10142000BC0CBB0CBA0CFF3E031D0E2A0130BE00E3
:101430003E08C407031D1D2A1E2A0D2A432A432ADB
:1014400020304402031C252A262A3C2A0030BD00F5
:101450000030BC000030BB000030BA00532A532AD1
:101460003C2A0130BE000310BA0DBB0DBC0DBD0DF2
:10147000BE0B332A0130C4024408031D402A412A0E
:10148000312A432A432A43080319472A482A532A60
:10149000BA09BB09BC09BD09BA0A0319BB0A031979
:1014A000BC0A0319BD0A0800831603134808CC00C0
:1014B0004908CD004A08CE004B08CF0003104E0D5E
:1014C0004F0DD0005008D2005208031D682A692A27
:1014D000732A0030CB000030CA000030C900003051
:1014E000C800EF2AEF2A4808CC004908CD004A0876
:1014F000CE004B08CF001F300310CF0CCE0CCD0C0C
:10150000CC0CFF3E031D7C2A4C08D0005008D100B3
:10151000CA17FF30C805FF30C905FF30CA050030C3
:10152000CB059630D202D21F962A972ABC2A52089F
:10153000803A973E03189D2A9E2AA92A0030CB00A4
:101540000030CA000030C9000030C800EF2AEF2A7E
:10155000A92A01300310CB0CCA0CC90CC80CFF3EE1
:10156000031DAA2A0130CC004C08D207031DB92A5A
:10157000BA2AA92ADF2ADF2A20305202031CC12AF4
:10158000C22AD82A0030CB000030CA000030C9007F
:101590000030C800EF2AEF2AD82A0130CC0003100F
:1015A000C80DC90DCA0DCB0DCC0BCF2A0130D2020C
:1015B0005208031DDC2ADD2ACD2ADF2ADF2A510842
:1015C0000319E32AE42AEF2AC809C909CA09CB0981
:1015D000C80A0319C90A0319CA0A0319CB0A080061
:1015E000003083160313B7000030B6000030B5009A
:1015F0000030B4000030BB000030BA000030B90049
:101600000030B800BF0164303F02031C082B092BD7
:101610000B2B702B702BBD01BE013F080A168A11DF
:1016200080200A128A15831603132208BE0021089F
:10163000BD003F08AE00AF012E08A0002F08A1009A
:101640003E08A3003D08A2000A168A118E210A1244
:101650008A15831603132008B0002108B100B201D7
:10166000B3013008B807310803110318013E03190C
:101670003A2BB907320803110318013E0319412B15
:10168000BA07330803110318013E0319482BBB079F
:101690003D08AE003E08AF00B001B1012E08B4070E
:1016A0002F0803110318013E0319572BB507300803
:1016B00003110318013E03195E2BB607310803110D
:1016C0000318013E0319652BB7070130AE002E0841
:1016D000BF0764303F02031C6E2B6F2B0B2B702B4C
:1016E0003708A3003608A2003508A1003408A0007E
:1016F0003B08A7003A08A6003908A5003808A4004E
:101700000A168A113A260A128A158316031320082C
:10171000AE002E08BC003C088D2B08008316031376
:10172000A80028080319952B962BAA2BA31F992BE9
:101730009A2BAA2B2009AA002109AB002209AC0090
:101740002309AD00AA0A0319AB0A0319AC0A03194D
:10175000AD0AB22B2308AD002208AC002108AB0073
:101760002008AA002308220421042004031DB92B09
:10177000BA2BC42B0030A3000030A2000030A1001F
:101780000030A000512C512C9630A4002408A90050
:10179000D72B0130A4002408A90701300310AD0C99
:1017A000AC0CAB0CAA0CFF3E031DCE2BD72BFE308E
:1017B0002D05031DDC2BDD2BC92BFA2BFA2B013059
:1017C000A4002408A9070130AA070030031801303B
:1017D000AB07003003180130AC07003003180130AC
:1017E000AD0701300310AD0CAC0CAB0CAA0CFF3EE6
:1017F000031DF22BFF302D05031DFF2B002CDF2BCB
:101800000E2C0E2C0130A9020130A4000310AA0DE9
:10181000AB0DAC0DAD0DA40B062C0E2CAC1B112C7E
:10182000122C192C023029020318172C182C022C08
:10183000192C29181C2C1D2C252CFF30AA05FF3033
:10184000AB057F30AC05FF30AD050310A90C2908AE
:10185000A400A501A601A70118300310A40DA50D31
:10186000A60DA70DFF3E031D2D2C2408AA04250854
:10187000AB042608AC042708AD0428080319412C42
:10188000422C482CA31F452C462C482CAD17482C25
:101890002D08A3002C08A2002B08A1002A08A000F4
:1018A000512C080083160313A400A301071283120E
:1018B00003130712823083160313A100DD30A0004A
:1018C000A00B602CA10B602C831203130716831648
:1018D000031307166B2C8312071A6F2C702C6B2CBA
:1018E000722C722C071E752C762C722C782C782C6E
:1018F000071A7B2C7C2C782C7D2C83160313A501D6
:1019000020302502031C852C862C892CD02CD02C31
:10191000892C8312071E8D2C8E2C892C8F2C413004
:1019200083160313A000A00B932C962C831603138D
:101930002408840003108313800D840A800D840A18
:10194000800D840A800D84038403840383120313AF
:10195000071EAB2CAC2CC32C831603132408840065
:1019600001308004840A00308004840A003080043E
:10197000840A00308004BC2C8312071AC02CC12CAE
:10198000BC2CC32CC32C013083160313A0002008E9
:10199000A50720302502031CCE2CCF2C892CD02C5F
:1019A000A50108302502031CD62CD72CDA2C092DD2
:1019B000092DDA2C8312071EDE2CDF2CDA2CE02C0A
:1019C000413083160313A000A00BE42CE72C031076
:1019D00083160313A30D83120313071EF02CF12C9F
:1019E000FC2C831603132314F52C8312071AF92CED
:1019F000FA2CF52CFC2CFC2C013083160313A000D0
:101A00002008A50708302502031C072D082DDA2C15
:101A1000092D2408033E840083130008A000240A33
:101A2000840000082007A100A201A20D23082106BE
:101A3000220403191C2D1E2D01301F2D0030202DD6
:101A400008000A168A11AF220A128A150A168A1588
:101A5000BA260A128A150A168A115F200A128A15F6
:101A60000A168A1580260A128A150A168A15AB27C5
:101A70000A128A15643083160313A0000030A100F7
:101A80000A168A1100200A128A1501300A128A15D4
:101A9000A5200A128A150A168A15C7270A128A155E
:101AA000643083160313A0000030A1000A168A11C7
:101AB00000200A128A150A168A1133230A128A157F
:101AC00001300A128A15A5200A128A150A168A15EB
:101AD00092260A128A150A168A1112210A128A15EA
:101AE0000A168A1133230A128A15762D0A128A15CC
:101AF00088260A128A1583160313DE005E08EB009F
:101B00000F30A0000030A1000A168A1100200A122E
:101B10008A15702E8B1301300A128A15A5200A121D
:101B20008A150A168A1112210A128A150A168A11B2
:101B300033230A128A1583120313E001E00A8B177C
:101B4000762D8B1383120313E00101300A128A15DC
:101B5000A5200A128A150A168A11D4250A128A1596
:101B60008B17762D8B1301300A128A15A5200A12C5
:101B70008A1583160313AB012230AC008030AD0010
:101B800000300A168A11F0220A128A1583160313EE
:101B9000AB01AB0A1130AC008030AD0000300A164A
:101BA0008A11F0220A128A15EC300A128A15522480
:101BB0000A128A15003A0319DE2DDF2D072E83162F
:101BC00003136D08DE00DF015E08A9005F08AA00AC
:101BD0006130E0006008AB00AC01AC0A0A168A1163
:101BE0008D270A128A15831603136F08DE00DF01A2
:101BF0005E08A9005F08AA00E730E0006008AB00BB
:101C0000AC01AC0A0A168A118D270A128A158316AE
:101C10000313AB016130AC000030AD000A300A168E
:101C20008A11F0220A128A1583160313AB01AB0A3C
:101C3000E730AC000030AD000A300A168A11F022FD
:101C40000A128A15033083160313DE005E0883121E
:101C50000313E0008B17762D8B130230DE005E0835
:101C600083120313E00001300A128A15A5200A121C
:101C70008A150A168A15AC260A128A150A168A11BE
:101C8000C2230A128A150A168A111F200A128A15FF
:101C9000831203135D08DB005C08DA008B17762DD6
:101CA0008B130230DE005E0883120313E000013064
:101CB0000A128A15A5200A128A150A168A159E2666
:101CC0000A128A150A168A11A2200A128A1583128C
:101CD00003135D08DB005C08DA008B17762D762D88
:101CE000831603136B08233A0319502E093A03197C
:101CF0002C2E6B3A03198A2D033A0319A12D013AB0
:101D00000319B22D762D762D762D0A128A111228FE
:101D10008B1383120313861706178616061200000C
:101D20000000831203130618962E972EA62E01305C
:101D300084000A128A150A200A128A1583160313D0
:101D4000A000200883120313DE00E22E8618A92EBD
:101D5000AA2EB92E023084000A128A150A200A120D
:101D60008A1583160313A000200883120313DE00D4
:101D7000E22E0619BC2EBD2ECC2E033084000A1292
:101D80008A150A200A128A1583160313A000200858
:101D900083120313DE00E22E8619CF2ED02EE22E00
:101DA000043084000A128A150A200A128A15831642
:101DB0000313A000200883120313DE00E22EE22E9C
:101DC000E22EE22E86170617861206160000000085
:101DD000831203130618ED2EEE2EFD2E053084001F
:101DE0000A128A150A200A128A1583160313A00004
:101DF000200883120313DE00392F8618002F012FCD
:101E0000102F063084000A128A150A200A128A1539
:101E100083160313A000200883120313DE00392F5A
:101E20000619132F142F232F073084000A128A1546
:101E30000A200A128A1583160313A00020088312B1
:101E40000313DE00392F8619262F272F392F08304C
:101E500084000A128A150A200A128A1583160313AF
:101E6000A000200883120313DE00392F392F392FE9
:101E7000392F8617061386160616000000008312F7
:101E800003130618442F452F542F093084000A12DB
:101E90008A150A200A128A1583160313A000200847
:101EA00083120313DE00902F8618572F582F672FA9
:101EB0000A3084000A128A150A200A128A1583162B
:101EC0000313A000200883120313DE00902F0619CD
:101ED0006A2F6B2F7A2F0B3084000A128A150A2082
:101EE0000A128A1583160313A00020088312031315
:101EF000DE00902F86197D2F7E2F902F0C308400CE
:101F00000A128A150A200A128A1583160313A000E2
:101F1000200883120313DE00902F902F902F902F14
:101F20008613061786160616000000008312031398
:101F300006189B2F9C2FAB2F0D3084000A128A1598
:101F40000A200A128A1583160313A00020088312A0
:101F50000313DE00E72F8618AE2FAF2FBE2F0E30F3
:101F600084000A128A150A200A128A15831603139E
:101F7000A000200883120313DE00E72F0619C12FEB
:101F8000C22FD12F0F3084000A128A150A200A129C
:101F90008A1583160313A000200883120313DE00A2
:101FA000E72F8619D42FD52FE72F103084000A127F
:101FB0008A150A200A128A1583160313A000200826
:101FC00083120313DE00E72FE72FE72FE72F5E08CA
:101FD0005F060319EC2FED2FFA2F5E08831603130B
:101FE000A000200883120313DF008B175E08FF2F69
:101FF000FF2FFF2FDE018B175E08FF2FFF2F08003A
:102000001528413083160313A300ED30A200A20B64
:102010000728A30B07280C28013083160313A002FE
:102020000030031CA103A102152883160313200806
:102030002104031D1C281D2801281E2808008316C2
:102040000313A90029080A168A1180200A168A118A
:10205000831603132208A8002108A7000130A70750
:102060000318A80A0030A8072808A4002708A3001E
:1020700029080A168A1558270A168A1108005434A6
:1020800065346D3470342E342034413474347534F6
:1020900061346C343A3420342034203443345434A2
:1020A00065346D3470342E34203441346D346234F0
:1020B0002E343A34203420342034203443348316F0
:1020C00003130514831203130C13831603130C1349
:1020D0008130831203139F008030831603139F0007
:1020E0000130831603178800013083160313A00004
:1020F0000030A1000A168A1100200A168A11080071
:1021000083160313A50025080A168A15E3270A1665
:102110008A1183160313A300A4012308A400A301BA
:102120002508643E0A168A15E3270A168A118316C3
:1021300003132307A1000030031801302407A20075
:10214000A128080083160313A80164302802031C89
:10215000AA28AB28AD28C328C3280030A300A400B8
:1021600028080A168A1558270A168A11013083167C
:102170000313A7002708A80764302802031CC128FE
:10218000C228AD28C3280800F100C628831603170B
:102190008C18CB28CC28C628CD28710883120317A9
:1021A0008D0070088C00831603170C1500308B1BF4
:1021B0000130F2008B1355308D00AA308D008C1445
:1021C0007218E328E5288B17E6288B13831603176C
:1021D0000C11080026308400903083120313A200F3
:1021E0000408A3001030A40022088400831700080C
:1021F000A500A20A23088400831325088000A30AEF
:10220000A40BF428DF30A2002208B400FB01263022
:10221000FC000030FD0000300A168A117A220A16EE
:102220008A110800B4308400903083160313B00084
:102230000408B1001030B200300884008317000891
:10224000B300B00A31088400831333088000B10A58
:10225000B20B1C29DF30B0003008C200AB01B43033
:10226000AC000030AD0000300A168A11F0220A16C8
:102270008A110800F800F401F5017008F200F3017A
:102280007208F6007308F7004529781C4829492987
:102290004F297608F4070318F50A7708F507013087
:1022A0000310F60DF70DFF3E031D50290310F80C27
:1022B0007808031D5C295D2945295E297508F10010
:1022C0007408F000632908002330F0000030F100AA
:1022D0000A168A150C270A168A11831203131F1473
:1022E0000130F0000030F1000A168A150C270A169A
:1022F0008A11831203139F147D299F188029812935
:102300007D2982291E08F700831603131E08F60094
:102310007708F5007608F4008D290800831603136A
:10232000A401A5019329201C962997299D292208FB
:10233000A4070318A50A2308A50701300310A20D5E
:10234000A30DFF3E031D9E2901300310A10CA00C1C
:10235000FF3E031DA52920082104031DB029B12932
:102360009329B2292508A1002408A000B729080054
:1023700083160313A800A401A5012008A200A3014D
:102380002208A6002308A700C529281CC829C92996
:10239000CF292608A4070318A50A2708A507013096
:1023A0000310A60DA70DFF3E031DD0290310A80C96
:1023B0002808031DDC29DD29C529DE292508A100FF
:1023C0002408A000E3290800233083160313A0008B
:1023D0000030A1000A168A1100200A168A11831201
:1023E00003131F14013083160313A0000030A10053
:1023F0000A168A1100200A168A11831203139F14E9
:10240000012A9F18042A052A012A062A1E08831673
:102410000313A7001E08A6002708A5002608A4008D
:10242000112A0800F5007508F4007408F6008312FC
:1024300003130816760E0F39F40008087406F039F5
:102440007406880088120230F0000030F1000A168D
:102450008A150C270A168A11831203138816081688
:1024600076080F39F40008087406F03974068800FD
:1024700088120230F0000030F1000A168A150C278D
:102480000A168A1183120313881608008316031391
:10249000A1004A2A831603178C184F2A502A4A2A69
:1024A000512A831603132108831203178D00831604
:1024B00003132008831203178C00831603170C15CF
:1024C00000308B1B013083160313A2008B13553091
:1024D000831603178D00AA308D008C148316031306
:1024E0002218732A752A8B17762A8B1383160317E3
:1024F0000C11080083120313A1007B08A000200820
:10250000F70021080A168A15F4260A168A119D2A50
:102510007D0883120313FF007C0884000A128A15C9
:1025200000200A168A110A168A1112220A168A1126
:102530000130FC070318FD0A9D2A7D08831203134E
:10254000FF007C0884000A128A1500200A168A11EE
:10255000003A031DAC2AAD2A882AAE2A080083124D
:1025600003130813881308120808F0390338880089
:102570008816C0308316031388000A30A00000308C
:10258000A1000A168A1100200A168A1120300A12A8
:102590008A15A5200A168A1128300A128A15A52044
:1025A0000A168A110C300A128A15A5200A168A11F9
:1025B00001300A128A15A5200A168A1102300A1261
:1025C0008A15A5200A168A110A3083160313A00063
:1025D0000030A1000A168A1100200A168A1108008C
:1025E00083160313AF002B08AE002E08A7002F0898
:1025F0000A168A153E270A168A111B2B8316031307
:102600002D0883120313FF00831603132C08840084
:10261000831203130A128A1500200A168A110A1659
:102620008A110A240A168A11013083160313AC0793
:102630000318AD0A1B2B831603132D0883120313F3
:10264000FF00831603132C088400831203130A125D
:102650008A1500200A168A11003A031D302B312BEF
:10266000FE2A322B08000A168A11C2230A168A1182
:1026700083160313D700D8015708DC005808DD0083
:102680006408D9006508DA006608DB000A30A0009B
:102690000030A1005D08A3005C08A2000A168A11A0
:1026A0001A270A168A11831603132008303ED70012
:1026B0005708D9000A30A0000030A1005D08A3002F
:1026C0005C08A2000A168A116F250A168A11831661
:1026D00003132008303ED7005708DA00AB01D93089
:1026E000AC000030AD000C300A168A11F0220A1638
:1026F0008A1108008B130A168A1164210A168A119E
:10270000750883120313C6007408C5004508F0005D
:102710004608F100F201F30100300A128A113D2748
:102720000A168A11730883120313A7007208A60001
:102730007108A5007008A4003E30A300FA30A20082
:102740003D30A1007130A0000A128A11C8230A1678
:102750008A11831203132308BD002208BC0021083C
:10276000BB002008BA000A128A15B8210A168A117D
:10277000831203133B08C8003A08C7008B174708A9
:10278000C12B08008B130A168A11E4210A168A113C
:10279000831603132508D4002408D3005308A0008F
:1027A0005408A100A201A30100300A128A158E2349
:1027B0000A168A11831603132308B5002208B400F1
:1027C0002108B3002008B2003E30B100FA30B0005A
:1027D0003D30AF007130AE000A128A1153200A1644
:1027E0008A11831603133108CB003008CA002F0862
:1027F000C9002E08C8000A128A1554220A168A1126
:10280000831603134908D6004808D5008B175508CE
:10281000092C080083160313A5002508A40024082A
:10282000A60083120313081683160313260E0F390E
:10283000A400831203130808831603132406F03937
:1028400024068312031388008812023083160313B0
:10285000A0000030A1000A168A1100200A168A1171
:1028600083120313881608168316031326080F39DC
:10287000A400831203130808831603132406F039F7
:102880002406831203138800881202308316031370
:10289000A0000030A1000A168A1100200A168A1131
:1028A00083120313881608000A168A117A230A165F
:1028B0008A1183120313C900CA014908CE004A08CD
:1028C000CF0083160313640883120313CB0083160F
:1028D0000313650883120313CC00831603136608E1
:1028E00083120313CD000A30F0000030F1004F08CE
:1028F000F3004E08F2000A168A11A9260A168A1158
:102900007008303E83120313C9004908CB000A3017
:10291000F0000030F1004F08F3004E08F2000A16F4
:102920008A11A7240A168A117008303E83120313F5
:10293000C9004908CC00FB014B30FC000030FD0011
:102940000C300A168A117A220A168A110800F6013A
:10295000F31FAB2CAC2CB42CF209F309F20A0319C7
:10296000F30AF601F60AB42CF11FB72CB82CBE2CD2
:10297000F009F109F00A0319F10ABE2C700871047C
:102980000319C32CC42CF92CF501F50AD32C013002
:102990000310F00DF10DFF3E031DC82C0130F400B3
:1029A0007408F507D32CF11FD62CD72CC72CD92CA3
:1029B000D92C71087302031DDF2C70087202031CEE
:1029C000E22CE32CEA2C7008F2027108031CF303DA
:1029D000F302EA2C01300310F10CF00CFF3E031D52
:1029E000EB2C0130F502031DF62CF72CD92CF92C19
:1029F000F92C76080319FD2CFE2C042DF209F3099D
:102A0000F20A0319F30A042D7308F1007208F000AA
:102A1000092D0800F6007608F4007408F50083120A
:102A200003130812750E0F39F40008087406F03904
:102A3000740688008812760303191F2D202D272D78
:102A400002307606031D252D262D312D272D02302F
:102A5000F0000030F1000A168A150C270A168A11B8
:102A60003B2D0230F0000030F1000A168A150C27C9
:102A70000A168A113B2D831203138816203076061E
:102A80000319432D442D6E2D081275080F39F400DB
:102A900008087406F0397406880088127603031952
:102AA000522D532D5A2D02307606031D582D592DC7
:102AB000642D5A2D0230F0000030F1000A168A15FC
:102AC0000C270A168A116A2D4230F400F40B662D89
:102AD00000006A2D8312031388166E2D08008316DA
:102AE0000313A601A31F752D762D7E2DA209A30920
:102AF000A20A0319A30AA601A60A7E2DA11F812DF1
:102B0000822D882DA009A109A00A0319A10A882DE8
:102B10002008210403198D2D8E2DC32DA501A50A92
:102B20009D2D01300310A00DA10DFF3E031D922D20
:102B30000130A4002408A5079D2DA11FA02DA12DC3
:102B4000912DA32DA32D21082302031DA92D2008BB
:102B50002202031CAC2DAD2DB42D2008A2022108A9
:102B6000031CA303A302B42D01300310A10CA00C7D
:102B7000FF3E031DB52D0130A502031DC02DC12D43
:102B8000A32DC32DC32D26080319C72DC82DCE2D67
:102B9000A209A309A20A0319A30ACE2D2308A100A2
:102BA0002208A000D32D0800831603136108C30078
:102BB0006208C4006308C500AB014430AC0080303B
:102BC000AD0000300A168A11F0220A168A11831607
:102BD0000313A7010E300A168A153E270A168A111A
:102BE000DF300A168A110A240A168A110A128A1577
:102BF000F0220A168A1183160313C0004008C6008B
:102C00000A30A0000030A1004608C000C101400801
:102C1000A2004108A3000A168A111A270A168A116F
:102C2000831603132008303EC2004208C3000A3056
:102C3000A0000030A1004608C000C1014008A20069
:102C40004108A3000A168A116F250A168A118316F5
:102C500003132008303EC2004208C400AB01C33059
:102C6000AC000030AD000C300A168A11F0220A16B2
:102C70008A110800003083160313AC000030AB004B
:102C80000030AA000030A9002308220421042004F7
:102C900003194B2E4C2E9F2EAD01AD0A5D2E013037
:102CA000A8000310A00DA10DA20DA30DA80B512E7D
:102CB0000130A8002808AD075D2EA31F602E612EED
:102CC0004F2E632E632E0130A8000310A90DAA0D0C
:102CD000AB0DAC0DA80B652E23082702031D7A2E21
:102CE00022082602031D7A2E21082502031D7A2EB2
:102CF00020082402031C7D2E7E2E8E2E2008A40286
:102D00002108031C210FA5022208031C220FA60282
:102D10002308031C230FA70229148E2E0130031051
:102D2000A30CA20CA10CA00CFF3E031D8F2E0130A2
:102D3000AD02031D9C2E9D2E632E9F2E9F2E2C08D0
:102D4000A3002B08A2002A08A1002908A000A82E91
:102D50000800F601F11FAD2EAE2EB62EF009F109D6
:102D6000F00A0319F10AF601F60AB62EF31FB92E7E
:102D7000BA2EC42EF209F309F20A0319F30A01303C
:102D8000F4007408F606C42EF701F8017008710407
:102D90000319CB2ECC2E092FF501F50ADB2E0130BD
:102DA0000310F00DF10DFF3E031DD02E0130F40095
:102DB0007408F507DB2EF11FDE2EDF2ECF2EE12E5D
:102DC000E12E01300310F70DF80DFF3E031DE22E3A
:102DD00071087302031DEE2E70087202031CF12E9F
:102DE000F22EFA2E7008F2027108031CF303F302AC
:102DF0007714FA2E01300310F10CF00CFF3E031D86
:102E0000FB2E0130F502031D062F072FE12E092F9F
:102E1000092F760803190D2F0E2F142FF709F80923
:102E2000F70A0319F80A142F7808F1007708F00060
:102E3000192F080083160313A601A11F202F212F8D
:102E4000292FA009A109A00A0319A10AA601A60A0F
:102E5000292FA31F2C2F2D2F372FA209A309A20A38
:102E60000319A30A0130A4002408A606372FA701DE
:102E7000A8012008210403193E2F3F2F7C2FA50114
:102E8000A50A4E2F01300310A00DA10DFF3E031D1A
:102E9000432F0130A4002408A5074E2FA11F512F56
:102EA000522F422F542F542F01300310A70DA80D7D
:102EB000FF3E031D552F21082302031D612F20080B
:102EC0002202031C642F652F6D2F2008A202210807
:102ED000031CA303A30227146D2F01300310A10CC0
:102EE000A00CFF3E031D6E2F0130A502031D792F9C
:102EF0007A2F542F7C2F7C2F26080319802F812FA7
:102F0000872FA709A809A70A0319A80A872F280845
:102F1000A1002708A0008C2F08001030831603138F
:102F2000AE002730AF002F08803AFF0080307F02CC
:102F3000031D9C2F01302E0203189F2FA02FA22FBC
:102F4000F32FF32F831603132F08A1002E08A000E0
:102F50002A08A3002908A2000A168A111A270A16AD
:102F60008A11831603132008303EAD002B0884001D
:102F70002D08831380002F08A1002E08A0002A0826
:102F8000A3002908A2000A168A116F250A168A11C1
:102F9000831603132108AA002008A9000130AD0000
:102FA0002D08AB070A30A0000030A1002F08A300B5
:102FB0002E08A2000A168A111A270A168A118316E9
:102FC00003132108AF002008AE002F08803AFF004D
:102FD00080307F02031DEE2F01302E020318F12FE7
:102FE000F22FA22FF32F831603132C080319F92FA6
:102FF000FA2FFF2F2B08840083138001FF2F080076
:103D00008312031394120716831603130716080071
:103D10003034303400343034303400342034203403
:103D200020340034831603130C148B170B178312E3
:103D300003138F018E0131309000080083160313A6
:103D4000AB015530AC008030AD0000300A168A114E
:103D5000F0220A168A15080083160313AB0161309E
:103D6000AC008030AD0000300A168A11F0220A162D
:103D70008A1508008316031381138316031789011C
:103D80000F30831603138600831203138601DF01AD
:103D9000DE0108007E088A007F0882000A168A1564
:103DA000CA260A168A158000840A04087D060319AB
:103DB0000034FF0A0319FE0ACE2EF6007408F5003F
:103DC0007508F00076080A168A11C4200A168A15AA
:103DD0007308F5007508F0007608643E0A168A112B
:103DE000C4200A168A150800FA003F307A05F80048
:103DF0007708F90005300310F90DFF3E031DFB2E77
:103E00000310790DFF3A013E803878070A168A11AF
:103E10000A250A168A1508001D2F4130F300EE30DE
:103E2000F200F20B112FF30B112F00000130F00202
:103E30000030031CF103F1021D2F70087104031DF3
:103E4000222F232F0D2F242F0800F000272F831659
:103E500003170C182C2F2D2F272F8C18302F312FB4
:103E6000272F322F7008831203178D008316031734
:103E70000C14831203170C083D2F0800831603133C
:103E8000AA003F302A05A8002708A9000530031022
:103E9000A90DFF3E031D472F0310290DFF3A013ED8
:103EA000803828070A128A15A5200A168A150800E4
:103EB00083160313A6002408A5002508A0002608E1
:103EC0000A168A1146220A168A1583160313230836
:103ED000A5002508A0002608643E0A168A1146227D
:103EE0000A168A150800F50075080A168A1525278E
:103EF0000A168A15F300F4017308F400F30175083B
:103F0000643E0A168A1525270A168A157307F100DA
:103F10000030031801307407F2008E2F0800F700FC
:103F200077080A168A1573270A168A157208F90087
:103F30007108F8000130F8070318F90A0030F90792
:103F40007908F4007808F30077080A168A15DD2648
:103F50000A168A15080083160313AB017530AC00EE
:103F60008030AD0004300A168A11F0220A168A1534
:103F700083160313AB01AB0A8730AC008030AD0071
:103F800004300A168A11F0220A168A1508008316D0
:103F90000313AB016B30AC008030AD0004300A1667
:103FA0008A11F0220A168A1583160313AB01AB0A95
:103FB0007E30AC008030AD0004300A168A11F02249
:103FC0000A168A15080083160313A000E72F83162C
:103FD00003170C18EC2FED2FE72F8C18F02FF12F73
:103FE000E72FF22F831603132008831203178D0087
:103FF000831603170C14831203170C08FF2F0800F5
:02400E00C2E00E
:00000001FF
