:020000040000FA
:060000000A128A1110280B
:10000800FE00030E83120313C9000A08CA007F0802
:10001800CB000A168A11342E0A128A111328831368
:10002800E730FD001330FE003430FF00E03084007C
:100038000A168A116B230A128A11CC01CD01CE014E
:10004800CF0183010A128A11132F83160313310873
:100058008039B6003608BB003108B6003607B7004D
:100068003708C100B01F39283A283C2841143C28D9
:1000780041080319402841285128410A031D4528F1
:1000880046284F280030B1000030B0000030AF00E3
:100098000030AE004F28B0175A280030B1000030A9
:1000A800B0000030AF000030AE005A283508803963
:1000B800B6003608BB063508B6003607B70037085D
:1000C800C000B41F682869286B2840146B284008B2
:1000D80003196F2870288028400A031D7428752882
:1000E8007E280030B5000030B4000030B300003086
:1000F800B2007E28B41789280030B5000030B4005B
:100108000030B3000030B2008928400803198D2858
:100118008E2894284108031D922893289E28942805
:100128000030B1000030B0000030AF000030AE0049
:100138009D2B9D2B2E08B6003608A00034080A1601
:100148008A11AA250A128A11831603132108C700E7
:100158002008C6004608B600B701B801B901390839
:10016800BF003808BE003708BD003608BC00470885
:10017800B600B701B801B9013908C5003808C4008C
:100188003708C3003608C2002F08B6003608A0009A
:1001980033080A168A11AA250A128A11831603132C
:1001A8002108C7002008C6004608B600B701B801F4
:1001B800B9013608BC07370803110318013E0319B3
:1001C800E628BD07380803110318013E0319ED2876
:1001D800BE07390803110318013E0319F428BF07A5
:1001E8004708B600B701B801B9013608C207370891
:1001F80003110318013E03190229C3073808031124
:100208000318013E03190929C40739080311031803
:10021800013E03191029C5073008B6003608A000AA
:1002280032080A168A11AA250A128A11831603139C
:100238002108C7002008C6004608B600B701B80163
:10024800B9013608BC07370803110318013E031922
:100258002E29BD07380803110318013E0319352953
:10026800BE07390803110318013E03193C29BF07CB
:100278004708B600B701B801B9013608C207370800
:1002880003110318013E03194A29C307380803114B
:100298000318013E03195129C4073908031103182B
:1002A800013E03195829C5070830B6000310BC0DD4
:1002B800BD0DBE0DBF0DB60B5A292F08B600360866
:1002C800A00032080A168A11AA250A128A11831672
:1002D80003132108C7002008C6004608B6004708CF
:1002E800B700B801B9013608BC073708031103186D
:1002F800013E03198029BD07380803110318013E80
:1003080003198729BE07390803110318013E031989
:100318008E29BF072E08B6003608A00033080A1633
:100328008A11AA250A128A11831603132108C70005
:100338002008C6004608B6004708B700B801B9014A
:100348003608BC07370803110318013E0319AD2905
:10035800BD07380803110318013E0319B429BE0765
:10036800390803110318013E0319BB29BF070830D8
:10037800B6000310BC0DBD0DBE0DBF0DB60BBD29DB
:100388002E08B6003608A00032080A168A11AA25D7
:100398000A128A11831603132108C7002008C60011
:1003A8004608B6004708B700B801B9013608BC07C7
:1003B800370803110318013E0319E329BD0738085C
:1003C80003110318013E0319EA29BE07390803116E
:1003D8000318013E0319F129BF072F08B600360894
:1003E800A00034080A168A11AA250A128A1183164F
:1003F80003132108C7002008C6004608B6004708AE
:10040800B700B801B9013608C20737080311031845
:10041800013E0319102AC307380803110318013EC7
:100428000319172AC407390803110318013E0319D1
:100438001E2AC5073008B6003608A00033080A1679
:100448008A11AA250A128A11831603132108C700E4
:100458002008C6004608B6004708B700B801B90129
:100468003608C207370803110318013E03193D2A4D
:10047800C307380803110318013E0319442AC407A7
:10048800390803110318013E03194B2AC507300820
:10049800B6003608A00034080A168A11AA250A12DE
:1004A8008A11831603132108C7002008C6004608CE
:1004B800B6004708B700B801B90108300310B60DF7
:1004C800B70DB80DB90DFF3E031D622A3608C207E5
:1004D800370803110318013E0319732AC3073808A4
:1004E80003110318013E03197A2AC40739080311B6
:1004F8000318013E0319812AC5073C08B6003D08C8
:10050800B7003E08B8003F08B90018300310B90C0E
:10051800B80CB70CB60CFF3E031D8A2A3608C20772
:10052800370803110318013E03199B2AC30738082B
:1005380003110318013E0319A22AC407390803113D
:100548000318013E0319A92AC5070830B60003108D
:10055800BC0DBD0DBE0DBF0DB60BAB2A4108400743
:10056800B600B701B70D3608823EC6003708031833
:10057800013EFF3EC700DF2A0130B6000310C20D5E
:10058800C30DC40DC50DB60BC22ABF1FCC2ACD2A78
:10059800CF2A4214CF2A0130B6000310BC0DBD0D7E
:1005A800BE0DBF0DB60BD12AFF30C6070318C70A08
:1005B800FF30C707DF2AC41FE22AE32AC02AE42A39
:1005C800C001BF1FE82AE92A092BFF303C05B60005
:1005D800FF303D05B700FF303E05B8007F303F05CE
:1005E800B90039083804370436040319FC2AFD2AEF
:1005F800002BC001C00A092B421C032B042B092B1A
:10060800C001C00A092B092B092B400803190D2B1F
:100618000E2B412B0130C207003003180130C307ED
:10062800003003180130C407003003180130C50733
:10063800451C1F2B202B412B4208B6004308B7004E
:100648004408B8004508B9000130BA00390DB90CA2
:10065800B80CB70CB60CBA0B2A2B3908C5003808E9
:10066800C4003708C3003608C2000130C6070318A3
:10067800C70A0030C707412B412B4708803AFF00C3
:1006880080307F02031D4A2BFF304602031C4D2B8E
:100698004E2B592B7F3083160313C5008030C400BE
:1006A8000030C3000030C200902B831603134708A4
:1006B800803AFF0080307F02031D642B0130460220
:1006C8000318672B682B742B003083160313C5009F
:1006D8000030C4000030C3000030C200BB01902BC2
:1006E800831603134608B6003608C100FF30C2055A
:1006F800FF30C3057F30C4050030C505411C852B7C
:10070800862B882BC417882B4108B6000310360C9B
:10071800B7003708C500902B3B08B6003608C5045B
:100728004508B1004408B0004308AF004208AE00D5
:100738009D2B08008312031323088039A80028087A
:10074800AD002308A8002807A9002908B300A21FA4
:10075800AE2BAF2BB12B3314B12B33080319B52BA8
:10076800B62BC62B330A031DBA2BBB2BC42B003068
:10077800A3000030A2000030A1000030A000C42B6C
:10078800A217CF2B0030A3000030A2000030A10038
:100798000030A000CF2B27088039A8002808AD0614
:1007A8002708A8002807A9002908B200A61FDD2BE2
:1007B800DE2BE02B3214E02B32080319E42BE52B57
:1007C800F52B320A031DE92BEA2BF32B0030A70087
:1007D8000030A6000030A5000030A400F32BA617B7
:1007E800FE2B0030A7000030A6000030A500003026
:1007F800A400FE2B32080319022C032C092C330801
:10080800031D072C082C132C092C0030A3000030E2
:10081800A2000030A1000030A000122F122F2008E3
:10082800A8002808F00026080A168A112C250A12A2
:100838008A11710883120313B9007008B8003808C8
:10084800A800A901AA01AB012B08B1002A08B00031
:100858002908AF002808AE003908A800A901AA0194
:10086800AB012B08B7002A08B6002908B5002808EC
:10087800B4002108A8002808F00025080A168A11E3
:100888002C250A128A11710883120313B900700803
:10089800B8003808A800A901AA01AB012808AE07CA
:1008A800290803110318013E03195B2CAF072A0816
:1008B80003110318013E0319622CB0072B0803111A
:1008C8000318013E0319692CB1073908A800A901CA
:1008D800AA01AB012808B407290803110318013E2F
:1008E8000319772CB5072A0803110318013E0319C9
:1008F8007E2CB6072B0803110318013E0319852C1B
:10090800B7072208A8002808F00024080A168A1148
:100918002C250A128A11710883120313B900700872
:10092800B8003808A800A901AA01AB012808AE0739
:10093800290803110318013E0319A32CAF072A083D
:1009480003110318013E0319AA2CB0072B08031141
:100958000318013E0319B12CB1073908A800A901F1
:10096800AA01AB012808B407290803110318013E9E
:100978000319BF2CB5072A0803110318013E0319F0
:10098800C62CB6072B0803110318013E0319CD2CFA
:10099800B7070830A8000310AE0DAF0DB00DB10DAC
:1009A800A80BCF2C2108A8002808F00024080A1654
:1009B8008A112C250A128A11710883120313B900AF
:1009C8007008B8003808A8003908A900AA01AB01C6
:1009D8002808AE07290803110318013E0319F52C4E
:1009E800AF072A0803110318013E0319FC2CB007AE
:1009F8002B0803110318013E0319032DB107200822
:100A0800A8002808F00025080A168A112C250A12C1
:100A18008A11710883120313B9007008B8003808E6
:100A2800A8003908A900AA01AB012808AE072908BF
:100A380003110318013E0319222DAF072A080311D9
:100A48000318013E0319292DB0072B0803110318B9
:100A5800013E0319302DB1070830A8000310AE0D70
:100A6800AF0DB00DB10DA80B322D2008A800280835
:100A7800F00024080A168A112C250A128A11710816
:100A880083120313B9007008B8003808A8003908A1
:100A9800A900AA01AB012808AE0729080311031809
:100AA800013E0319582DAF072A0803110318013E08
:100AB80003195F2DB0072B0803110318013E031912
:100AC800662DB1072108A8002808F00026080A1694
:100AD8008A112C250A128A11710883120313B9008E
:100AE8007008B8003808A8003908A900AA01AB01A5
:100AF8002808B407290803110318013E0319852D96
:100B0800B5072A0803110318013E03198C2DB607EF
:100B18002B0803110318013E0319932DB707220868
:100B2800A8002808F00025080A168A112C250A12A0
:100B38008A11710883120313B9007008B8003808C5
:100B4800A8003908A900AA01AB012808B407290898
:100B580003110318013E0319B22DB5072A08031122
:100B68000318013E0319B92DB6072B080311031802
:100B7800013E0319C02DB7072208A8002808F00075
:100B880026080A168A112C250A128A11710883125E
:100B98000313B9007008B8003808A8003908A9007C
:100BA800AA01AB0108300310A80DA90DAA0DAB0DC1
:100BB800FF3E031DD72D2808B40729080311031881
:100BC800013E0319E82DB5072A0803110318013E51
:100BD8000319EF2DB6072B0803110318013E03195B
:100BE800F62DB7072E08A8002F08A9003008AA007C
:100BF8003108AB0018300310AB0CAA0CA90CA80CD8
:100C0800FF3E031DFF2D2808B40729080311031808
:100C1800013E0319102EB5072A0803110318013ED7
:100C28000319172EB6072B0803110318013E0319E1
:100C38001E2EB7070830A8000310AE0DAF0DB00D7B
:100C4800B10DA80B202E33083207A800A901A90D61
:100C58002808823EB80029080318013EFF3EB90063
:100C6800542E0130A8000310B40DB50DB60DB70D04
:100C7800A80B372EB11F412E422E442E3414442E79
:100C88000130A8000310AE0DAF0DB00DB10DA80BCB
:100C9800462EFF30B8070318B90AFF30B907542E9B
:100CA800B61F572E582E352E592EB201B11F5D2E64
:100CB8005E2E7E2EFF302E05A800FF302F05A900DE
:100CC800FF303005AA007F303105AB002B082A041D
:100CD800290428040319712E722E752EB201B20A46
:100CE8007E2E341C782E792E7E2EB201B20A7E2EEC
:100CF8007E2E7E2E32080319822E832EB62E0130C8
:100D0800B407003003180130B5070030031801306C
:100D1800B607003003180130B707371C942E952EFC
:100D2800B62E3408A8003508A9003608AA003708E6
:100D3800AB000130AC002B0DAB0CAA0CA90CA80C15
:100D4800AC0B9F2E2B08B7002A08B6002908B5005F
:100D58002808B4000130B8070318B90A0030B907E9
:100D6800B62EB62E3908803AFF0080307F02031D68
:100D7800BF2EFF303802031CC22EC32ECE2E7F306A
:100D880083120313B7008030B6000030B50000307E
:100D9800B400052F831203133908803AFF0080300E
:100DA8007F02031DD92E013038020318DC2EDD2EF8
:100DB800E92E003083120313B7000030B60000306C
:100DC800B5000030B400AD01052F831203133808B5
:100DD800A8002808B300FF30B405FF30B5057F3000
:100DE800B6050030B705331CFA2EFB2EFD2EB617BC
:100DF800FD2E3308A8000310280CA9002908B70005
:100E0800052F2D08A8002808B7043708A3003608BE
:100E1800A2003508A1003408A000122F080083168C
:100E2800031387018312031387010A168A11A9265F
:100E38000A128A110A168A1157230A128A110A16E7
:100E48008A11C7240A128A110A168A1131240A1231
:100E58008A11643083160313A0000030A1000A161B
:100E68008A1188240A128A1101300A128A15AC22C2
:100E78000A128A110A128A1599200A128A116430F4
:100E880083160313A0000030A1000A168A118824D3
:100E98000A128A110A168A11B9270A128A11013010
:100EA8000A128A15AC220A128A110A128A11F42728
:100EB8000A128A110A168A114D240A128A11642FFD
:100EC8000A128A158B260A128A1183160313DE006A
:100ED8005E08DF006603031D722F732F792F0A1631
:100EE8008A11B9270A128A11792F831603135F080A
:100EF80003197F2F802FDF2F5F080A128A15B5206C
:100F08000A128A11DF2FDF2F01300A128A15AC224C
:100F18000A128A110A168A11D6250A128A110A1685
:100F28008A1173270A128A110A168A114D240A1285
:100F38008A1183160313E601E60A642F01300A12A8
:100F48008A15AC220A128A110A128A1564210A1219
:100F58008A1183160313E601642F01300A128A15D9
:100F6800AC220A128A110A168A1173270A128A11E8
:100F78000A168A11A7240A128A110A168A11492305
:100F88000A128A1183160313E601642F01300A122C
:100F98008A15AC220A128A110A168A113B230A12F0
:100FA8008A110A168A110A250A128A11831603134E
:100FB800E601642F642F831603135F08233A03198D
:100FC800CA2F093A0319B12F6B3A0319882F033A2C
:100FD8000319A22F642F642F642F0A128A11102874
:100FE800831603130C148B170B17831203138F012B
:100FF8008E01313090000800FF1B0A2883137F18E8
:1010080083170008840A0319FF0A080008308A00B9
:101018000408840A820700343134343437342A34DB
:101028003234353438343034333436343934233484
:101038004134423443344434543465346D34703468
:101048002E3420344D34653464342E343A3420340C
:1010580020342034203443340034543465346D341F
:1010680070342E34203441347434753461346C3423
:101078003A34203420342034433400345334453453
:101088004C34453454344F34523420344434453489
:101098002034543445344C344134533400344134CE
:1010A80070346134673461346E3464346F342E3490
:1010B8002E342E3400345B3441345D3420345B34B8
:1010C80042345D3420345B3443345D34003453346B
:1010D8006134763469346E3467342E342E342E34C9
:1010E8000034413471347534693473346934743478
:1010F8006F347234003445344C34453443345434FA
:10110800523449344334003464346534203444342C
:10111800613464346F3473340034503455344C348F
:101128004C34203455345034003483160313AB0147
:101138006630AC008030AD0004300A168A11EA2609
:101148000A128A1583160313AB01AB0A7930AC0077
:101158008030AD0004300A168A11EA260A128A1570
:10116800080083160313A5002508A4002408A60078
:1011780083120313081683160313260E0F39A400CF
:10118800831203130808831603132406F039240670
:101198008312031388008812023083160313A000F9
:1011A8000030A1000A168A1188240A128A158312AF
:1011B8000313881608168316031326080F39A4008C
:1011C800831203130808831603132406F039240630
:1011D8008312031388008812023083160313A000B9
:1011E8000030A1000A168A1188240A128A1583126F
:1011F80003138816080083160313A601A31F0529E5
:1012080006290E29A209A309A20A0319A30AA601FD
:10121800A60A0E29A11F112912291829A009A10916
:10122800A00A0319A10A18292008210403191D2955
:101238001E295329A501A50A2D2901300310A00D47
:10124800A10DFF3E031D22290130A4002408A50793
:101258002D29A11F30293129212933293329210892
:101268002302031D392920082202031C3C293D2999
:1012780044292008A2022108031CA303A30244292D
:1012880001300310A10CA00CFF3E031D45290130BD
:10129800A502031D5029512933295329532926080A
:1012A8000319572958295E29A209A309A20A031973
:1012B800A30A5E292308A1002208A00063290800C8
:1012C800831603136008C3006108C4006208C500E0
:1012D800AB011130AC008030AD0000300A168A1125
:1012E800EA260A128A1583160313A7010E300A1676
:1012F8008A11C4230A128A15DF300A128A15B5200A
:101308000A128A150A128A1567240A128A15831680
:101318000313C0004008C6000A30A0000030A10036
:101328004608C000C1014008A2004108A3000A12F3
:101338008A1539220A128A15831603132008303EAB
:10134800C2004208C3000A30A0000030A1004608CD
:10135800C000C1014008A2004108A3000A128A1572
:10136800FF200A128A15831603132008303EC20094
:101378004208C400AB01C330AC000030AD000C30F3
:101388000A168A11EA260A128A15080000308316FE
:101398000313AC000030AB000030AA000030A900F5
:1013A80023082204210420040319DB29DC292F2A1D
:1013B800AD01AD0AED290130A8000310A00DA10D63
:1013C800A20DA30DA80BE1290130A8002808AD073C
:1013D800ED29A31FF029F129DF29F329F329013089
:1013E800A8000310A90DAA0DAB0DAC0DA80BF5298B
:1013F80023082702031D0A2A22082602031D0A2A97
:1014080021082502031D0A2A20082402031C0D2A8C
:101418000E2A1E2A2008A4022108031C210FA50257
:101428002208031C220FA6022308031C230FA7026D
:1014380029141E2A01300310A30CA20CA10CA00C25
:10144800FF3E031D1F2A0130AD02031D2C2A2D2A41
:10145800F3292F2A2F2A2C08A3002B08A2002A08D8
:10146800A1002908A000382A080083160313A60142
:10147800A11F3F2A402A482AA009A109A00A031946
:10148800A10AA601A60A482AA31F4B2A4C2A562AB3
:10149800A209A309A20A0319A30A0130A400240877
:1014A800A606562AA701A8012008210403195D2AC7
:1014B8005E2A9B2AA501A50A6D2A01300310A00DFA
:1014C800A10DFF3E031D622A0130A4002408A507D0
:1014D8006D2AA11F702A712A612A732A732A013082
:1014E8000310A70DA80DFF3E031D742A210823022F
:1014F800031D802A20082202031C832A842A8C2A9E
:101508002008A2022108031CA303A30227148C2A83
:1015180001300310A10CA00CFF3E031D8D2A0130E1
:10152800A502031D982A992A732A9B2A9B2A260812
:1015380003199F2AA02AA62AA709A809A70A0319F6
:10154800A80AA62A2808A1002708A000AB2A080094
:1015580083160313A5002508A4002408A6008312F7
:101568000313081283160313260E0F39A4008312DF
:1015780003130808831603132406F039240683127C
:101588000313880088128316031325030319CD2A31
:10159800CE2AD52A02302506031DD32AD42ADF2ACB
:1015A800D52A0230A0000030A1000A168A1188242A
:1015B8000A128A15EB2A023083160313A0000030A2
:1015C800A1000A168A1188240A128A15EB2A8312A6
:1015D8000313881620308316031325060319F52AEA
:1015E800F62A2E2B831203130812831603132608D8
:1015F8000F39A40083120313080883160313240663
:10160800F039240683120313880088128316031303
:1016180025030319102B112B182B02302506031D47
:10162800162B172B222B182B0230A0000030A100FC
:101638000A168A1188240A128A152A2B4130831621
:101648000313A400A40B262B292B2A2B8312031384
:1016580088162E2B0800831203133A08BE003B0895
:10166800BF003C08C0003D08C1000310400D410DFB
:10167800C2004208C4004408031D432B442B4E2BD0
:101688000030BD000030BC000030BB000030BA00A4
:10169800CA2BCA2B3A08BE003B08BF003C08C00052
:1016A8003D08C1001F300310C10CC00CBF0CBE0C9C
:1016B800FF3E031D572B3E08C2004208C300BC175B
:1016C800FF30BA05FF30BB05FF30BC050030BD0553
:1016D8009630C402C41F712B722B972B4408803A92
:1016E800973E0318782B792B842B0030BD000030EF
:1016F800BC000030BB000030BA00CA2BCA2B842BB8
:1017080001300310BD0CBC0CBB0CBA0CFF3E031D12
:10171800852B0130BE003E08C407031D942B952B72
:10172800842BBA2BBA2B20304402031C9C2B9D2BF4
:10173800B32B0030BD000030BC000030BB000030CF
:10174800BA00CA2BCA2BB32B0130BE000310BA0D46
:10175800BB0DBC0DBD0DBE0BAA2B0130C402440845
:10176800031DB72BB82BA82BBA2BBA2B4308031988
:10177800BE2BBF2BCA2BBA09BB09BC09BD09BA0AC3
:101788000319BB0A0319BC0A0319BD0A080083160A
:1017980003134808CC004908CD004A08CE004B087E
:1017A800CF0003104E0D4F0DD0005008D200520844
:1017B800031DDF2BE02BEA2B0030CB000030CA00E2
:1017C8000030C9000030C800662C662C4808CC00E0
:1017D8004908CD004A08CE004B08CF001F3003103F
:1017E800CF0CCE0CCD0CCC0CFF3E031DF32B4C08BC
:1017F800D0005008D100CA17FF30C805FF30C9050E
:10180800FF30CA050030CB059630D202D21F0D2C0E
:101818000E2C332C5208803A973E0318142C152CA2
:10182800202C0030CB000030CA000030C900003046
:10183800C800662C662C202C01300310CB0CCA0C77
:10184800C90CC80CFF3E031D212C0130CC004C08EC
:10185800D207031D302C312C202C562C562C20302E
:101868005202031C382C392C4F2C0030CB0000308E
:10187800CA000030C9000030C800662C662C4F2C06
:101888000130CC000310C80DC90DCA0DCB0DCC0B0F
:10189800462C0130D2025208031D532C542C442CE0
:1018A800562C562C510803195A2C5B2C662CC80947
:1018B800C909CA09CB09C80A0319C90A0319CA0AF6
:1018C8000319CB0A0800003083160313B700003051
:1018D800B6000030B5000030B4000030BB00003066
:1018E800BA000030B9000030B800BF0164303F02D0
:1018F800031C7F2C802C822CE72CE72CBD01BE0119
:101908003F080A168A11E8240A128A158316031357
:101918002208BE002108BD003F08AE00AF012E0816
:10192800A0002F08A1003E08A3003D08A2000A1647
:101938008A1180250A128A15831603132008B0001D
:101948002108B100B201B3013008B807310803110A
:101958000318013E0319B12CB90732080311031803
:10196800013E0319B82CBA07330803110318013EC6
:101978000319BF2CBB073D08AE003E08AF00B001FD
:10198800B1012E08B4072F0803110318013E0319EB
:10199800CE2CB507300803110318013E0319D52CC6
:1019A800B607310803110318013E0319DC2CB707E9
:1019B8000130AE002E08BF0764303F02031CE52C3F
:1019C800E62C822CE72C3708A3003608A20035083D
:1019D800A1003408A0003B08A7003A08A60039086F
:1019E800A5003808A4000A128A15CA210A128A1505
:1019F800831603132008AE002E08BC003C08042DF3
:101A08000800F800780803190A2D0B2D1F2DF31F65
:101A18000E2D0F2D1F2D7009FA007109FB00720998
:101A2800FC007309FD00FA0A0319FB0A0319FC0AF2
:101A38000319FD0A272D7308FD007208FC007108C0
:101A4800FB007008FA007308720471047004031D27
:101A58002E2D2F2D392D0030F3000030F2000030EC
:101A6800F1000030F000C62DC62D9630F400740841
:101A7800F9004C2D0130F4007408F9070130031007
:101A8800FD0CFC0CFB0CFA0CFF3E031D432D4C2DEA
:101A9800FE307D05031D512D522D3E2D6F2D6F2DCE
:101AA8000130F4007408F9070130FA070030031810
:101AB8000130FB07003003180130FC070030031821
:101AC8000130FD0701300310FD0CFC0CFB0CFA0C77
:101AD800FF3E031D672DFF307D05031D742D752DF9
:101AE800542D832D832D0130F9020130F4000310A9
:101AF800FA0DFB0DFC0DFD0DF40B7B2D832DFC1B4E
:101B0800862D872D8E2D0230790203188C2D8D2D70
:101B1800772D8E2D7918912D922D9A2DFF30FA055B
:101B2800FF30FB057F30FC05FF30FD050310F90C85
:101B38007908F400F501F601F70118300310F40DE7
:101B4800F50DF60DF70DFF3E031DA22D7408FA04DE
:101B58007508FB047608FC047708FD047808031967
:101B6800B62DB72DBD2DF31FBA2DBB2DBD2DFD17DD
:101B7800BD2D7D08F3007C08F2007B08F1007A088F
:101B8800F000C62D080083160313A80028080319BF
:101B9800CE2DCF2DE32DA31FD22DD32DE32D20093C
:101BA800AA002109AB002209AC002309AD00AA0A4A
:101BB8000319AB0A0319AC0A0319AD0AEB2D230864
:101BC800AD002208AC002108AB002008AA002308B9
:101BD800220421042004031DF22DF32DFD2D0030D5
:101BE800A3000030A2000030A1000030A0008A2E1F
:101BF8008A2E9630A4002408A900102E0130A400D3
:101C08002408A90701300310AD0CAC0CAB0CAA0CCE
:101C1800FF3E031D072E102EFE302D05031D152E29
:101C2800162E022E332E332E0130A4002408A907C5
:101C38000130AA07003003180130AB070030031841
:101C48000130AC07003003180130AD070130031034
:101C5800AD0CAC0CAB0CAA0CFF3E031D2B2EFF30B9
:101C68002D05031D382E392E182E472E472E0130EC
:101C7800A9020130A4000310AA0DAB0DAC0DAD0DE7
:101C8800A40B3F2E472EAC1B4A2E4B2E522E023051
:101C980029020318502E512E3B2E522E2918552E4C
:101CA800562E5E2EFF30AA05FF30AB057F30AC05FF
:101CB800FF30AD050310A90C2908A400A501A60151
:101CC800A70118300310A40DA50DA60DA70DFF3E02
:101CD800031D662E2408AA042508AB042608AC04B4
:101CE8002708AD04280803197A2E7B2E812EA31FFE
:101CF8007E2E7F2E812EAD17812E2D08A3002C0855
:101D0800A2002B08A1002A08A0008A2E080083122E
:101D180003138617061786160612000000008312A2
:101D280003130618982E992EA82E013084000A1243
:101D38008A150A200A128A1583160313A0002008A0
:101D480083120313CE00E42E8618AB2EAC2EBB2EC6
:101D5800023084000A128A150A200A128A1583168C
:101D68000313A000200883120313CE00E42E0619E3
:101D7800BE2EBF2ECE2E033084000A128A150A20EA
:101D88000A128A1583160313A0002008831203136E
:101D9800CE00E42E8619D12ED22EE42E04308400F3
:101DA8000A128A150A200A128A1583160313A0003C
:101DB800200883120313CE00E42EE42EE42EE42E32
:101DC80086170617861206160000000083120313F2
:101DD8000618EF2EF02EFF2E053084000A128A1501
:101DE8000A200A128A1583160313A00020088312FA
:101DF8000313CE003B2F8618022F032F122F063015
:101E080084000A128A150A200A128A1583160313F7
:101E1800A000200883120313CE003B2F0619152FAC
:101E2800162F252F073084000A128A150A200A1255
:101E38008A1583160313A000200883120313CE000B
:101E48003B2F8619282F292F3B2F083084000A1290
:101E58008A150A200A128A1583160313A00020087F
:101E680083120313CE003B2F3B2F3B2F3B2F8617AC
:101E780006138616061600000000831203130618C0
:101E8800462F472F562F093084000A128A150A2038
:101E98000A128A1583160313A0002008831203135D
:101EA800CE00922F8618592F5A2F692F0A30840096
:101EB8000A128A150A200A128A1583160313A0002B
:101EC800200883120313CE00922F06196C2F6D2F52
:101ED8007C2F0B3084000A128A150A200A128A15F0
:101EE80083160313A000200883120313CE00922F39
:101EF80086197F2F802F922F0C3084000A128A15A2
:101F08000A200A128A1583160313A00020088312D8
:101F18000313CE00922F922F922F922F861306171B
:101F280086160616000000008312031306189D2F5C
:101F38009E2FAD2F0D3084000A128A150A200A122E
:101F48008A1583160313A000200883120313CE00FA
:101F5800E92F8618B02FB12FC02F0E3084000A1237
:101F68008A150A200A128A1583160313A00020086E
:101F780083120313CE00E92F0619C32FC42FD32FC2
:101F88000F3084000A128A150A200A128A1583164D
:101F98000313A000200883120313CE00E92F86192B
:101FA800D62FD72FE92F103084000A128A150A205D
:101FB8000A128A1583160313A0002008831203133C
:101FC800CE00E92FE92FE92FE92F4E084F06031914
:101FD800EE2FEF2FFB2F4E0883160313A0002008C7
:101FE80083120313CF004E08FF2FFF2FFF2FCE01C0
:081FF8004E08FF2FFF2F080027
:10266800303430340034303430340034013483169C
:102678000313AB014430AC008030AD0000300A16C3
:102688008A11EA260A168A11080083160313AB0179
:102698005C30AC008030AD0000300A168A11EA26A2
:1026A8000A168A1108008316031381138316031769
:1026B80089010F30831603138600831203138601E2
:1026C800CF01CE0108007E088A007F0882000A1622
:1026D8008A1167230A168A118000840A04087D0675
:1026E80003190034FF0A0319FE0A6B2BFA00780855
:1026F800F9007908F4007A080A168A1104260A16DD
:102708008A117708F9007908F4007A08643E0A16F5
:102718008A1104260A168A110800A22B4130F300F8
:10272800EE30F200F20B962BF30B962B00000130E3
:10273800F0020030031CF103F102A22B70087104AF
:10274800031DA72BA82B922BA92B0800F000AC2B5C
:10275800831603170C18B12BB22BAC2B8C18B52B86
:10276800B62BAC2BB72B7008831203178D0083167A
:1027780003178C130C14831203170C08C32B0800BF
:1027880083160313AA003F302A05A8002708A900CA
:1027980005300310A90DFF3E031DCD2B0310290D95
:1027A800FF3A013E803828070A128A15AC220A1619
:1027B8008A11080083160313AA002808A90029080B
:1027C800A4002A080A168A1169260A168A1183168D
:1027D80003132708A9002908A4002A08643E0A163A
:1027E8008A1169260A168A110800F50075080A1662
:1027F8008A11AA230A168A11F300F4017308F40057
:10280800F3017508643E0A168A11AA230A168A116A
:102818007307F1000030031801307407F200142C1C
:102828000800FB007B080A168A11F9230A168A1188
:102838007208FD007108FC000130FC070318FD0A4E
:102848000030FD077D08F8007C08F7007B080A16B1
:102858008A117A230A168A11080083160313AB011A
:102868007030AC008030AD0004300A168A11EA26B8
:102878000A168A1183160313AB01AB0A8230AC0027
:102888008030AD0004300A168A11EA260A168A1129
:10289800080083160313AB012230AC008030AD0072
:1028A80000300A168A11EA260A168A1183160313BB
:1028B800A7010E300A168A11C4230A168A11DF30BE
:1028C8000A128A15B5200A168A11080083160313FE
:1028D800A0006E2C831603170C18732C742C6E2C06
:1028E8008C18772C782C6E2C792C831603132008DF
:1028F800831203178D00831603178C130C1483128D
:1029080003170C08872C08009D2C413083160313ED
:10291800A300ED30A200A20B8F2CA30B8F2C942CBC
:10292800013083160313A0020030031CA103A10287
:102938009D2C8316031320082104031DA42CA52C09
:10294800892CA62C080083160313AD002D080A163F
:102958008A11E8240A168A11831603132208AC0088
:102968002108AB000130AB070318AC0A0030AC07F4
:102978002C08A8002B08A7002D080A168A11DE23A8
:102988000A168A1108008316031305148312031309
:102998000C13831603130C138130831203139F0047
:1029A8008030831603139F000130831603178800B5
:1029B800013083160313A0000030A1000A168A1103
:1029C80088240A168A11080083160313A50025080F
:1029D8000A168A116A240A168A1183160313A30099
:1029E800A4012308A400A3012508643E0A168A113D
:1029F8006A240A168A11831603132307A1000030DC
:102A0800031801302407A200092D080083160313B8
:102A1800AC0164302C02031C122D132D152D2B2D07
:102A28002B2D0030A700A8002C080A168A11DE23D7
:102A38000A168A11013083160313AB002B08AC0762
:102A480064302C02031C292D2A2D152D2B2D08004E
:102A5800F800F401F5017008F200F3017208F600BD
:102A68007308F700372D781C3A2D3B2D412D760839
:102A7800F4070318F50A7708F50701300310F60D77
:102A8800F70DFF3E031D422D0310F80C7808031DB7
:102A98004E2D4F2D372D502D7508F1007408F0007C
:102AA800552D08002330F0000030F1000A168A1175
:102AB80091230A168A11831203131F140130F000A0
:102AC8000030F1000A168A1191230A168A1183121E
:102AD80003139F146F2D9F18722D732D6F2D742D56
:102AE8001E08F700831603131E08F6007708F50082
:102AF8007608F4007F2D080083160313A401A501AE
:102B0800852D201C882D892D8F2D2208A4070318B8
:102B1800A50A2308A50701300310A20DA30DFF3E47
:102B2800031D902D01300310A10CA00CFF3E031DC6
:102B3800972D20082104031DA22DA32D852DA42D3A
:102B48002508A1002408A000A92D08008316031356
:102B5800A800A401A5012008A200A3012208A6003C
:102B68002308A700B72D281CBA2DBB2DC12D260878
:102B7800A4070318A50A2708A50701300310A60D06
:102B8800A70DFF3E031DC22D0310A80C2808031D26
:102B9800CE2DCF2DB72DD02D2508A1002408A000BB
:102BA800D52D0800233083160313A0000030A100A0
:102BB8000A168A1188240A168A11831203131F140D
:102BC800013083160313A0000030A1000A168A11F1
:102BD80088240A168A11831203139F14F32D9F1851
:102BE800F62DF72DF32DF82D1E0883160313A700D5
:102BF8001E08A6002708A5002608A400032E080022
:102C0800F500062E831603178C180B2E0C2E062E95
:102C18000D2E7508831203178D0074088C00831617
:102C280003178C130C1500308B1B0130F6008B1327
:102C380055308D00AA308D008C147618242E262E3F
:102C48008B17272E8B130130F0000030F1000A1685
:102C58008A1191230A168A11831603170C1108008A
:102C68000C1C372E382E5E2E0C108F018E01013071
:102C7800CC070318CD0A0030CD074D08803AFF0075
:102C88008B307F02031D4A2E2D304C02031C4D2E23
:102C98004E2E5E2E0A168A112D270A168A110A163A
:102CA8008A1115240A168A1183120313CC01CD0147
:102CB8005E2E5E2E831203134B08FF004A088A001B
:102CC800490E8300FE0E7E0E090083160313A5002D
:102CD8006D2E831603178C18722E732E6D2E742E7C
:102CE800831603132508831203178D008316031315
:102CF8002408831203178C00831603178C130C15F2
:102D080000308B1B013083160313A6008B1355303C
:102D1800831603178D00AA308D008C1483160313B5
:102D28002618972E992E8B179A2E8B1301308316FF
:102D38000313A0000030A1000A168A1188240A167D
:102D48008A11831603170C11080083120313081342
:102D5800881308120808F039033888008816C0302C
:102D68008316031388000A30A0000030A1000A1659
:102D78008A1188240A168A1120300A128A15AC2270
:102D88000A168A1128300A128A15AC220A168A11E4
:102D98000C300A128A15AC220A168A1101300A125E
:102DA8008A15AC220A168A1102300A128A15AC2238
:102DB8000A168A110A3083160313A0000030A100F6
:102DC8000A168A1188240A168A1108008316031322
:102DD800AF002B08AE002E08A7002F080A168A118C
:102DE800C4230A168A11152F831603132D0883127C
:102DF8000313FF00831603132C08840083120313A4
:102E08000A128A1500200A168A110A128A15B52094
:102E18000A168A11013083160313AC070318AD0A8A
:102E2800152F831603132D0883120313FF0083162F
:102E380003132C088400831203130A128A15002036
:102E48000A168A11003A031D2A2F2B2FF82E2C2F31
:102E580008000A168A1156250A168A11750883125F
:102E68000313C6007408C5004508F0004608F100C1
:102E7800F201F30100300A128A1505250A168A1193
:102E8800730883120313A7007208A6007108A5002F
:102E98007008A4003E30A300FA30A2003D30A10023
:102EA8007130A0000A128A119E230A168A11831211
:102EB80003132308BD002208BC002108BB0020081A
:102EC800BA000A128A152F230A168A1183120313CD
:102ED8003B08C8003A08C7004708722F08000A16BE
:102EE8008A11D6250A168A11831603132508D400D9
:102EF8002408D3005308A0005408A100A201A3018C
:102F080000300A128A15C7250A168A118316031378
:102F18002308B5002208B4002108B3002008B20035
:102F28003E30B100FA30B0003D30AF007130AE0035
:102F38000A128A1129200A168A11831603133108E6
:102F4800CB003008CA002F08C9002E08C8000A1292
:102F58008A15CB230A168A11831603134908D6004B
:102F68004808D5005508B82F08000A168A11732793
:102F78000A168A1183160313D700D8015708DC00F4
:102F88005808DD006308D9006408DA006508DB002A
:102F98000A30A0000030A1005D08A3005C08A20070
:102FA8000A128A1539220A168A1183160313200871
:102FB800303ED7005708D9000A30A0000030A100E1
:102FC8005D08A3005C08A2000A128A15FF200A16F1
:102FD8008A11831603132008303ED7005708DA00F9
:102FE800AB01D930AC000030AD000C300A168A11A4
:082FF800EA260A168A110800FE
:02400E00C2E00E
:00000001FF
