:020000040000FA
:060000000A128A11122809
:10000800FE00030E83120313D4000408D5000A0867
:10001800D6007F08D7000A128A1556290A128A11B3
:1000280015288317B030FD001030FE00CF30FF00D8
:10003800903084000A168A155B270A128A118313E6
:10004800EB30FD001F30FE001630FF00E230840068
:100058000A168A155B270A128A110A128A11FA27C8
:100068000A128A11E00083160313EB01EC01ED017B
:10007800EE01EF0183120313D801D901DA01DB0184
:10008800DC01DD01DE01DF0183010A128A154D2D35
:100098008316031331088039B6003608BB003108CF
:1000A800B6003607B7003708C100B01F5C285D28C6
:1000B8005F2841145F2841080319632864287428BD
:1000C800410A031D6828692872280030B1000030F1
:1000D800B0000030AF000030AE007228B0177D28A5
:1000E8000030B1000030B0000030AF000030AE008A
:1000F8007D2835088039B6003608BB063508B600B5
:100108003607B7003708C000B41F8B288C288E2804
:1001180040148E284008031992289328A328400ADF
:10012800031D97289828A1280030B5000030B40096
:100138000030B3000030B200A128B417AC2800305A
:10014800B5000030B4000030B3000030B200AC2875
:1001580040080319B028B128B7284108031DB5285D
:10016800B628C128B7280030B1000030B0000030F0
:10017800AF000030AE00C02BC02B2E08B6003608EA
:10018800A00034080A168A1148220A128A11831616
:1001980003132108C7002008C6004608B600B701A7
:1001A800B801B9013908BF003808BE003708BD00DA
:1001B8003608BC004708B600B701B801B9013908CC
:1001C800C5003808C4003708C3003608C2002F0825
:1001D800B6003608A00033080A168A1148220A1207
:1001E8008A11831603132108C7002008C600460891
:1001F800B600B701B801B9013608BC0737080311C2
:100208000318013E03190929BD073808031103180B
:10021800013E03191029BE07390803110318013ECE
:1002280003191729BF074708B600B701B801B90174
:100238003608C207370803110318013E0319252998
:10024800C307380803110318013E03192C29C407F2
:10025800390803110318013E03193329C50730086B
:10026800B6003608A00032080A168A1148220A1277
:100278008A11831603132108C7002008C600460800
:10028800B600B701B801B9013608BC073708031131
:100298000318013E03195129BD0738080311031833
:1002A800013E03195829BE07390803110318013EF6
:1002B80003195F29BF074708B600B701B801B9019C
:1002C8003608C207370803110318013E03196D29C0
:1002D800C307380803110318013E03197429C4071A
:1002E800390803110318013E03197B29C507083093
:1002F800B6000310BC0DBD0DBE0DBF0DB60B7D299C
:100308002F08B6003608A00032080A168A114822BB
:100318000A128A11831603132108C7002008C60091
:100328004608B6004708B700B801B9013608BC0747
:10033800370803110318013E0319A329BD0738081C
:1003480003110318013E0319AA29BE07390803112E
:100358000318013E0319B129BF072E08B600360855
:10036800A00033080A168A1148220A128A11831635
:1003780003132108C7002008C6004608B60047082E
:10038800B700B801B9013608BC07370803110318CC
:10039800013E0319D029BD07380803110318013E8F
:1003A8000319D729BE07390803110318013E031999
:1003B800DE29BF070830B6000310BC0DBD0DBE0D09
:1003C800BF0DB60BE0292E08B6003608A00032088B
:1003D8000A168A1148220A128A1183160313210861
:1003E800C7002008C6004608B6004708B700B8018D
:1003F800B9013608BC07370803110318013E031971
:10040800062ABD07380803110318013E03190D2AEF
:10041800BE07390803110318013E0319142ABF0740
:100428002F08B6003608A00034080A168A11482298
:100438000A128A11831603132108C7002008C60070
:100448004608B6004708B700B801B9013608C20720
:10045800370803110318013E0319332AC307380864
:1004680003110318013E03193A2AC4073908031176
:100478000318013E0319412AC5073008B60036089B
:10048800A00033080A168A1148220A128A11831614
:1004980003132108C7002008C6004608B60047080D
:1004A800B700B801B9013608C207370803110318A5
:1004B800013E0319602AC307380803110318013ED7
:1004C8000319672AC407390803110318013E0319E1
:1004D8006E2AC5073008B6003608A00034080A1688
:1004E8008A1148220A128A11831603132108C700A9
:1004F8002008C6004608B6004708B700B801B90189
:1005080008300310B60DB70DB80DB90DFF3E031D29
:10051800852A3608C207370803110318013E031954
:10052800962AC307380803110318013E03199D2AA8
:10053800C407390803110318013E0319A42AC50783
:100548003C08B6003D08B7003E08B8003F08B900AF
:1005580018300310B90CB80CB70CB60CFF3E031DCD
:10056800AD2A3608C207370803110318013E0319DC
:10057800BE2AC307380803110318013E0319C52A08
:10058800C407390803110318013E0319CC2AC5070B
:100598000830B6000310BC0DBD0DBE0DBF0DB60B67
:1005A800CE2A41084007B600B701B70D3608823E8B
:1005B800C60037080318013EFF3EC700022B013072
:1005C800B6000310C20DC30DC40DC50DB60BE52A48
:1005D800BF1FEF2AF02AF22A4214F22A0130B6008D
:1005E8000310BC0DBD0DBE0DBF0DB60BF42AFF30B8
:1005F800C6070318C70AFF30C707022BC41F052BFD
:10060800062BE32A072BC001BF1F0B2B0C2B2C2B0F
:10061800FF303C05B600FF303D05B700FF303E0512
:10062800B8007F303F05B90039083804370436046C
:1006380003191F2B202B232BC001C00A2C2B421C73
:10064800262B272B2C2BC001C00A2C2B2C2B2C2B18
:1006580040080319302B312B642B0130C2070030BE
:1006680003180130C307003003180130C4070030F5
:1006780003180130C507451C422B432B642B420845
:10068800B6004308B7004408B8004508B90001306F
:10069800BA00390DB90CB80CB70CB60CBA0B4D2B07
:1006A8003908C5003808C4003708C3003608C20036
:1006B8000130C6070318C70A0030C707642B642B2C
:1006C8004708803AFF0080307F02031D6D2BFF3002
:1006D8004602031C702B712B7C2B7F30831603136F
:1006E800C5008030C4000030C3000030C200B32B06
:1006F800831603134708803AFF0080307F02031DEA
:10070800872B0130460203188A2B8B2B972B00303E
:1007180083160313C5000030C4000030C300003046
:10072800C200BB01B32B831603134608B600360874
:10073800C100FF30C205FF30C3057F30C40500305B
:10074800C505411CA82BA92BAB2BC417AB2B410803
:10075800B6000310360CB7003708C500B32B3B08AA
:10076800B6003608C5044508B1004408B00043087F
:10077800AF004208AE00C02B080083120313230801
:100788008039A8002808AD002308A8002807A90078
:100798002908B300A21FD12BD22BD42B3314D42B6E
:1007A80033080319D82BD92BE92B330A031DDD2B6A
:1007B800DE2BE72B0030A3000030A2000030A100A0
:1007C8000030A000E72BA217F22B0030A300003066
:1007D800A2000030A1000030A000F22B27088039C9
:1007E800A8002808AD062708A8002807A900290896
:1007F800B200A61F002C012C032C3214032C320843
:100808000319072C082C182C320A031D0C2C0D2C4C
:10081800162C0030A7000030A6000030A5000030DC
:10082800A400162CA617212C0030A7000030A60023
:100838000030A5000030A400212C32080319252C13
:10084800262C2C2C3308031D2A2C2B2C362C2C2C34
:100858000030A3000030A2000030A1000030A0004A
:10086800352F352F2008A8002808F00026080A167A
:100878008A11CA210A128A11710883120313B90056
:100888007008B8003808A800A901AA01AB012B0814
:10089800B1002A08B0002908AF002808AE003908BE
:1008A800A800A901AA01AB012B08B7002A08B600C5
:1008B8002908B5002808B4002108A8002808F00075
:1008C80025080A168A11CA210A128A117108831288
:1008D8000313B9007008B8003808A800A901AA01D4
:1008E800AB012808AE07290803110318013E0319B4
:1008F8007E2CAF072A0803110318013E0319852C23
:10090800B0072B0803110318013E03198C2CB107FB
:100918003908A800A901AA01AB012808B4072908C9
:1009280003110318013E03199A2CB5072A0803116D
:100938000318013E0319A12CB6072B08031103184D
:10094800013E0319A82CB7072208A8002808F000C0
:1009580024080A168A11CA210A128A1171088312F8
:100968000313B9007008B8003808A800A901AA0143
:10097800AB012808AE07290803110318013E031923
:10098800C62CAF072A0803110318013E0319CD2C02
:10099800B0072B0803110318013E0319D42CB10723
:1009A8003908A800A901AA01AB012808B407290839
:1009B80003110318013E0319E22CB5072A08031195
:1009C8000318013E0319E92CB6072B080311031875
:1009D800013E0319F02CB7070830A8000310AE0D2C
:1009E800AF0DB00DB10DA80BF22C2108A8002808F6
:1009F800F00024080A168A11CA210A128A117108FD
:100A080083120313B9007008B8003808A800390821
:100A1800A900AA01AB012808AE0729080311031889
:100A2800013E0319182DAF072A0803110318013EC8
:100A380003191F2DB0072B0803110318013E0319D2
:100A4800262DB1072008A8002808F00025080A1656
:100A58008A11CA210A128A11710883120313B90074
:100A68007008B8003808A8003908A900AA01AB0125
:100A78002808AE07290803110318013E0319452D5C
:100A8800AF072A0803110318013E03194C2DB007BC
:100A98002B0803110318013E0319532DB107083021
:100AA800A8000310AE0DAF0DB00DB10DA80B552D5C
:100AB8002008A8002808F00024080A168A11CA216C
:100AC8000A128A11710883120313B9007008B8005A
:100AD8003808A8003908A900AA01AB012808AE0700
:100AE800290803110318013E03197B2DAF072A08B3
:100AF80003110318013E0319822DB0072B080311B7
:100B08000318013E0319892DB1072108A8002808F8
:100B1800F00026080A168A11CA210A128A117108D9
:100B280083120313B9007008B8003808A800390800
:100B3800A900AA01AB012808B40729080311031862
:100B4800013E0319A82DB5072A0803110318013E11
:100B58000319AF2DB6072B0803110318013E03191B
:100B6800B62DB7072208A8002808F00025080A169D
:100B78008A11CA210A128A11710883120313B90053
:100B88007008B8003808A8003908A900AA01AB0104
:100B98002808B407290803110318013E0319D52DA5
:100BA800B5072A0803110318013E0319DC2DB607FF
:100BB8002B0803110318013E0319E32DB707220878
:100BC800A8002808F00026080A168A11CA210A1265
:100BD8008A11710883120313B9007008B800380825
:100BE800A8003908A900AA01AB0108300310A80D14
:100BF800A90DAA0DAB0DFF3E031DFA2D2808B40759
:100C0800290803110318013E03190B2EB5072A08FA
:100C180003110318013E0319122EB6072B080311FE
:100C28000318013E0319192EB7072E08A8002F082C
:100C3800A9003008AA003108AB0018300310AB0C2B
:100C4800AA0CA90CA80CFF3E031D222E2808B407E5
:100C5800290803110318013E0319332EB5072A0882
:100C680003110318013E03193A2EB6072B08031186
:100C78000318013E0319412EB7070830A8000310D6
:100C8800AE0DAF0DB00DB10DA80B432E33083207D2
:100C9800A800A901A90D2808823EB8002908031850
:100CA800013EFF3EB900772E0130A8000310B40DB5
:100CB800B50DB60DB70DA80B5A2EB11F642E652EB3
:100CC800672E3414672E0130A8000310AE0DAF0D47
:100CD800B00DB10DA80B692EFF30B8070318B90A7B
:100CE800FF30B907772EB61F7A2E7B2E582E7C2E12
:100CF800B201B11F802E812EA12EFF302E05A80033
:100D0800FF302F05A900FF303005AA007F303105DC
:100D1800AB002B082A04290428040319942E952EC5
:100D2800982EB201B20AA12E341C9B2E9C2EA12E05
:100D3800B201B20AA12EA12EA12E32080319A52EA6
:100D4800A62ED92E0130B407003003180130B5079C
:100D5800003003180130B607003003180130B70718
:100D6800371CB72EB82ED92E3408A8003508A9008C
:100D78003608AA003708AB000130AC002B0DAB0CCD
:100D8800AA0CA90CA80CAC0BC22E2B08B7002A0879
:100D9800B6002908B5002808B4000130B8070318C0
:100DA800B90A0030B907D92ED92E3908803AFF0080
:100DB80080307F02031DE22EFF303802031CE52E2F
:100DC800E62EF12E7F3083120313B7008030B60071
:100DD8000030B5000030B400282F831203133908FF
:100DE800803AFF0080307F02031DFC2E013038025C
:100DF8000318FF2E002F0C2F003083120313B700A7
:100E08000030B6000030B5000030B400AD01282F26
:100E1800831203133808A8002808B300FF30B4056C
:100E2800FF30B5057F30B6050030B705331C1D2FE0
:100E38001E2F202FB617202F3308A8000310280CC8
:100E4800A9002908B700282F2D08A8002808B704EA
:100E58003708A3003608A2003508A1003408A0000E
:100E6800352F080083160313A800280803193D2FFF
:100E78003E2F522FA31F412F422F522F2009AA0085
:100E88002109AB002209AC002309AD00AA0A031905
:100E9800AB0A0319AC0A0319AD0A5A2F2308AD008F
:100EA8002208AC002108AB002008AA00230822046D
:100EB80021042004031D612F622F6C2F0030A30032
:100EC8000030A2000030A1000030A000F92FF92F57
:100ED8009630A4002408A9007F2F0130A40024081C
:100EE800A90701300310AD0CAC0CAB0CAA0CFF3EEB
:100EF800031D762F7F2FFE302D05031D842F852F90
:100F0800712FA22FA22F0130A4002408A9070130B5
:100F1800AA07003003180130AB070030031801306E
:100F2800AC07003003180130AD0701300310AD0CD9
:100F3800AC0CAB0CAA0CFF3E031D9A2FFF302D05FD
:100F4800031DA72FA82F872FB62FB62F0130A90270
:100F58000130A4000310AA0DAB0DAC0DAD0DA40B10
:100F6800AE2FB62FAC1BB92FBA2FC12F02302902D2
:100F78000318BF2FC02FAA2FC12F2918C42FC52F80
:100F8800CD2FFF30AA05FF30AB057F30AC05FF3011
:100F9800AD050310A90C2908A400A501A601A70105
:100FA80018300310A40DA50DA60DA70DFF3E031DB7
:100FB800D52F2408AA042508AB042608AC04270862
:100FC800AD0428080319E92FEA2FF02FA31FED2FEE
:100FD800EE2FF02FAD17F02F2D08A3002C08A2003C
:100FE8002B08A1002A08A000F92F080001340800E6
:10100000FF1B0A2883137F1883170008840A03191B
:10101000FF0A080008308A000408840A82070034A6
:101020003134343437342A3432343534383430348B
:101030003334363439342334413442344334443441
:1010400055346D3469346434613464346534203427
:10105000203420343A3420342034203420342534D1
:101060000034543465346D3470342E3420344D34AF
:10107000653464342E343A3420342034203420341F
:1010800043340034413470346134673461346E3435
:1010900064346F342E342E342E340034533461349F
:1010A000763469346E3467342E342E342E34003462
:1010B00041347134753469347334693474346F3441
:1010C0007234003445344C3445344334543452344F
:1010D0004934433400346434653420344434613456
:1010E00064346F3473340034503455344C344C34DD
:0810F000203455345034003463
:101100000A168A1140240A128A1583120313C90091
:10111000CA014908CE004A08CF00831603136808A5
:1011200083120313CB00831603136908831203137E
:10113000CC00831603136A0883120313CD000A3010
:10114000F0000030F1004F08F3004E08F2000A16DC
:101150008A111C270A128A157008303E8312031365
:10116000C9004908CB000A30F0000030F1004F08F8
:10117000F3004E08F2000A168A111A250A128A157F
:101180007008303E83120313C9004908CC00FB01EC
:101190004B30FC000030FD000C300A168A110A2387
:1011A0000A128A15080083160313A5002508A40057
:1011B0002408A60083120313081283160313260EB5
:1011C0000F39A4008312031308088316031324069F
:1011D000F039240683120313880088128316031340
:1011E00025030319F428F528FC2802302506031DE1
:1011F000FA28FB280629FC280230A0000030A100B4
:101200000A168A1190200A128A15122902308316B2
:101210000313A0000030A1000A168A1190200A12C0
:101220008A1512298312031388162030831603139C
:10123000250603191C291D29552983120313081299
:101240008316031326080F39A4008312031308081A
:10125000831603132406F03924068312031388002F
:1012600088128316031325030319372938293F29C8
:1012700002302506031D3D293E2949293F29023018
:10128000A0000030A1000A168A1190200A128A15C7
:101290005129413083160313A400A40B4D29502972
:1012A0005129831203138816552908000C1C59294B
:1012B0005A29DB290C1010108F018E010130DC0738
:1012C0000318DD0A0030DD075D08803AFF008B302F
:1012D0007F02031D6D292D305C02031C70297129CA
:1012E000802983120313DC01DD010A168A114024D0
:1012F0000A128A150A168A111F200A128A158029D5
:101300000A30F0000030F100831203135D08F3008F
:101310005C08F2000A168A111A250A128A1570084A
:101320007104031D94299529A229831203136003D4
:10133000031D9B299C29A2290A128A1580200A12C2
:101340008A15A2290230831203136006031DA929FE
:10135000AA29D7295A09D0005B09D100D00A03195C
:10136000D10A5C085007D2005D0803185D0A5107D6
:10137000D3005308803AFF0080307F02031DC2294A
:1013800015305202031CC529C629D7290A168A110D
:101390007A210A128A150A128A1580200A128A15E1
:1013A00083120313E001E00ADA01DB01D72983127B
:1013B00003131014DB295708FF0056088A0055084C
:1013C0008400540E8300FE0E7E0E09008312031368
:1013D0003A08BE003B08BF003C08C0003D08C10001
:1013E0000310400D410DC2004208C4004408031D13
:1013F000FA29FB29052A0030BD000030BC0000306E
:10140000BB000030BA00812A812A3A08BE003B089E
:10141000BF003C08C0003D08C1001F300310C10CD4
:10142000C00CBF0CBE0CFF3E031D0E2A3E08C200BE
:101430004208C300BC17FF30BA05FF30BB05FF30C0
:10144000BC050030BD059630C402C41F282A292AD5
:101450004E2A4408803A973E03182F2A302A3B2A06
:101460000030BD000030BC000030BB000030BA00CE
:10147000812A812A3B2A01300310BD0CBC0CBB0C15
:10148000BA0CFF3E031D3C2A0130BE003E08C407D3
:10149000031D4B2A4C2A3B2A712A712A2030440210
:1014A000031C532A542A6A2A0030BD000030BC00B5
:1014B0000030BB000030BA00812A812A6A2A01303C
:1014C000BE000310BA0DBB0DBC0DBD0DBE0B612AD5
:1014D0000130C4024408031D6E2A6F2A5F2A712A54
:1014E000712A43080319752A762A812ABA09BB0989
:1014F000BC09BD09BA0A0319BB0A0319BC0A0319BE
:10150000BD0A0800831603134808CC004908CD0023
:101510004A08CE004B08CF0003104E0D4F0DD000EF
:101520005008D2005208031D962A972AA12A00309B
:10153000CB000030CA000030C9000030C8001D2BAD
:101540001D2B4808CC004908CD004A08CE004B08A6
:10155000CF001F300310CF0CCE0CCD0CCC0CFF3EB7
:10156000031DAA2A4C08D0005008D100CA17FF302A
:10157000C805FF30C905FF30CA050030CB059630DD
:10158000D202D21FC42AC52AEA2A5208803A973EBC
:101590000318CB2ACC2AD72A0030CB000030CA004F
:1015A0000030C9000030C8001D2B1D2BD72A013088
:1015B0000310CB0CCA0CC90CC80CFF3E031DD82A63
:1015C0000130CC004C08D207031DE72AE82AD72AAD
:1015D0000D2B0D2B20305202031CEF2AF02A062B74
:1015E0000030CB000030CA000030C9000030C80015
:1015F0001D2B1D2B062B0130CC000310C80DC90D6F
:10160000CA0DCB0DCC0BFD2A0130D2025208031DAE
:101610000A2B0B2BFB2A0D2B0D2B51080319112B19
:10162000122B1D2BC809C909CA09CB09C80A0319FD
:10163000C90A0319CA0A0319CB0A08000030831625
:101640000313B7000030B6000030B5000030B4001E
:101650000030BB000030BA000030B9000030B800E4
:10166000BF0164303F02031C362B372B392B9E2BD6
:101670009E2BBD01BE013F080A168A1110210A12D5
:101680008A15831603132208BE002108BD003F08F7
:10169000AE00AF012E08A0002F08A1003E08A30055
:1016A0003D08A2000A168A111E220A128A15831604
:1016B00003132008B0002108B100B201B3013008C3
:1016C000B807310803110318013E0319682BB90745
:1016D000320803110318013E03196F2BBA073308B0
:1016E00003110318013E0319762BBB073D08AE001A
:1016F0003E08AF00B001B1012E08B4072F08031156
:101700000318013E0319852BB50730080311031890
:10171000013E03198C2BB607310803110318013E53
:101720000319932BB7070130AE002E08BF076430B2
:101730003F02031C9C2B9D2B392B9E2B3708A300AB
:101740003608A2003508A1003408A0003B08A70015
:101750003A08A6003908A5003808A4000A168A111C
:10176000AD260A128A15831603132008AE002E0830
:10177000BC003C08BB2B0800F80078080319C12BFB
:10178000C22BD62BF31FC52BC62BD62B7009FA0004
:101790007109FB007209FC007309FD00FA0A0319C4
:1017A000FB0A0319FC0A0319FD0ADE2B7308FD006E
:1017B0007208FC007108FB007008FA0073087204DC
:1017C00071047004031DE52BE62BF02B0030F300B1
:1017D0000030F2000030F1000030F0007D2C7D2C54
:1017E0009630F4007408F900032C0130F4007408FA
:1017F000F90701300310FD0CFC0CFB0CFA0CFF3E4A
:10180000031DFA2B032CFE307D05031D082C092C2B
:10181000F52B262C262C0130F4007408F907013032
:10182000FA07003003180130FB07003003180130BD
:10183000FC07003003180130FD0701300310FD0CD8
:10184000FC0CFB0CFA0CFF3E031D1E2CFF307D052B
:10185000031D2B2C2C2C0B2C3A2C3A2C0130F9028A
:101860000130F4000310FA0DFB0DFC0DFD0DF40B1F
:10187000322C3A2CFC1B3D2C3E2C452C023079029C
:101880000318432C442C2E2C452C7918482C492C19
:10189000512CFF30FA05FF30FB057F30FC05FF308F
:1018A000FD050310F90C7908F400F501F601F701C4
:1018B00018300310F40DF50DF60DF70DFF3E031D66
:1018C000592C7408FA047508FB047608FC047708A0
:1018D000FD04780803196D2C6E2C742CF31F712CE9
:1018E000722C742CFD17742C7D08F3007C08F20018
:1018F0007B08F1007A08F0007D2C080083160313A2
:10190000A400A30107128312031307128230831667
:101910000313A100DD30A000A00B8C2CA10B8C2C9C
:10192000831203130716831603130716972C8312CB
:10193000071A9B2C9C2C972C9E2C9E2C071EA12CAE
:10194000A22C9E2CA42CA42C071AA72CA82CA42CC7
:10195000A92C83160313A50120302502031CB12CEA
:10196000B22CB52CFC2CFC2CB52C8312071EB92CE8
:10197000BA2CB52CBB2C413083160313A000A00B4E
:10198000BF2CC22C83160313240884000310831376
:10199000800D840A800D840A800D840A800D8403E2
:1019A0008403840383120313071ED72CD82CEF2C37
:1019B000831603132408840001308004840A003055
:1019C0008004840A00308004840A00308004E82CFB
:1019D0008312071AEC2CED2CE82CEF2CEF2C0130A5
:1019E00083160313A0002008A50720302502031C3E
:1019F000FA2CFB2CB52CFC2CA50108302502031C6D
:101A0000022D032D062D352D352D062D8312071E93
:101A10000A2D0B2D062D0C2D413083160313A0002B
:101A2000A00B102D132D031083160313A30D831287
:101A30000313071E1C2D1D2D282D8316031323149D
:101A4000212D8312071A252D262D212D282D282DF5
:101A5000013083160313A0002008A50708302502D3
:101A6000031C332D342D062D352D2408033E840010
:101A700083130008A000240A840000082007A100A6
:101A8000A201A20D2308210622040319482D4A2D84
:101A900001304B2D00304C2D0800831603138701B5
:101AA0008312031387010A168A1175230A128A15F5
:101AB0000A168A1547270A128A150A168A11EF2074
:101AC0000A128A150A168A150E270A128A150A168C
:101AD0008A113B200A128A15643083160313A00072
:101AE0000030A1000A168A1190200A128A150130CE
:101AF0000A128A15D3200A128A150A168A1157204B
:101B00000A128A15643083160313A0000030A10066
:101B10000A168A1190200A128A150A168A11F923C8
:101B20000A128A1501300A128A15D3200A128A1560
:101B30000A168A151F270A128A150A168A11A22167
:101B40000A128A150A168A11F9230A128A15A82D73
:101B50000A128A1588260A128A1583160313DE00D4
:101B60005E08EB000F30A0000030A1000A168A11B9
:101B700090200A128A15831603136B080319C12DCE
:101B8000C22D702E6B080A168A11D0240A128A15EB
:101B9000702E702E8B1301300A128A15D3200A1270
:101BA0008A150A168A11A2210A128A150A168A11A2
:101BB000F9230A128A1583120313E001E00A8B1736
:101BC000A82D8B1383120313E00101300A128A152A
:101BD000D3200A128A150A168A1147260A128A1574
:101BE0008B17A82D8B1301300A128A15D3200A12E5
:101BF0008A150A168A113F230A128A15EC300A1236
:101C00008A157E240A128A15003A0319082E092E15
:101C10001D2E831603136208DF006308E0006408CA
:101C2000E100AB01DF30AC000030AD000C300A1633
:101C30008A11B6230A128A151D2E0A128A11FB2751
:101C40000A128A15033083160313DE005E0883121E
:101C50000313E0008B17A82D8B130230DE005E0803
:101C600083120313E00001300A128A15D3200A12EE
:101C70008A150A168A1539270A128A150A168A1130
:101C800088240A128A150A168A11AF200A128A15A8
:101C9000831203135D08DB005C08DA008B17A82DA4
:101CA0008B130230DE005E0883120313E000013064
:101CB0000A128A15D3200A128A150A168A152B27AA
:101CC0000A128A150A168A1132210A128A158312FB
:101CD00003135D08DB005C08DA008B17A82DA82D24
:101CE000831603136B08233A0319502E093A03197C
:101CF0002C2E6B3A0319CA2D033A0319E12D013A30
:101D00000319F22DA82DA82DA82D0A128A11122828
:101D10008B1383120313861706178616061200000C
:101D20000000831203130618962E972EA62E01305C
:101D300084000A128A150A200A128A1583160313D0
:101D4000A000200883120313DE00E22E8618A92EBD
:101D5000AA2EB92E023084000A128A150A200A120D
:101D60008A1583160313A000200883120313DE00D4
:101D7000E22E0619BC2EBD2ECC2E033084000A1292
:101D80008A150A200A128A1583160313A000200858
:101D900083120313DE00E22E8619CF2ED02EE22E00
:101DA000043084000A128A150A200A128A15831642
:101DB0000313A000200883120313DE00E22EE22E9C
:101DC000E22EE22E86170617861206160000000085
:101DD000831203130618ED2EEE2EFD2E053084001F
:101DE0000A128A150A200A128A1583160313A00004
:101DF000200883120313DE00392F8618002F012FCD
:101E0000102F063084000A128A150A200A128A1539
:101E100083160313A000200883120313DE00392F5A
:101E20000619132F142F232F073084000A128A1546
:101E30000A200A128A1583160313A00020088312B1
:101E40000313DE00392F8619262F272F392F08304C
:101E500084000A128A150A200A128A1583160313AF
:101E6000A000200883120313DE00392F392F392FE9
:101E7000392F8617061386160616000000008312F7
:101E800003130618442F452F542F093084000A12DB
:101E90008A150A200A128A1583160313A000200847
:101EA00083120313DE00902F8618572F582F672FA9
:101EB0000A3084000A128A150A200A128A1583162B
:101EC0000313A000200883120313DE00902F0619CD
:101ED0006A2F6B2F7A2F0B3084000A128A150A2082
:101EE0000A128A1583160313A00020088312031315
:101EF000DE00902F86197D2F7E2F902F0C308400CE
:101F00000A128A150A200A128A1583160313A000E2
:101F1000200883120313DE00902F902F902F902F14
:101F20008613061786160616000000008312031398
:101F300006189B2F9C2FAB2F0D3084000A128A1598
:101F40000A200A128A1583160313A00020088312A0
:101F50000313DE00E72F8618AE2FAF2FBE2F0E30F3
:101F600084000A128A150A200A128A15831603139E
:101F7000A000200883120313DE00E72F0619C12FEB
:101F8000C22FD12F0F3084000A128A150A200A129C
:101F90008A1583160313A000200883120313DE00A2
:101FA000E72F8619D42FD52FE72F103084000A127F
:101FB0008A150A200A128A1583160313A000200826
:101FC00083120313DE00E72FE72FE72FE72F5E08CA
:101FD0005F060319EC2FED2FFA2F5E08831603130B
:101FE000A000200883120313DF008B175E08FF2F69
:101FF000FF2FFF2FDE018B175E08FF2FFF2F08003A
:10200600F50075080A168A15B2270A168A11F30012
:10201600F4017308F400F3017508643E0A168A1584
:10202600B2270A168A117307F1000030031801302F
:102036007407F2001E280800F70077080A168A11AE
:1020460003200A168A117208F9007108F800013097
:10205600F8070318F90A0030F9077908F400780838
:10206600F30077080A168A156A270A168A110800E5
:1020760083160313AB015330AC008030AD0004303F
:102086000A168A11B6230A168A1183160313AB01A0
:10209600AB0A6530AC008030AD0004300A168A11F8
:1020A600B6230A168A11080083160313AB014930BA
:1020B600AC008030AD0004300A168A11B6230A1629
:1020C6008A1183160313AB01AB0A5C30AC00803077
:1020D600AD0004300A168A11B6230A168A110800C2
:1020E60083160313A0007728831603170C187C2881
:1020F6007D2877288C1880288128772882288316BF
:1021060003132008831203178D00831603170C147C
:10211600831203170C088F280800A5284130831660
:102126000313A300ED30A200A20B9728A30B972858
:102136009C28013083160313A0020030031CA10360
:10214600A102A5288316031320082104031DAC2829
:10215600AD289128AE28080083160313A900290884
:102166000A168A1110210A168A11831603132208E9
:10217600A8002108A7000130A7070318A80A003005
:10218600A8072808A4002708A30029080A168A1504
:10219600E5270A168A110800543465346D34703404
:1021A6002E34203441347434753461346C343A340A
:1021B6002034203420344334543465346D34703440
:1021C6002E34203441346D3462342E343A34203483
:1021D6002034203420344334831603130514831229
:1021E60003130C13831603130C138130831203138A
:1021F6009F008030831603139F0001308316031758
:102206008800013083160313A0000030A1000A16CF
:102216008A1190200A168A11080083160313A50056
:1022260025080A168A1173200A168A1183160313C3
:10223600A300A4012308A400A3012508643E0A16EE
:102246008A1173200A168A11831603132307A10025
:102256000030031801302407A20031290800831634
:102266000313A80164302802031C3A293B293D299F
:10227600532953290030A300A40028080A168A15FA
:10228600E5270A168A11013083160313A7002708CB
:10229600A80764302802031C512952293D295329D5
:1022A6000800F1005629831603178C185B295C2950
:1022B60056295D297108831203178D0070088C005A
:1022C600831603170C1500308B1B0130F2008B139D
:1022D60055308D00AA308D008C147218732975291B
:1022E6008B1776298B13831603170C1108002630DB
:1022F6008400903083120313A2000408A300103058
:10230600A4002208840083170008A500A20A230857
:102316008400831325088000A30AA40B8429DF30D8
:10232600A2002208B400FB012630FC000030FD00AC
:1023360000300A168A110A230A168A110800B430D8
:102346008400903083160313B0000408B1001030E7
:10235600B2003008840083170008B300B00A3108C1
:102366008400831333088000B10AB20BAC29DF3036
:10237600B0003008C200AB01B430AC000030AD0094
:1023860000300A168A11B6230A168A110800F800C8
:10239600F401F5017008F200F3017208F600730803
:1023A600F700D529781CD829D929DF297608F4071A
:1023B6000318F50A7708F50701300310F60DF70D37
:1023C600FF3E031DE0290310F80C7808031DEC29D5
:1023D600ED29D529EE297508F1007408F000F329D6
:1023E60008002330F0000030F1000A168A159927FC
:1023F6000A168A11831203131F140130F0000030ED
:10240600F1000A168A1599270A168A1183120313F0
:102416009F140D2A9F18102A112A0D2A122A1E0807
:10242600F700831603131E08F6007708F5007608F2
:10243600F4001D2A080083160313A401A501232A0C
:10244600201C262A272A2D2A2208A4070318A50AB3
:102456002308A50701300310A20DA30DFF3E031D9F
:102466002E2A01300310A10CA00CFF3E031D352AB5
:1024760020082104031D402A412A232A422A25082E
:10248600A1002408A000472A080083160313A80009
:10249600A401A5012008A200A3012208A600230882
:1024A600A700552A281C582A592A5F2A2608A40755
:1024B6000318A50A2708A50701300310A60DA70DC6
:1024C600FF3E031D602A0310A80C2808031D6C2A72
:1024D6006D2A552A6E2A2508A1002408A000732A11
:1024E6000800233083160313A0000030A1000A164B
:1024F6008A1190200A168A11831203131F140130C1
:1025060083160313A0000030A1000A168A1190203A
:102516000A168A11831203139F14912A9F18942A6C
:10252600952A912A962A1E0883160313A7001E08C9
:10253600A6002708A5002608A400A12A0800F50081
:102546007508F4007408F600831203130816760E55
:102556000F39F40008087406F039740688008812EA
:102566000230F0000030F1000A168A1599270A1683
:102576008A11831203138816081676080F39F40099
:1025860008087406F0397406880088120230F000D4
:102596000030F1000A168A1599270A168A11831245
:1025A60003138816080083160313A100DA2A83167C
:1025B60003178C18DF2AE02ADA2AE12A8316031386
:1025C6002108831203178D00831603132008831234
:1025D60003178C00831603170C1500308B1B013074
:1025E60083160313A2008B135530831603178D0031
:1025F600AA308D008C14831603132218032B052B87
:102606008B17062B8B13831603170C1108008312E6
:102616000313A1007B08A0002008F70021080A1672
:102626008A1581270A168A112D2B7D08831203131A
:10263600FF007C0884000A128A1500200A168A11F7
:102646000A168A11A2220A168A110130FC070318FB
:10265600FD0A2D2B7D0883120313FF007C088400DE
:102666000A128A1500200A168A11003A031D3C2B0D
:102676003D2B182B3E2B0800B4308400A030831667
:102686000313B0000408B1001030B2003008840013
:1026960083170008B300B00A310884008313330897
:1026A6008000B10AB20B492BDF30B0003008C200FF
:1026B600AB01B430AC000030AD0000300A168A1110
:1026C600B6230A168A1183160313AB01AB0A11301F
:1026D600AC008030AD0000300A168A11B6230A1607
:1026E6008A110800831203130813881308120808B6
:1026F600F039033888008816C03083160313880023
:102706000A30A0000030A1000A168A1190200A168D
:102716008A1120300A128A15D3200A168A11283007
:102726000A128A15D3200A168A110C300A128A1543
:10273600D3200A168A1101300A128A15D3200A16E6
:102746008A1102300A128A15D3200A168A110A3013
:1027560083160313A0000030A1000A168A119020E8
:102766000A168A11080083160313AF002B08AE0061
:102776002E08A7002F080A168A15CB270A168A11D3
:10278600E12B831603132D0883120313FF00831610
:1027960003132C088400831203130A128A150020DF
:1027A6000A168A110A168A11D0240A168A110130CD
:1027B60083160313AC070318AD0AE12B8316031324
:1027C6002D0883120313FF00831603132C088400BD
:1027D600831203130A128A1500200A168A11003A78
:1027E600031DF62BF72BC42BF82B08000A168A11AB
:1027F60088240A168A1183160313D700D8015708AE
:10280600DC005808DD006808D9006908DA006A08A3
:10281600DB000A30A0000030A1005D08A3005C08C0
:10282600A2000A168A118D270A168A118316031327
:102836002008303ED7005708D9000A30A0000030E3
:10284600A1005D08A3005C08A2000A168A11E22511
:102856000A168A11831603132008303ED70057083C
:10286600DA00AB01D930AC000030AD000C300A16EE
:102876008A11B6230A168A1108008B130A168A11C2
:10288600F4210A168A11750883120313C600740808
:10289600C5004508F0004608F100F201F3010030DA
:1028A6000A128A15BC230A168A11730883120313A7
:1028B600A7007208A6007108A5007008A4003E30A3
:1028C600A300FA30A2003D30A1007130A0000A1228
:1028D6008A11C1230A168A11831203132308BD0025
:1028E6002208BC002108BB002008BA000A128A157B
:1028F600E6210A168A11831203133B08C8003A0818
:10290600C7008B174708872C08008B130A168A11F5
:1029160074220A168A11831603132508D400240884
:10292600D3005308A0005408A100A201A30100305F
:102936000A128A1136270A168A11831603132308E8
:10294600B5002208B4002108B3002008B2003E30CA
:10295600B100FA30B0003D30AF007130AE000A125F
:102966008A114C200A168A11831603133108CB00EC
:102976003008CA002F08C9002E08C8000A128A1596
:1029860082220A168A11831603134908D6004808BC
:10299600D5008B175508CF2C080083160313A50006
:1029A6002508A4002408A60083120313081683161C
:1029B6000313260E0F39A400831203130808831687
:1029C60003132406F03924068312031388008812A1
:1029D600023083160313A0000030A1000A168A11E4
:1029E60090200A168A118312031388160816831676
:1029F600031326080F39A40083120313080883164D
:102A060003132406F0392406831203138800881260
:102A1600023083160313A0000030A1000A168A11A3
:102A260090200A168A118312031388160800F601ED
:102A3600F31F1E2D1F2D272DF209F309F20A031984
:102A4600F30AF601F60A272DF11F2A2D2B2D312D1B
:102A5600F009F109F00A0319F10A312D7008710421
:102A66000319362D372D6C2DF501F50A462D01304B
:102A76000310F00DF10DFF3E031D3B2D0130F40058
:102A86007408F507462DF11F492D4A2D3A2D4C2D78
:102A96004C2D71087302031D522D70087202031C1F
:102AA600552D562D5D2D7008F2027108031CF30397
:102AB600F3025D2D01300310F10CF00CFF3E031DF7
:102AC6005E2D0130F502031D692D6A2D4C2D6C2DEE
:102AD6006C2D76080319702D712D772DF209F309E7
:102AE600F20A0319F30A772D7308F1007208F00051
:102AF6007C2D0800F6007608F4007408F5008312B1
:102B060003130812750E0F39F40008087406F0391D
:102B160074068800881276030319922D932D9A2D38
:102B260002307606031D982D992DA42D9A2D02307C
:102B3600F0000030F1000A168A1599270A168A1144
:102B4600AE2D0230F0000030F1000A168A159927E2
:102B56000A168A11AE2D83120313881620307606C4
:102B66000319B62DB72DE12D081275080F39F4009B
:102B760008087406F039740688008812760303196B
:102B8600C52DC62DCD2D02307606031DCB2DCC2DA1
:102B9600D72DCD2D0230F0000030F1000A168A152F
:102BA60099270A168A11DD2D4230F400F40BD92D2F
:102BB6000000DD2D831203138816E12D080083160D
:102BC6000313A601A31FE82DE92DF12DA209A309E0
:102BD600A20A0319A30AA601A60AF12DA11FF42D24
:102BE600F52DFB2DA009A109A00A0319A10AFB2DA9
:102BF600200821040319002E012E362EA501A50A50
:102C0600102E01300310A00DA10DFF3E031D052E51
:102C16000130A4002408A507102EA11F132E142E80
:102C2600042E162E162E21082302031D1C2E200804
:102C36002202031C1F2E202E272E2008A202210866
:102C4600031CA303A302272E01300310A10CA00C22
:102C5600FF3E031D282E0130A502031D332E342E00
:102C6600162E362E362E260803193A2E3B2E412EC8
:102C7600A209A309A20A0319A30A412E2308A10047
:102C86002208A000462E0800831603136508C30019
:102C96006608C4006708C500AB012230AC0080306E
:102CA600AD0000300A168A11B6230A168A11831659
:102CB6000313A7010E300A168A15CB270A168A11A6
:102CC600DF300A168A11D0240A168A110A128A15CA
:102CD6001E230A168A1183160313C0004008C60075
:102CE6000A30A0000030A1004608C000C10140081B
:102CF600A2004108A3000A168A118D270A168A1116
:102D0600831603132008303EC2004208C3000A306F
:102D1600A0000030A1004608C000C1014008A20082
:102D26004108A3000A168A11E2250A168A1183169B
:102D360003132008303EC2004208C400AB01C33072
:102D4600AC000030AD000C300A168A11B6230A1604
:102D56008A110800003083160313AC000030AB0064
:102D66000030AA000030A900230822042104200410
:102D76000319BE2EBF2E122FAD01AD0AD02E013083
:102D8600A8000310A00DA10DA20DA30DA80BC42E23
:102D96000130A8002808AD07D02EA31FD32ED42EAD
:102DA600C22ED62ED62E0130A8000310A90DAA0DCC
:102DB600AB0DAC0DA80BD82E23082702031DED2E54
:102DC60022082602031DED2E21082502031DED2EE5
:102DD60020082402031CF02EF12E012F2008A40245
:102DE6002108031C210FA5022208031C220FA6029C
:102DF6002308031C230FA7022914012F01300310F7
:102E0600A30CA20CA10CA00CFF3E031D022F013047
:102E1600AD02031D0F2F102FD62E122F122F2C08A6
:102E2600A3002B08A2002A08A1002908A0001B2F36
:102E36000800F601F11F202F212F292FF009F10993
:102E4600F00A0319F10AF601F60A292FF31F2C2FAF
:102E56002D2F372FF209F309F20A0319F30A01306D
:102E6600F4007408F606372FF701F80170087104AC
:102E760003193E2F3F2F7C2FF501F50A4E2F013007
:102E86000310F00DF10DFF3E031D432F0130F4003A
:102E96007408F5074E2FF11F512F522F422F542F32
:102EA600542F01300310F70DF80DFF3E031D552F6B
:102EB60071087302031D612F70087202031C642FD0
:102EC600652F6D2F7008F2027108031CF303F302DD
:102ED60077146D2F01300310F10CF00CFF3E031D2B
:102EE6006E2F0130F502031D792F7A2F542F7C2F78
:102EF6007C2F76080319802F812F872FF709F80971
:102F0600F70A0319F80A872F7808F1007708F00006
:102F16008C2F080083160313A601A11F932F942F4D
:102F26009C2FA009A109A00A0319A10AA601A60AB5
:102F36009C2FA31F9F2FA02FAA2FA209A309A20A85
:102F46000319A30A0130A4002408A606AA2FA70184
:102F5600A801200821040319B12FB22FEF2FA501D4
:102F6600A50AC12F01300310A00DA10DFF3E031DC0
:102F7600B62F0130A4002408A507C12FA11FC42F16
:102F8600C52FB52FC72FC72F01300310A70DA80DCA
:102F9600FF3E031DC82F21082302031DD42F20083E
:102FA6002202031CD72FD82FE02F2008A2022108C7
:102FB600031CA303A3022714E02F01300310A10C66
:102FC600A00CFF3E031DE12F0130A502031DEC2FCF
:102FD600ED2FC72FEF2FEF2F26080319F32FF42F0E
:102FE600FA2FA709A809A70A0319A80AFA2F280879
:0A2FF600A1002708A000FF2F08002B
:103E1C008312031394120716831603130716080054
:103E2C0030343034003430343034003430343034C6
:103E3C000034831603130C148B170B178312031304
:103E4C008F018E0131309000080083160313AB01F3
:103E5C003330AC008030AD0000300A168A11B62326
:103E6C000A168A15080083160313AB013F30AC0009
:103E7C008030AD0000300A168A11B6230A168A1556
:103E8C0008008316031381138316031789010F305F
:103E9C00831603138600831203138601DF01DE01F0
:103EAC0008007E088A007F0882000A168A155727A8
:103EBC000A168A158000840A04087D06031900344A
:103ECC00FF0A0319FE0A5B2FF6007408F50075084B
:103EDC00F00076080A168A1154210A168A157308FE
:103EEC00F5007508F0007608643E0A168A11542114
:103EFC000A168A150800FA003F307A05F800770890
:103F0C00F90005300310F90DFF3E031D882F031037
:103F1C00790DFF3A013E803878070A168A117D2503
:103F2C000A168A150800AA2F4130F300EE30F20071
:103F3C00F20B9E2FF30B9E2F00000130F00200308D
:103F4C00031CF103F102AA2F70087104031DAF2F9B
:103F5C00B02F9A2FB12F0800F000B42F831603173F
:103F6C000C18B92FBA2FB42F8C18BD2FBE2FB42F0D
:103F7C00BF2F7008831203178D00831603170C14C0
:103F8C00831203170C08CA2F080083160313AA0008
:103F9C003F302A05A8002708A90005300310A90DF9
:103FAC00FF3E031DD42F0310290DFF3A013E80382C
:103FBC0028070A128A15D3200A168A1508008316B8
:103FCC000313A6002408A5002508A00026080A163D
:103FDC008A11D6220A168A15831603132308A50004
:103FEC002508A0002608643E0A168A11D6220A1655
:043FFC008A1508001A
:02400E00C2E00E
:00000001FF
