:020000040000FA
:060000000A128A11122809
:10000800FE00030E83120313D4000408D5000A0867
:10001800D6007F08D7000A128A15492A0A128A11BF
:1000280015288317B030FD001130FE00C630FF00E0
:10003800903084000A168A1155200A128A118313F7
:10004800E830FD001030FE001030FF00DF30840083
:100058000A168A1155200A128A110A128A11FA27D9
:100068000A128A11E40083160313E80183120313AA
:10007800D801D901DA01DB01DC01DD01DE01DF0194
:10008800E001E101E201E30183010A128A15712D01
:100098008316031331088039B6003608BB003108CF
:1000A800B6003607B7003708C100B01F5C285D28C6
:1000B8005F2841145F2841080319632864287428BD
:1000C800410A031D6828692872280030B1000030F1
:1000D800B0000030AF000030AE007228B0177D28A5
:1000E8000030B1000030B0000030AF000030AE008A
:1000F8007D2835088039B6003608BB063508B600B5
:100108003607B7003708C000B41F8B288C288E2804
:1001180040148E284008031992289328A328400ADF
:10012800031D97289828A1280030B5000030B40096
:100138000030B3000030B200A128B417AC2800305A
:10014800B5000030B4000030B3000030B200AC2875
:1001580040080319B028B128B7284108031DB5285D
:10016800B628C128B7280030B1000030B0000030F0
:10017800AF000030AE00C02BC02B2E08B6003608EA
:10018800A00034080A168A113F230A128A1183161E
:1001980003132108C7002008C6004608B600B701A7
:1001A800B801B9013908BF003808BE003708BD00DA
:1001B8003608BC004708B600B701B801B9013908CC
:1001C800C5003808C4003708C3003608C2002F0825
:1001D800B6003608A00033080A168A113F230A120F
:1001E8008A11831603132108C7002008C600460891
:1001F800B600B701B801B9013608BC0737080311C2
:100208000318013E03190929BD073808031103180B
:10021800013E03191029BE07390803110318013ECE
:1002280003191729BF074708B600B701B801B90174
:100238003608C207370803110318013E0319252998
:10024800C307380803110318013E03192C29C407F2
:10025800390803110318013E03193329C50730086B
:10026800B6003608A00032080A168A113F230A127F
:100278008A11831603132108C7002008C600460800
:10028800B600B701B801B9013608BC073708031131
:100298000318013E03195129BD0738080311031833
:1002A800013E03195829BE07390803110318013EF6
:1002B80003195F29BF074708B600B701B801B9019C
:1002C8003608C207370803110318013E03196D29C0
:1002D800C307380803110318013E03197429C4071A
:1002E800390803110318013E03197B29C507083093
:1002F800B6000310BC0DBD0DBE0DBF0DB60B7D299C
:100308002F08B6003608A00032080A168A113F23C3
:100318000A128A11831603132108C7002008C60091
:100328004608B6004708B700B801B9013608BC0747
:10033800370803110318013E0319A329BD0738081C
:1003480003110318013E0319AA29BE07390803112E
:100358000318013E0319B129BF072E08B600360855
:10036800A00033080A168A113F230A128A1183163D
:1003780003132108C7002008C6004608B60047082E
:10038800B700B801B9013608BC07370803110318CC
:10039800013E0319D029BD07380803110318013E8F
:1003A8000319D729BE07390803110318013E031999
:1003B800DE29BF070830B6000310BC0DBD0DBE0D09
:1003C800BF0DB60BE0292E08B6003608A00032088B
:1003D8000A168A113F230A128A1183160313210869
:1003E800C7002008C6004608B6004708B700B8018D
:1003F800B9013608BC07370803110318013E031971
:10040800062ABD07380803110318013E03190D2AEF
:10041800BE07390803110318013E0319142ABF0740
:100428002F08B6003608A00034080A168A113F23A0
:100438000A128A11831603132108C7002008C60070
:100448004608B6004708B700B801B9013608C20720
:10045800370803110318013E0319332AC307380864
:1004680003110318013E03193A2AC4073908031176
:100478000318013E0319412AC5073008B60036089B
:10048800A00033080A168A113F230A128A1183161C
:1004980003132108C7002008C6004608B60047080D
:1004A800B700B801B9013608C207370803110318A5
:1004B800013E0319602AC307380803110318013ED7
:1004C8000319672AC407390803110318013E0319E1
:1004D8006E2AC5073008B6003608A00034080A1688
:1004E8008A113F230A128A11831603132108C700B1
:1004F8002008C6004608B6004708B700B801B90189
:1005080008300310B60DB70DB80DB90DFF3E031D29
:10051800852A3608C207370803110318013E031954
:10052800962AC307380803110318013E03199D2AA8
:10053800C407390803110318013E0319A42AC50783
:100548003C08B6003D08B7003E08B8003F08B900AF
:1005580018300310B90CB80CB70CB60CFF3E031DCD
:10056800AD2A3608C207370803110318013E0319DC
:10057800BE2AC307380803110318013E0319C52A08
:10058800C407390803110318013E0319CC2AC5070B
:100598000830B6000310BC0DBD0DBE0DBF0DB60B67
:1005A800CE2A41084007B600B701B70D3608823E8B
:1005B800C60037080318013EFF3EC700022B013072
:1005C800B6000310C20DC30DC40DC50DB60BE52A48
:1005D800BF1FEF2AF02AF22A4214F22A0130B6008D
:1005E8000310BC0DBD0DBE0DBF0DB60BF42AFF30B8
:1005F800C6070318C70AFF30C707022BC41F052BFD
:10060800062BE32A072BC001BF1F0B2B0C2B2C2B0F
:10061800FF303C05B600FF303D05B700FF303E0512
:10062800B8007F303F05B90039083804370436046C
:1006380003191F2B202B232BC001C00A2C2B421C73
:10064800262B272B2C2BC001C00A2C2B2C2B2C2B18
:1006580040080319302B312B642B0130C2070030BE
:1006680003180130C307003003180130C4070030F5
:1006780003180130C507451C422B432B642B420845
:10068800B6004308B7004408B8004508B90001306F
:10069800BA00390DB90CB80CB70CB60CBA0B4D2B07
:1006A8003908C5003808C4003708C3003608C20036
:1006B8000130C6070318C70A0030C707642B642B2C
:1006C8004708803AFF0080307F02031D6D2BFF3002
:1006D8004602031C702B712B7C2B7F30831603136F
:1006E800C5008030C4000030C3000030C200B32B06
:1006F800831603134708803AFF0080307F02031DEA
:10070800872B0130460203188A2B8B2B972B00303E
:1007180083160313C5000030C4000030C300003046
:10072800C200BB01B32B831603134608B600360874
:10073800C100FF30C205FF30C3057F30C40500305B
:10074800C505411CA82BA92BAB2BC417AB2B410803
:10075800B6000310360CB7003708C500B32B3B08AA
:10076800B6003608C5044508B1004408B00043087F
:10077800AF004208AE00C02B080083120313230801
:100788008039A8002808AD002308A8002807A90078
:100798002908B300A21FD12BD22BD42B3314D42B6E
:1007A80033080319D82BD92BE92B330A031DDD2B6A
:1007B800DE2BE72B0030A3000030A2000030A100A0
:1007C8000030A000E72BA217F22B0030A300003066
:1007D800A2000030A1000030A000F22B27088039C9
:1007E800A8002808AD062708A8002807A900290896
:1007F800B200A61F002C012C032C3214032C320843
:100808000319072C082C182C320A031D0C2C0D2C4C
:10081800162C0030A7000030A6000030A5000030DC
:10082800A400162CA617212C0030A7000030A60023
:100838000030A5000030A400212C32080319252C13
:10084800262C2C2C3308031D2A2C2B2C362C2C2C34
:100858000030A3000030A2000030A1000030A0004A
:10086800352F352F2008A8002808F00026080A167A
:100878008A11C1220A128A11710883120313B9005E
:100888007008B8003808A800A901AA01AB012B0814
:10089800B1002A08B0002908AF002808AE003908BE
:1008A800A800A901AA01AB012B08B7002A08B600C5
:1008B8002908B5002808B4002108A8002808F00075
:1008C80025080A168A11C1220A128A117108831290
:1008D8000313B9007008B8003808A800A901AA01D4
:1008E800AB012808AE07290803110318013E0319B4
:1008F8007E2CAF072A0803110318013E0319852C23
:10090800B0072B0803110318013E03198C2CB107FB
:100918003908A800A901AA01AB012808B4072908C9
:1009280003110318013E03199A2CB5072A0803116D
:100938000318013E0319A12CB6072B08031103184D
:10094800013E0319A82CB7072208A8002808F000C0
:1009580024080A168A11C1220A128A117108831200
:100968000313B9007008B8003808A800A901AA0143
:10097800AB012808AE07290803110318013E031923
:10098800C62CAF072A0803110318013E0319CD2C02
:10099800B0072B0803110318013E0319D42CB10723
:1009A8003908A800A901AA01AB012808B407290839
:1009B80003110318013E0319E22CB5072A08031195
:1009C8000318013E0319E92CB6072B080311031875
:1009D800013E0319F02CB7070830A8000310AE0D2C
:1009E800AF0DB00DB10DA80BF22C2108A8002808F6
:1009F800F00024080A168A11C1220A128A11710805
:100A080083120313B9007008B8003808A800390821
:100A1800A900AA01AB012808AE0729080311031889
:100A2800013E0319182DAF072A0803110318013EC8
:100A380003191F2DB0072B0803110318013E0319D2
:100A4800262DB1072008A8002808F00025080A1656
:100A58008A11C1220A128A11710883120313B9007C
:100A68007008B8003808A8003908A900AA01AB0125
:100A78002808AE07290803110318013E0319452D5C
:100A8800AF072A0803110318013E03194C2DB007BC
:100A98002B0803110318013E0319532DB107083021
:100AA800A8000310AE0DAF0DB00DB10DA80B552D5C
:100AB8002008A8002808F00024080A168A11C12274
:100AC8000A128A11710883120313B9007008B8005A
:100AD8003808A8003908A900AA01AB012808AE0700
:100AE800290803110318013E03197B2DAF072A08B3
:100AF80003110318013E0319822DB0072B080311B7
:100B08000318013E0319892DB1072108A8002808F8
:100B1800F00026080A168A11C1220A128A117108E1
:100B280083120313B9007008B8003808A800390800
:100B3800A900AA01AB012808B40729080311031862
:100B4800013E0319A82DB5072A0803110318013E11
:100B58000319AF2DB6072B0803110318013E03191B
:100B6800B62DB7072208A8002808F00025080A169D
:100B78008A11C1220A128A11710883120313B9005B
:100B88007008B8003808A8003908A900AA01AB0104
:100B98002808B407290803110318013E0319D52DA5
:100BA800B5072A0803110318013E0319DC2DB607FF
:100BB8002B0803110318013E0319E32DB707220878
:100BC800A8002808F00026080A168A11C1220A126D
:100BD8008A11710883120313B9007008B800380825
:100BE800A8003908A900AA01AB0108300310A80D14
:100BF800A90DAA0DAB0DFF3E031DFA2D2808B40759
:100C0800290803110318013E03190B2EB5072A08FA
:100C180003110318013E0319122EB6072B080311FE
:100C28000318013E0319192EB7072E08A8002F082C
:100C3800A9003008AA003108AB0018300310AB0C2B
:100C4800AA0CA90CA80CFF3E031D222E2808B407E5
:100C5800290803110318013E0319332EB5072A0882
:100C680003110318013E03193A2EB6072B08031186
:100C78000318013E0319412EB7070830A8000310D6
:100C8800AE0DAF0DB00DB10DA80B432E33083207D2
:100C9800A800A901A90D2808823EB8002908031850
:100CA800013EFF3EB900772E0130A8000310B40DB5
:100CB800B50DB60DB70DA80B5A2EB11F642E652EB3
:100CC800672E3414672E0130A8000310AE0DAF0D47
:100CD800B00DB10DA80B692EFF30B8070318B90A7B
:100CE800FF30B907772EB61F7A2E7B2E582E7C2E12
:100CF800B201B11F802E812EA12EFF302E05A80033
:100D0800FF302F05A900FF303005AA007F303105DC
:100D1800AB002B082A04290428040319942E952EC5
:100D2800982EB201B20AA12E341C9B2E9C2EA12E05
:100D3800B201B20AA12EA12EA12E32080319A52EA6
:100D4800A62ED92E0130B407003003180130B5079C
:100D5800003003180130B607003003180130B70718
:100D6800371CB72EB82ED92E3408A8003508A9008C
:100D78003608AA003708AB000130AC002B0DAB0CCD
:100D8800AA0CA90CA80CAC0BC22E2B08B7002A0879
:100D9800B6002908B5002808B4000130B8070318C0
:100DA800B90A0030B907D92ED92E3908803AFF0080
:100DB80080307F02031DE22EFF303802031CE52E2F
:100DC800E62EF12E7F3083120313B7008030B60071
:100DD8000030B5000030B400282F831203133908FF
:100DE800803AFF0080307F02031DFC2E013038025C
:100DF8000318FF2E002F0C2F003083120313B700A7
:100E08000030B6000030B5000030B400AD01282F26
:100E1800831203133808A8002808B300FF30B4056C
:100E2800FF30B5057F30B6050030B705331C1D2FE0
:100E38001E2F202FB617202F3308A8000310280CC8
:100E4800A9002908B700282F2D08A8002808B704EA
:100E58003708A3003608A2003508A1003408A0000E
:100E6800352F080083160313A800280803193D2FFF
:100E78003E2F522FA31F412F422F522F2009AA0085
:100E88002109AB002209AC002309AD00AA0A031905
:100E9800AB0A0319AC0A0319AD0A5A2F2308AD008F
:100EA8002208AC002108AB002008AA00230822046D
:100EB80021042004031D612F622F6C2F0030A30032
:100EC8000030A2000030A1000030A000F92FF92F57
:100ED8009630A4002408A9007F2F0130A40024081C
:100EE800A90701300310AD0CAC0CAB0CAA0CFF3EEB
:100EF800031D762F7F2FFE302D05031D842F852F90
:100F0800712FA22FA22F0130A4002408A9070130B5
:100F1800AA07003003180130AB070030031801306E
:100F2800AC07003003180130AD0701300310AD0CD9
:100F3800AC0CAB0CAA0CFF3E031D9A2FFF302D05FD
:100F4800031DA72FA82F872FB62FB62F0130A90270
:100F58000130A4000310AA0DAB0DAC0DAD0DA40B10
:100F6800AE2FB62FAC1BB92FBA2FC12F02302902D2
:100F78000318BF2FC02FAA2FC12F2918C42FC52F80
:100F8800CD2FFF30AA05FF30AB057F30AC05FF3011
:100F9800AD050310A90C2908A400A501A601A70105
:100FA80018300310A40DA50DA60DA70DFF3E031DB7
:100FB800D52F2408AA042508AB042608AC04270862
:100FC800AD0428080319E92FEA2FF02FA31FED2FEE
:100FD800EE2FF02FAD17F02F2D08A3002C08A2003C
:0E0FE8002B08A1002A08A000F92F08000134F0
:10100000FF1B0A2883137F1883170008840A03191B
:10101000FF0A080008308A000408840A82070034A6
:101020003134343437342A3432343534383430348B
:101030003334363439342334413442344334443441
:10104000543465346D3470342E3420344D3465346A
:1010500064342E343A342034203420342034433461
:10106000003455346D346934643461346434653427
:101070002034203420343A342034203420342534B1
:101080000034413470346134673461346E34643414
:101090006F342E342E342E3400345334613476348D
:1010A00069346E3467342E342E342E340034413497
:1010B0007134753469347334693474346F34723410
:1010C000003445344C344534433454345234493478
:1010D000433400346434653420344434613464343B
:1010E0006F3473340034503455344C344C34203421
:0610F000553450340034B9
:1010F800831603135F08C3006008C4006108C500B5
:10110800AB011130AC008030AD0000300A168A11F6
:10111800AD240A128A1583160313A7010E300A1686
:101128008A11C5200A128A15DF300A168A11C725C6
:101138000A128A150A128A1511240A128A158316A8
:101148000313C0004008C6000A30A0000030A10008
:101158004608C000C1014008A2004108A3000A12C5
:101168008A1553210A128A15831603132008303E64
:10117800C2004208C3000A30A0000030A10046089F
:10118800C000C1014008A2004108A3000A168A1144
:101198002C270A128A15831603132008303EC20032
:1011A8004208C400AB01C330AC000030AD000C30C5
:1011B8000A168A11AD240A128A150800F601F11FD1
:1011C800E628E728EF28F009F109F00A0319F10ADF
:1011D800F601F60AEF28F31FF228F328FD28F20992
:1011E800F309F20A0319F30A0130F4007408F60649
:1011F800FD28F701F801700871040319042905296D
:101208004229F501F50A142901300310F00DF10DFA
:10121800FF3E031D09290130F4007408F50714295D
:10122800F11F1729182908291A291A29013003102A
:10123800F70DF80DFF3E031D1B2971087302031DEE
:10124800272970087202031C2A292B2933297008C0
:10125800F2027108031CF303F302771433290130F7
:101268000310F10CF00CFF3E031D34290130F50288
:10127800031D3F2940291A294229422976080319C2
:10128800462947294D29F709F809F70A0319F80AE1
:101298004D297808F1007708F000522908008316D4
:1012A8000313A601A11F59295A296229A009A109D6
:1012B800A00A0319A10AA601A60A6229A31F652983
:1012C80066297029A209A309A20A0319A30A0130F1
:1012D800A4002408A6067029A701A8012008210453
:1012E800031977297829B529A501A50A8729013085
:1012F8000310A00DA10DFF3E031D7C290130A400A1
:101308002408A5078729A11F8A298B297B298D29CC
:101318008D2901300310A70DA80DFF3E031D8E294E
:1013280021082302031D9A2920082202031C9D2953
:101338009E29A6292008A2022108031CA303A302B0
:101348002714A62901300310A10CA00CFF3E031D91
:10135800A7290130A502031DB229B3298D29B52972
:10136800B52926080319B929BA29C029A709A8093E
:10137800A70A0319A80AC0292808A1002708A0005D
:10138800C529080083160313A5002508A40024080E
:10139800A60083120313081283160313260E0F39AF
:1013A800A400831203130808831603132406F039D4
:1013B8002406831203138800881283160313250357
:1013C8000319E729E829EF2902302506031DED292D
:1013D800EE29F929EF290230A0000030A1000A16F1
:1013E8008A1187210A128A15052A023083160313E7
:1013F800A0000030A1000A168A1187210A128A1556
:10140800052A831203138816203083160313250632
:1014180003190F2A102A482A831203130812831665
:10142800031326080F39A400831203130808831630
:1014380003132406F0392406831203138800881244
:1014480083160313250303192A2A2B2A322A02306A
:101458002506031D302A312A3C2A322A0230A000F0
:101468000030A1000A168A1187210A128A15442A17
:10147800413083160313A400A40B402A432A442AAC
:10148800831203138816482A08000C1C4C2A4D2A7C
:10149800CE2A0C1010108F018E010130E0070318BE
:1014A800E10A0030E1076108803AFF008B307F02D3
:1014B800031D602A2D306002031C632A642A732AE4
:1014C80083120313E001E1010A168A1137250A1273
:1014D8008A150A168A1116210A128A15732A0A30E1
:1014E800F0000030F100831203136108F300600874
:1014F800F2000A168A1164260A128A157008710405
:10150800031D872A882A952A831203136403031D5F
:101518008E2A8F2A952A0A168A1111260A128A15E6
:10152800952A0230831203136406031D9C2A9D2A00
:10153800CA2A5E09D0005F09D100D00A0319D10A6E
:1015480060085007D20061080318610A5107D300E8
:101558005308803AFF0080307F02031DB52A1530FA
:101568005202031CB82AB92ACA2A0A168A117122F9
:101578000A128A150A168A1111260A128A15831266
:101588000313E401E40ADE01DF01CA2A831203130C
:101598001014CE2A5708FF0056088A005508840000
:1015A800540E8300FE0E7E0E0900831203133A08C0
:1015B800BE003B08BF003C08C0003D08C100031046
:1015C800400D410DC2004208C4004408031DED2A25
:1015D800EE2AF82A0030BD000030BC000030BB0005
:1015E8000030BA00742B742B3A08BE003B08BF00C9
:1015F8003C08C0003D08C1001F300310C10CC00CDE
:10160800BF0CBE0CFF3E031D012B3E08C200420862
:10161800C300BC17FF30BA05FF30BB05FF30BC055F
:101628000030BD059630C402C41F1B2B1C2B412B58
:101638004408803A973E0318222B232B2E2B003088
:10164800BD000030BC000030BB000030BA00742B75
:10165800742B2E2B01300310BD0CBC0CBB0CBA0C28
:10166800FF3E031D2F2B0130BE003E08C407031D9B
:101678003E2B3F2B2E2B642B642B20304402031C63
:10168800462B472B5D2B0030BD000030BC000030DE
:10169800BB000030BA00742B742B5D2B0130BE00E8
:1016A8000310BA0DBB0DBC0DBD0DBE0B542B013084
:1016B800C4024408031D612B622B522B642B642B3C
:1016C80043080319682B692B742BBA09BB09BC0999
:1016D800BD09BA0A0319BB0A0319BC0A0319BD0AD2
:1016E8000800831603134808CC004908CD004A08AF
:1016F800CE004B08CF0003104E0D4F0DD000500800
:10170800D2005208031D892B8A2B942B0030CB0062
:101718000030CA000030C9000030C800102C102C5E
:101728004808CC004908CD004A08CE004B08CF0035
:101738001F300310CF0CCE0CCD0CCC0CFF3E031D7C
:101748009D2B4C08D0005008D100CA17FF30C8059F
:10175800FF30C905FF30CA050030CB059630D202EC
:10176800D21FB72BB82BDD2B5208803A973E0318AF
:10177800BE2BBF2BCA2B0030CB000030CA00003074
:10178800C9000030C800102C102CCA2B01300310DF
:10179800CB0CCA0CC90CC80CFF3E031DCB2B013067
:1017A800CC004C08D207031DDA2BDB2BCA2B002CEC
:1017B800002C20305202031CE22BE32BF92B0030C3
:1017C800CB000030CA000030C9000030C800102C1F
:1017D800102CF92B0130CC000310C80DC90DCA0D0F
:1017E800CB0DCC0BF02B0130D2025208031DFD2B80
:1017F800FE2BEE2B002C002C51080319042C052C71
:10180800102CC809C909CA09CB09C80A0319C90A89
:101818000319CA0A0319CB0A0800003083160313F8
:10182800B7000030B6000030B5000030B40000301A
:10183800BB000030BA000030B9000030B800BF016A
:1018480064303F02031C292C2A2C2C2C912C912C1F
:10185800BD01BE013F080A168A1107220A128A151D
:10186800831603132208BE002108BD003F08AE00FE
:10187800AF012E08A0002F08A1003E08A3003D08D4
:10188800A2000A168A1115230A128A158316031351
:101898002008B0002108B100B201B3013008B80730
:1018A800310803110318013E03195B2CB9073208EC
:1018B80003110318013E0319622CBA0733080311F8
:1018C8000318013E0319692CBB073D08AE003E080A
:1018D800AF00B001B1012E08B4072F080311031897
:1018E800013E0319782CB507300803110318013E8F
:1018F80003197F2CB607310803110318013E031999
:10190800862CB7070130AE002E08BF0764303F02AF
:10191800031C8F2C902C2C2C912C3708A3003608F4
:10192800A2003508A1003408A0003B08A7003A0827
:10193800A6003908A5003808A4000A168A119127BC
:101948000A128A15831603132008AE002E08BC005D
:101958003C08AE2C0800F80078080319B42CB52C04
:10196800C92CF31FB82CB92CC92C7009FA007109BD
:10197800FB007209FC007309FD00FA0A0319FB0A4F
:101988000319FC0A0319FD0AD12C7308FD0072081B
:10199800FC007108FB007008FA00730872047104F7
:1019A8007004031DD82CD92CE32C0030F300003030
:1019B800F2000030F1000030F000702D702D9630EC
:1019C800F4007408F900F62C0130F4007408F907E3
:1019D80001300310FD0CFC0CFB0CFA0CFF3E031D40
:1019E800ED2CF62CFE307D05031DFB2CFC2CE82C81
:1019F800192D192D0130F4007408F9070130FA0780
:101A0800003003180130FB07003003180130FC07D1
:101A1800003003180130FD0701300310FD0CFC0CE9
:101A2800FB0CFA0CFF3E031D112DFF307D05031D35
:101A38001E2D1F2DFE2C2D2D2D2D0130F9020130CC
:101A4800F4000310FA0DFB0DFC0DFD0DF40B252D14
:101A58002D2DFC1B302D312D382D02307902031825
:101A6800362D372D212D382D79183B2D3C2D442D21
:101A7800FF30FA05FF30FB057F30FC05FF30FD0520
:101A88000310F90C7908F400F501F601F701183094
:101A98000310F40DF50DF60DF70DFF3E031D4C2D4B
:101AA8007408FA047508FB047608FC047708FD043A
:101AB80078080319602D612D672DF31F642D652D9E
:101AC800672DFD17672D7D08F3007C08F2007B0861
:101AD800F1007A08F000702D0800831603138701BF
:101AE8008312031387010A168A116C240A128A15B5
:101AF8000A168A1141200A128A150A168A11E62145
:101B08000A128A150A168A1108200A128A150A1654
:101B18008A1132210A128A15643083160313A00031
:101B28000030A1000A168A1187210A128A1501308D
:101B38000A128A15C6210A128A150A168A114E2116
:101B48000A128A15643083160313A0000030A1001E
:101B58000A168A1187210A128A150A168A11F02490
:101B68000A128A1501300A128A15C6210A128A1524
:101B78000A168A1119200A128A150A168A11992238
:101B88000A128A150A168A11F0240A128A15CC2D0F
:101B98000A128A1588260A128A1583160313DE008C
:101BA8005E08E8000F30A0000030A1000A168A1174
:101BB80087210A128A158316031368080319E52D6D
:101BC800E62D702E68080A168A11C7250A128A158A
:101BD800702E702E8B1301300A128A15C6210A1234
:101BE8008A150A168A1199220A128A150A168A1162
:101BF800F0240A128A1583120313E401E40A8B17EE
:101C0800CC2D8B1383120313E40101300A128A15B9
:101C1800C6210A128A150A128A157C200A128A1508
:101C28008B17CC2D8B1301300A128A15C6210A1284
:101C38008A150A168A1136240A128A150330831661
:101C48000313DE005E0883120313E4008B17CC2D08
:101C58008B130230DE005E0883120313E4000130A8
:101C68000A128A15C6210A128A150A168A11332001
:101C78000A128A150A168A117F250A128A150A1667
:101C88008A11A6210A128A15831203136108DF003C
:101C98006008DE008B17CC2D8B130230DE005E0847
:101CA80083120313E40001300A128A15C6210A12AE
:101CB8008A150A168A1125200A128A150A168A1107
:101CC80029220A128A15831203136108DF006008AB
:101CD800DE008B17CC2DCC2D831603136808233A0E
:101CE8000319502E093A03192C2E6B3A0319EE2DBD
:101CF800033A0319052E013A0319162ECC2DCC2DC3
:101D0800CC2D0A128A1112288B13831203138617FB
:101D18000617861606120000000083120313061821
:101D2800962E972EA62E013084000A128A150A20B4
:101D38000A128A1583160313A000200883120313BE
:101D4800E200E22E8618A92EAA2EB92E02308400AF
:101D58000A128A150A200A128A1583160313A0008C
:101D6800200883120313E200E22E0619BC2EBD2EB2
:101D7800CC2E033084000A128A150A200A128A150A
:101D880083160313A000200883120313E200E22E37
:101D98008619CF2ED02EE22E043084000A128A151E
:101DA8000A200A128A1583160313A000200883123A
:101DB8000313E200E22EE22EE22EE22E8617061729
:101DC8008612061600000000831203130618ED2E73
:101DD800EE2EFD2E053084000A128A150A200A12FA
:101DE8008A1583160313A000200883120313E20048
:101DF800392F8618002F012F102F063084000A1261
:101E08008A150A200A128A1583160313A0002008CF
:101E180083120313E200392F0619132F142F232FCF
:101E2800073084000A128A150A200A128A158316B6
:101E38000313A000200883120313E200392F861928
:101E4800262F272F392F083084000A128A150A20D6
:101E58000A128A1583160313A0002008831203139D
:101E6800E200392F392F392F392F86170613861696
:101E7800061600000000831203130618442F452F8E
:101E8800542F093084000A128A150A200A128A156A
:101E980083160313A000200883120313E200902F77
:101EA8008618572F582F672F0A3084000A128A1570
:101EB8000A200A128A1583160313A0002008831229
:101EC8000313E200902F06196A2F6B2F7A2F0B301D
:101ED80084000A128A150A200A128A158316031327
:101EE800A000200883120313E200902F86197D2F8B
:101EF8007E2F902F0C3084000A128A150A200A12AD
:101F08008A1583160313A000200883120313E20026
:101F1800902F902F902F902F86130617861606164F
:101F2800000000008312031306189B2F9C2FAB2F71
:101F38000D3084000A128A150A200A128A1583169F
:101F48000313A000200883120313E200E72F86186A
:101F5800AE2FAF2FBE2F0E3084000A128A150A202A
:101F68000A128A1583160313A0002008831203138C
:101F7800E200E72F0619C12FC22FD12F0F3084009E
:101F88000A128A150A200A128A1583160313A0005A
:101F9800200883120313E200E72F8619D42FD52FC8
:101FA800E72F103084000A128A150A200A128A15AF
:101FB80083160313A000200883120313E200E72FFF
:101FC800E72FE72FE72F620863060319EC2FED2FA1
:101FD800FA2F620883160313A00020088312031344
:101FE800E3008B176208FF2FFF2FFF2FE2018B17EB
:081FF8006208FF2FFF2F080013
:10201000831203139412071683160313071608007E
:1020200030343034003430343034003430343034F0
:102030000034831603130C148B170B17831203132E
:102040008F018E0131309000080083160313AB011D
:102050003230AC008030AD0000300A168A11AD2459
:102060000A168A11080083160313AB013E30AC0038
:102070008030AD0000300A168A11AD240A168A118C
:1020800008008316031381138316031789010F3089
:10209000831603138600831203138601E301E20112
:1020A00008007E088A007F0882000A168A115120E3
:1020B0000A168A118000840A04087D060319003478
:1020C000FF0A0319FE0A5528F6007408F500750882
:1020D000F00076080A168A114B220A168A11730834
:1020E000F5007508F0007608643E0A168A114B2246
:1020F0000A168A110800FA003F307A05F8007708BE
:10210000F90005300310F90DFF3E031D822803106E
:10211000790DFF3A013E803878070A168A11C726E2
:102120000A168A110800A4284130F300EE30F200AC
:10213000F20B9828F30B982800000130F0020030D1
:10214000031CF103F102A42870087104031DA928DF
:10215000AA289428AB280800F000AE28831603179D
:102160000C18B328B428AE288C18B728B828AE2885
:10217000B9287008831203178D00831603170C14F7
:10218000831203170C08C428080083160313AA003F
:102190003F302A05A8002708A90005300310A90D23
:1021A000FF3E031DCE280310290DFF3A013E803863
:1021B00028070A128A15C6210A168A1108008316F2
:1021C0000313A6002408A5002508A00026080A1667
:1021D0008A11CD230A168A11831603132308A5003A
:1021E0002508A0002608643E0A168A11CD230A1687
:1021F0008A110800F50075080A168A11AC200A1623
:102200008A11F300F4017308F400F3017508643EC9
:102210000A168A11AC200A168A117307F1000030E1
:10222000031801307407F20015290800F700770839
:102230000A168A11FA200A168A117208F900710822
:10224000F8000130F8070318F90A0030F907790897
:10225000F4007808F30077080A168A1164200A1639
:102260008A11080083160313AB015230AC00803092
:10227000AD0004300A168A11AD240A168A1183169D
:102280000313AB01AB0A6430AC008030AD00043006
:102290000A168A11AD240A168A1108008316031340
:1022A000AB014830AC008030AD0004300A168A1112
:1022B000AD240A168A1183160313AB01AB0A5B30F7
:1022C000AC008030AD0004300A168A11AD240A1625
:1022D0008A11080083160313A0006E2983160317C2
:1022E0000C18732974296E298C18772978296E297E
:1022F0007929831603132008831203178D00831690
:1023000003170C14831203170C08862908009C2954
:10231000413083160313A300ED30A200A20B8E29D7
:10232000A30B8E299329013083160313A0020030DA
:10233000031CA103A1029C29831603132008210476
:10234000031DA329A4298829A5290800831603139E
:10235000A90029080A168A1107220A168A1183166B
:1023600003132208A8002108A7000130A7070318BB
:10237000A80A0030A8072808A4002708A3002908F5
:102380000A168A11DF200A168A11080054346534AF
:102390006D3470342E3420344134743475346134E7
:1023A0006C343A342034203420344334543465348B
:1023B0006D3470342E34203441346D3462342E3414
:1023C0003A34203420342034433400348316031349
:1023D0000514831203130C13831603130C1381309B
:1023E000831203139F008030831603139F00013074
:1023F000831603178800013083160313A0000030F2
:10240000A1000A168A1187210A168A11080083166C
:102410000313A50025080A168A116A210A168A11D3
:1024200083160313A300A4012308A400A301250815
:10243000643E0A168A116A210A168A11831603134A
:102440002307A1000030031801302407A200282A26
:10245000080083160313A80164302802031C312AE4
:10246000322A342A4A2A4A2A0030A300A400280823
:102470000A168A11DF200A168A1101308316031307
:10248000A7002708A80764302802031C482A492A05
:10249000342A4A2A0800F1004D2A831603178C18A3
:1024A000522A532A4D2A542A7108831203178D0089
:1024B00070088C00831603170C1500308B1B01303D
:1024C000F2008B1355308D00AA308D008C147218D9
:1024D0006A2A6C2A8B176D2A8B13831603170C112B
:1024E000080026308400903083120313A2000408F1
:1024F000A3001030A4002208840083170008A50060
:10250000A20A23088400831325088000A30AA40BD1
:102510007B2ADF30A2002208B400FB012630FC0039
:102520000030FD0000300A168A1101240A168A11B3
:102530000800B4308400903083160313B000040800
:10254000B1001030B2003008840083170008B300D7
:10255000B00A31088400831333088000B10AB20B3B
:10256000A32ADF30B0003008C200AB01B430AC00A9
:102570000030AD0000300A168A11AD240A168A1107
:102580000800F800F401F5017008F200F301720888
:10259000F6007308F700CC2A781CCF2AD02AD62A56
:1025A0007608F4070318F50A7708F50701300310D9
:1025B000F60DF70DFF3E031DD72A0310F80C78081F
:1025C000031DE32AE42ACC2AE52A7508F1007408E1
:1025D000F000EA2A08002330F0000030F1000A166B
:1025E0008A1193200A168A11831203131F140130D3
:1025F000F0000030F1000A168A1193200A168A11A1
:10260000831203139F14042B9F18072B082B042BF2
:10261000092B1E08F700831603131E08F60077081F
:10262000F5007608F400142B080083160313A401A8
:10263000A5011A2B201C1D2B1E2B242B2208A407BE
:102640000318A50A2308A50701300310A20DA30D46
:10265000FF3E031D252B01300310A10CA00CFF3EF3
:10266000031D2C2B20082104031D372B382B1A2B7C
:10267000392B2508A1002408A0003E2B0800831652
:102680000313A800A401A5012008A200A3012208A9
:10269000A6002308A7004C2B281C4F2B502B562B91
:1026A0002608A4070318A50A2708A5070130031068
:1026B000A60DA70DFF3E031D572B0310A80C2808DD
:1026C000031D632B642B4C2B652B2508A1002408CC
:1026D000A0006A2B0800233083160313A0000030EB
:1026E000A1000A168A1187210A168A118312031380
:1026F0001F14013083160313A0000030A1000A1636
:102700008A1187210A168A11831203139F14882BBA
:102710009F188B2B8C2B882B8D2B1E088316031355
:10272000A7001E08A6002708A5002608A400982BCD
:102730000800F5007508F4007408F600831203130E
:102740000816760E0F39F40008087406F03974067E
:10275000880088120230F0000030F1000A168A1159
:1027600093200A168A118312031388160816760816
:102770000F39F40008087406F039740688008812CE
:102780000230F0000030F1000A168A1193200A1678
:102790008A11831203138816080083160313A100FD
:1027A000D12B831603178C18D62BD72BD12BD82BD4
:1027B000831603132108831203178D008316031356
:1027C0002008831203178C00831603170C150030A2
:1027D0008B1B013083160313A2008B135530831615
:1027E00003178D00AA308D008C1483160313221852
:1027F000FA2BFC2B8B17FD2B8B13831603170C1155
:10280000080083120313A1007B08A0002008F70032
:1028100021080A168A117B200A168A11242C7D08A9
:1028200083120313FF007C0884000A128A1500201B
:102830000A168A110A168A1199230A168A1101307A
:10284000FC070318FD0A242C7D0883120313FF00E4
:102850007C0884000A128A1500200A168A11003AA0
:10286000031D332C342C0F2C352C0800B43084007D
:10287000A03083160313B0000408B1001030B2007A
:102880003008840083170008B300B00A31088400C0
:10289000831333088000B10AB20B402CDF30B00044
:1028A0003008C300AB01B430AC000030AD000030E4
:1028B0000A168A11AD240A168A1183160313AB0176
:1028C000AB0A2230AC008030AD0000300A168A110D
:1028D000AD240A168A110800831203130813881303
:1028E00008120808F039033888008816C0308316AB
:1028F000031388000A30A0000030A1000A168A11D4
:1029000087210A168A1120300A128A15C6210A1652
:102910008A1128300A128A15C6210A168A110C302B
:102920000A128A15C6210A168A1101300A128A155E
:10293000C6210A168A1102300A128A15C6210A1601
:102940008A110A3083160313A0000030A1000A1672
:102950008A1187210A168A11080083160313AF0013
:102960002B08AE002E08A7002F080A168A11C520D2
:102970000A168A11D82C831603132D088312031309
:10298000FF00831603132C088400831203130A121A
:102990008A1500200A168A110A168A11C7250A16F6
:1029A0008A11013083160313AC070318AD0AD82C23
:1029B000831603132D0883120313FF0083160313DA
:1029C0002C088400831203130A128A1500200A16A9
:1029D0008A11003A031DED2CEE2CBB2CEF2C0800C5
:1029E0000A168A117F250A168A1183160313D70047
:1029F000D8015708DC005808DD006508D9006608D2
:102A0000DA006708DB000A30A0000030A1005D0892
:102A1000A3005C08A2000A128A1553210A168A1123
:102A2000831603132008303ED7005708D9000A3018
:102A3000A0000030A1005D08A3005C08A2000A16F7
:102A40008A112C270A168A11831603132008303E98
:102A5000D7005708DA00AB01D930AC000030AD0028
:102A60000C300A168A11AD240A168A1108008B133D
:102A70000A168A11EB220A168A11750883120313AB
:102A8000C6007408C5004508F0004608F100F201D0
:102A9000F30100300A128A15AF240A168A1173084E
:102AA00083120313A7007208A6007108A50070081E
:102AB000A4003E30A300FA30A2003D30A1007130E6
:102AC000A0000A128A11C1230A168A118312031365
:102AD0002308BD002208BC002108BB002008BA0062
:102AE0000A128A15D9220A168A11831203133B0887
:102AF000C8003A08C7008B1747087E2D08008B13C3
:102B00000A168A116B230A168A11831603132508E5
:102B1000D4002408D3005308A0005408A100A20147
:102B2000A30100300A128A1136270A168A11831669
:102B300003132308B5002208B4002108B3002008BD
:102B4000B2003E30B100FA30B0003D30AF0071301D
:102B5000AE000A128A114C200A168A11831603133A
:102B60003108CB003008CA002F08C9002E08C80061
:102B70000A128A1575230A168A1183160313490847
:102B8000D6004808D5008B175508C62D08008316B7
:102B90000313A5002508A4002408A600831203132C
:102BA000081683160313260E0F39A400831203138D
:102BB0000808831603132406F0392406831203132E
:102BC00088008812023083160313A0000030A10091
:102BD0000A168A1187210A168A118312031388168E
:102BE00008168316031326080F39A4008312031353
:102BF0000808831603132406F039240683120313EE
:102C000088008812023083160313A0000030A10050
:102C10000A168A1187210A168A118312031388164D
:102C200008000A168A1137250A168A11831203131F
:102C3000C900CA014908CE004A08CF008316031311
:102C4000650883120313CB008316031366088312EF
:102C50000313CC0083160313670883120313CD00FC
:102C60000A30F0000030F1004F08F3004E08F20087
:102C70000A128A15E2200A168A117008303E831261
:102C80000313C9004908CB000A30F0000030F100FE
:102C90004F08F3004E08F2000A168A1164260A163D
:102CA0008A117008303E83120313C9004908CC0012
:102CB000FB014B30FC000030FD000C300A168A117D
:102CC00001240A168A110800F601F31F682E692EE6
:102CD000712EF209F309F20A0319F30AF601F60A52
:102CE000712EF11F742E752E7B2EF009F109F00A5A
:102CF0000319F10A7B2E700871040319802E812EAE
:102D0000B62EF501F50A902E01300310F00DF10DED
:102D1000FF3E031D852E0130F4007408F507902E48
:102D2000F11F932E942E842E962E962E71087302E8
:102D3000031D9C2E70087202031C9F2EA02EA72E2E
:102D40007008F2027108031CF303F302A72E01308E
:102D50000310F10CF00CFF3E031DA82E0130F5020C
:102D6000031DB32EB42E962EB62EB62E760803195A
:102D7000BA2EBB2EC12EF209F309F20A0319F30A87
:102D8000C12E7308F1007208F000C62E0800F6008C
:102D90007608F4007408F500831203130812750E08
:102DA0000F39F40008087406F03974068800881298
:102DB00076030319DC2EDD2EE42E02307606031D89
:102DC000E22EE32EEE2EE42E0230F0000030F10071
:102DD0000A168A1193200A168A11F82E0230F00082
:102DE0000030F1000A168A1193200A168A11F82E73
:102DF000831203138816203076060319002F012F43
:102E00002B2F081275080F39F40008087406F039E2
:102E1000740688008812760303190F2F102F172FBE
:102E200002307606031D152F162F212F172F023083
:102E3000F0000030F1000A168A1193200A168A1158
:102E4000272F4230F400F40B232F0000272F83128A
:102E5000031388162B2F080083160313A601A31F44
:102E6000322F332F3B2FA209A309A20A0319A30A69
:102E7000A601A60A3B2FA11F3E2F3F2F452FA009D9
:102E8000A109A00A0319A10A452F2008210403194A
:102E90004A2F4B2F802FA501A50A5A2F013003106E
:102EA000A00DA10DFF3E031D4F2F0130A4002408EB
:102EB000A5075A2FA11F5D2F5E2F4E2F602F602F69
:102EC00021082302031D662F20082202031C692FFC
:102ED0006A2F712F2008A2022108031CA303A3025A
:102EE000712F01300310A10CA00CFF3E031D722FA7
:102EF0000130A502031D7D2F7E2F602F802F802F94
:102F000026080319842F852F8B2FA209A309A20A53
:102F10000319A30A8B2F2308A1002208A000902FD9
:102F20000800003083160313AC000030AB00003003
:102F3000AA000030A9002308220421042004031958
:102F4000A22FA32FF62FAD01AD0AB42F0130A80098
:102F50000310A00DA10DA20DA30DA80BA82F0130E9
:102F6000A8002808AD07B42FA31FB72FB82FA62F8E
:102F7000BA2FBA2F0130A8000310A90DAA0DAB0D6E
:102F8000AC0DA80BBC2F23082702031DD12F22084C
:102F90002602031DD12F21082502031DD12F200851
:102FA0002402031CD42FD52FE52F2008A4022108CA
:102FB000031C210FA5022208031C220FA6022308CE
:102FC000031C230FA7022914E52F01300310A30CC3
:102FD000A20CA10CA00CFF3E031DE62F0130AD0298
:102FE000031DF32FF42FBA2FF62FF62F2C08A30072
:102FF0002B08A2002A08A1002908A000FF2F080022
:02400E00C2E00E
:00000001FF
