:020000040000FA
:060000000A128A11122809
:10000800FE00030E83120313D2000408D3000A086B
:10001800D4007F08D5000A128A150B2C0A128A11FF
:1000280015288313E530FD001130FE00BC30FF00B9
:10003800DF3084000A128A11F0270A128A11673009
:10004800FD001130FE00FA30FF00563084000A121D
:100058008A11F0270A128A1183160313E501831205
:100068000313E701E801E901EA01EB01EC0183016F
:100078000A128A11012F8316031331088039B6003A
:100088003608BB003108B6003607B7003708C1008C
:10009800B01F4F28502851284114410803195528EA
:1000A80056286528410A031D5A285B286328003012
:1000B800B1000030B0000030AF000030AE00B01723
:1000C8006D280030B1000030B0000030AF000030C3
:1000D800AE0035088039B6003608BB063508B600CC
:1000E8003607B7003708C000B41F7B287C287D2856
:1000F800401440080319812882289128400A031DCA
:10010800862887288F280030B5000030B4000030DA
:10011800B3000030B200B41799280030B5000030A1
:10012800B4000030B3000030B200400803199D2825
:100138009E28A3284108031DA228A328AC28003024
:10014800B1000030B0000030AF000030AE009F2B8F
:100158002E08B6003608A00034080A168A11A4240E
:100168000A128A11831603132108C7002008C60043
:100178004608B600B701B801B9013908BF00380808
:10018800BE003708BD003608BC004708B600B701F6
:10019800B801B9013908C5003808C4003708C300D8
:1001A8003608C2002F08B6003608A00033080A1621
:1001B8008A11A4240A128A11831603132108C7007E
:1001C8002008C6004608B600B701B801B9013608CC
:1001D800BC07370803110318013E0319F428BD07AB
:1001E800380803110318013E0319FB28BE07390814
:1001F80003110318013E03190229BF074708B60077
:10020800B701B801B9013608C20737080311031846
:10021800013E03191029C307380803110318013ECA
:1002280003191729C407390803110318013E0319D4
:100238001E29C5073008B6003608A00032080A167D
:100248008A11A4240A128A11831603132108C700ED
:100258002008C6004608B600B701B801B90136083B
:10026800BC07370803110318013E03193C29BD07D1
:10027800380803110318013E03194329BE0739083A
:1002880003110318013E03194A29BF074708B6009E
:10029800B701B801B9013608C207370803110318B6
:1002A800013E03195829C307380803110318013EF2
:1002B80003195F29C407390803110318013E0319FC
:1002C8006629C5070830B6000310BC0DBD0DBE0D6C
:1002D800BF0DB60B68292F08B6003608A0003208F3
:1002E8000A168A11A4240A128A11831603132108F4
:1002F800C7002008C6004608B6004708B700B8017E
:10030800B9013608BC07370803110318013E031961
:100318008E29BD07380803110318013E03199529D2
:10032800BE07390803110318013E03199C29BF07AA
:100338002E08B6003608A00033080A168A11A4242D
:100348000A128A11831603132108C7002008C60061
:100358004608B6004708B700B801B9013608BC0717
:10036800370803110318013E0319BB29BD073808D4
:1003780003110318013E0319C229BE0739080311E6
:100388000318013E0319C929BF070830B600031036
:10039800BC0DBD0DBE0DBF0DB60BCB292E08B6008A
:1003A8003608A00032080A168A11A4240A128A11F3
:1003B800831603132108C7002008C6004608B600A4
:1003C8004708B700B801B9013608BC073708031158
:1003D8000318013E0319F129BD0738080311031852
:1003E800013E0319F829BE07390803110318013E15
:1003F8000319FF29BF072F08B6003608A0003408E4
:100408000A168A11A4240A128A11831603132108D2
:10041800C7002008C6004608B6004708B700B8015C
:10042800B9013608C207370803110318013E03193A
:100438001E2AC307380803110318013E0319252A89
:10044800C407390803110318013E03192C2AC507EC
:100458003008B6003608A00033080A168A11A4240A
:100468000A128A11831603132108C7002008C60040
:100478004608B6004708B700B801B9013608C207F0
:10048800370803110318013E03194B2AC30738081C
:1004980003110318013E0319522AC407390803112E
:1004A8000318013E0319592AC5073008B600360853
:1004B800A00034080A168A11A4240A128A11831685
:1004C80003132108C7002008C6004608B6004708DD
:1004D800B700B801B90108300310B60DB70DB80D53
:1004E800B90DFF3E031D702A3608C20737080311ED
:1004F8000318013E0319812AC3073808031103189A
:10050800013E0319882AC407390803110318013E5C
:1005180003198F2AC5073C08B6003D08B7003E08F6
:10052800B8003F08B90018300310B90CB80CB70C64
:10053800B60CFF3E031D982A3608C2073708031178
:100548000318013E0319A92AC30738080311031821
:10055800013E0319B02AC407390803110318013EE4
:100568000319B72AC5070830B6000310BC0DBD0D26
:10057800BE0DBF0DB60BB92A41084007B600B7013A
:10058800B70D3608823EC60037080318013EFF3E05
:10059800C700EB2A0130B6000310C20DC30DC40D0D
:1005A800C50DB60BD02ABF1FDA2ADB2ADC2A421473
:1005B8000130B6000310BC0DBD0DBE0DBF0DB60B4E
:1005C800DE2AFF30C6070318C70AFF30C707C41F53
:1005D800EE2AEF2ACE2AC001BF1FF32AF42A102BD5
:1005E800FF303C05B600FF303D05B700FF303E0543
:1005F800B8007F303F05B90039083804370436049D
:100608000319072B082B0B2BC001C00A102B421C07
:100618000E2B0F2B102B082B40080319142B152B0E
:10062800462B0130C207003003180130C3070030E1
:1006380003180130C407003003180130C507451CF2
:10064800262B272B462B4208B6004308B700440840
:10065800B8004508B9000130BA00390DB90CB80C1A
:10066800B70CB60CBA0B312B3908C5003808C400D2
:100678003708C3003608C2000130C6070318C70A86
:100688000030C7074708803AFF0080307F02031D0B
:100698004F2BFF304602031C522B532B5E2B7F300F
:1006A80083160313C5008030C4000030C300003037
:1006B800C200932B831603134708803AFF0080304B
:1006C8007F02031D692B0130460203186C2B6D2B2A
:1006D800792B003083160313C5000030C4000030A6
:1006E800C3000030C200BB01932B831603134608D6
:1006F800B6003608C100FF30C205FF30C3057F30A1
:10070800C4050030C505411C8A2B8B2B8C2BC417C4
:100718004108B6000310360CB7003708C5003B087F
:10072800B6003608C5044508B1004408B0004308BF
:10073800AF004208AE000800831203132308803973
:10074800A8002808AD002308A8002807A900290840
:10075800B300A21FB02BB12BB22B331433080319EB
:10076800B62BB72BC62B330A031DBB2BBC2BC42BB4
:100778000030A3000030A2000030A1000030A0002B
:10078800A217CE2B0030A3000030A2000030A10039
:100798000030A00027088039A8002808AD062708DF
:1007A800A8002807A9002908B200A61FDC2BDD2B0A
:1007B800DE2B321432080319E22BE32BF22B320A18
:1007C800031DE72BE82BF02B0030A7000030A60014
:1007D8000030A5000030A400A617FA2B0030A700AF
:1007E8000030A6000030A5000030A400320803192C
:1007F800FE2BFF2B042C3308031D032C042C0D2C7B
:100808000030A3000030A2000030A1000030A0009A
:10081800002F2008A8002808F00026080A168A11C8
:1008280008240A128A11710883120313B900700888
:10083800B8003808A800A901AA01AB012B08B1002B
:100848002A08B0002908AF002808AE003908A80017
:10085800A901AA01AB012B08B7002A08B60029088C
:10086800B5002808B4002108A8002808F0002508C9
:100878000A168A1108240A128A11710883120313AE
:10088800B9007008B8003808A800A901AA01AB018E
:100898002808AE07290803110318013E0319552C2F
:1008A800AF072A0803110318013E03195C2CB0078F
:1008B8002B0803110318013E0319632CB1073908EB
:1008C800A800A901AA01AB012808B4072908031147
:1008D8000318013E0319712CB5072A0803110318E0
:1008E800013E0319782CB6072B0803110318013EA3
:1008F80003197F2CB7072208A8002808F00024084D
:100908000A168A1108240A128A117108831203131D
:10091800B9007008B8003808A800A901AA01AB01FD
:100928002808AE07290803110318013E03199D2C56
:10093800AF072A0803110318013E0319A42CB007B6
:100948002B0803110318013E0319AB2CB107390812
:10095800A800A901AA01AB012808B40729080311B6
:100968000318013E0319B92CB5072A080311031807
:10097800013E0319C02CB6072B0803110318013ECA
:100988000319C72CB7070830A8000310AE0DAF0D28
:10099800B00DB10DA80BC92C2108A8002808F0003B
:1009A80024080A168A1108240A128A117108831267
:1009B8000313B9007008B8003808A8003908A9005E
:1009C800AA01AB012808AE07290803110318013E44
:1009D8000319EF2CAF072A0803110318013E031966
:1009E800F62CB0072B0803110318013E0319FD2C40
:1009F800B1072008A8002808F00025080A168A115F
:100A080008240A128A11710883120313B9007008A6
:100A1800B8003808A8003908A900AA01AB012808BD
:100A2800AE07290803110318013E03191C2DAF074F
:100A38002A0803110318013E0319232DB0072B08B8
:100A480003110318013E03192A2DB1070830A80025
:100A58000310AE0DAF0DB00DB10DA80B2C2D200855
:100A6800A8002808F00024080A168A1108240A1287
:100A78008A11710883120313B9007008B800380886
:100A8800A8003908A900AA01AB012808AE0729085F
:100A980003110318013E0319522DAF072A08031149
:100AA8000318013E0319592DB0072B080311031829
:100AB800013E0319602DB1072108A8002808F0009D
:100AC80026080A168A1108240A128A117108831244
:100AD8000313B9007008B8003808A8003908A9003D
:100AE800AA01AB012808B407290803110318013E1D
:100AF80003197F2DB5072A0803110318013E0319AE
:100B0800862DB6072B0803110318013E03198D2DF6
:100B1800B7072208A8002808F00025080A168A1135
:100B280008240A128A11710883120313B900700885
:100B3800B8003808A8003908A900AA01AB0128089C
:100B4800B407290803110318013E0319AC2DB50792
:100B58002A0803110318013E0319B32DB6072B0801
:100B680003110318013E0319BA2DB7072208A8007C
:100B78002808F00026080A168A1108240A128A1181
:100B8800710883120313B9007008B8003808A80068
:100B98003908A900AA01AB0108300310A80DA90D56
:100BA800AA0DAB0DFF3E031DD12D2808B407290857
:100BB80003110318013E0319E22DB5072A08031192
:100BC8000318013E0319E92DB6072B080311031872
:100BD800013E0319F02DB7072E08A8002F08A90019
:100BE8003008AA003108AB0018300310AB0CAA0C6F
:100BF800A90CA80CFF3E031DF92D2808B4072908E5
:100C080003110318013E03190A2EB5072A08031118
:100C18000318013E0319112EB6072B0803110318F8
:100C2800013E0319182EB7070830A8000310AE0DAF
:100C3800AF0DB00DB10DA80B1A2E33083207A8005E
:100C4800A901A90D2808823EB80029080318013E09
:100C5800FF3EB9004C2E0130A8000310B40DB50DAD
:100C6800B60DB70DA80B312EB11F3B2E3C2E3D2ED5
:100C780034140130A8000310AE0DAF0DB00DB10D46
:100C8800A80B3F2EFF30B8070318B90AFF30B90781
:100C9800B61F4F2E502E2F2EB201B11F542E552E97
:100CA800712EFF302E05A800FF302F05A900FF3058
:100CB8003005AA007F303105AB002B082A0429042F
:100CC80028040319682E692E6C2EB201B20A712EFF
:100CD800341C6F2E702E712E692E32080319752E52
:100CE800762EA72E0130B407003003180130B5075F
:100CF800003003180130B607003003180130B70779
:100D0800371C872E882EA72E3408A8003508A9007E
:100D18003608AA003708AB000130AC002B0DAB0C2D
:100D2800AA0CA90CA80CAC0B922E2B08B7002A0809
:100D3800B6002908B5002808B4000130B807031820
:100D4800B90A0030B9073908803AFF0080307F02BD
:100D5800031DB02EFF303802031CB32EB42EBF2E55
:100D68007F3083120313B7008030B6000030B5001F
:100D78000030B400F42E831203133908803AFF00C0
:100D880080307F02031DCA2E013038020318CD2E91
:100D9800CE2EDA2E003083120313B7000030B600CF
:100DA8000030B5000030B400AD01F42E83120313F7
:100DB8003808A8002808B300FF30B405FF30B5058F
:100DC8007F30B6050030B705331CEB2EEC2EED2E28
:100DD800B6173308A8000310280CA9002908B70083
:100DE8002D08A8002808B7043708A3003608A20071
:100DF8003508A1003408A0000800831603138701F2
:100E08008312031387010A168A1166250A128A11AA
:100E18000A168A11EA210A128A110A168A119C23D3
:100E28000A128A110A168A1106230A128A116430D4
:100E380083160313A0000030A1000A168A113E236E
:100E48000A128A1101300A128A15DB210A128A1144
:100E58000A168A1122230A128A1164308316031390
:100E6800A0000030A1000A168A113E230A128A1136
:100E78000A168A1178260A128A1101300A128A156E
:100E8800DB210A128A110A168A11C2210A128A1152
:100E98000A168A1156240A128A110A168A11782605
:100EA8000A128A110A128A1598260A128A118316BA
:100EB8000313DE005E08E5000F30A0000030A1003B
:100EC8000A168A113E230A128A118316031365082B
:100ED80003196F2F702FD92F65080A168A11BF269C
:100EE8000A128A11D92F8B1301300A128A15DB21B5
:100EF8000A128A110A168A1156240A128A110A1627
:100F08008A1178260A128A1183120313E601E60A67
:100F18008B17562F8B1383120313E60101300A1225
:100F28008A15DB210A128A110A128A150E210A1261
:100F38008A118C2F8B130230DE005E088312031394
:100F4800E60001300A128A15DB210A128A110A16F4
:100F58008A11DC210A128A110A168A1131260A120C
:100F68008A110A168A115B230A128A118312031343
:100F78006A08E8006908E7008C2F8B130230DE004E
:100F88005E0883120313E60001300A128A15DB217A
:100F98000A128A110A168A11CE210A128A110A1611
:100FA8008A1167220A128A11BA2F83160313650859
:100FB800233A0319C12F093A03199E2F6B3A0319D3
:100FC800772F033A03198E2F562F0A128A111228E7
:100FD8007E088A007F0882000A128A11EC270A120A
:100FE8008A118000840A04087D0603190034FF0A68
:060FF8000319FE0AF02FB0
:10100000FF1B0A2883137F1883170008840A03191B
:10101000FF0A080008308A000408840A82070034A6
:101020003134343437342A3432343534383430348B
:101030003334363439342334413442344334443441
:10104000543465346D3470342E3420344D3465346A
:1010500064342E343A342034203420342034433461
:101060000034533445344C34453454344F345234C2
:101070002034443445342034543445344C344134E1
:1010800053340034413470346134673461346E3425
:1010900064346F342E342E342E3400345B344134B7
:1010A0005D3420345B3442345D3420345B3443346B
:1010B0005D34003453346134763469346E346734CB
:1010C0002E342E342E340034413471347534693466
:1010D0007334693474346F347234003445344C34AE
:1010E0004534433454345234493443340034643442
:1010F000653420344434613464346F3473340034E0
:10110000503455344C344C3420345534503400343D
:10111000233083160313A0000030A1000A168A11A1
:101120003E230A128A15831203131F1401308316FB
:101130000313A0000030A1000A168A113E230A12F0
:101140008A15831203139F149F18A728A828A42880
:101150001E0883160313A7001E08A6002708A50073
:101160002608A400080083160313A601A31FB928AC
:10117000BA28C128A209A309A20A0319A30AA60131
:10118000A60AA11FC428C528CA28A009A109A00A27
:101190000319A10A200821040319CF28D028FF2809
:1011A000A501A50ADE2801300310A00DA10DFF3E08
:1011B000031DD4280130A4002408A507A11FE1289D
:1011C000E228D32821082302031DE8282008220250
:1011D000031CEB28EC28F2282008A2022108031C9B
:1011E000A303A30201300310A10CA00CFF3E031DBA
:1011F000F3280130A502031DFE28FF28E228260857
:101200000319032904290929A209A309A20A031918
:10121000A30A2308A1002208A000080083160313D4
:101220005F08C3006008C4006108C500AB0111304D
:10123000AC008030AD0000300A168A11A7250A12D2
:101240008A1583160313A7010E300A168A1180220D
:101250000A128A15DF300A168A11BF260A128A1569
:101260000A128A1590240A128A1583160313C000E5
:101270004008C6000A30A0000030A1004608C000A7
:10128000C1014008A2004108A3000A128A15AA223F
:101290000A128A15831603132008303EC200420842
:1012A000C3000A30A0000030A1004608C000C10100
:1012B0004008A2004108A3000A128A15B3200A12AE
:1012C0008A15831603132008303EC2004208C4006A
:1012D000AB01C330AC000030AD000C300A168A11EF
:1012E000A7250A128A150800F601F11F7829792925
:1012F0008029F009F109F00A0319F10AF601F60A4A
:10130000F31F832984298D29F209F309F20A0319AD
:10131000F30A0130F4007408F606F701F8017008CA
:101320007104031994299529CC29F501F50AA329FB
:1013300001300310F00DF10DFF3E031D992901301E
:10134000F4007408F507F11FA629A7299829013090
:101350000310F70DF80DFF3E031DA8297108730255
:10136000031DB42970087202031CB729B829BF29CC
:101370007008F2027108031CF303F30277140130C2
:101380000310F10CF00CFF3E031DC0290130F502E3
:10139000031DCB29CC29A72976080319D029D129E7
:1013A000D629F709F809F70A0319F80A7808F100AD
:1013B0007708F000080083160313A5002508A40091
:1013C0002408A60083120313081283160313260EA3
:1013D0000F39A4008312031308088316031324068D
:1013E000F039240683120313880088120230831612
:1013F0000313A0000030A1000A168A113E230A122E
:101400008A158312031388162030831603132506CA
:1014100003190B2A0C2A412A83120313081283167C
:10142000031326080F39A400831203130808831638
:1014300003132406F039240683120313880088124C
:101440008316031325030319262A272A2D2A02307F
:101450002506031D2C2A2D2A372A0230A000003031
:10146000A1000A168A113E230A128A153E2A41302B
:1014700083160313A400A40B3B2A3E2A83120313F2
:1014800088160800003083160313AC000030AB0050
:101490000030AA000030A9002308220421042004FF
:1014A0000319532A542AA12AAD01AD0A642A013036
:1014B000A8000310A00DA10DA20DA30DA80B592A81
:1014C0000130A8002808AD07A31F672A682A572AF9
:1014D0000130A8000310A90DAA0DAB0DAC0DA80B8F
:1014E0006A2A23082702031D7F2A22082602031DD9
:1014F0007F2A21082502031D7F2A20082402031CBD
:10150000822A832A922A2008A4022108031C210F80
:10151000A5022208031C220FA6022308031C230F86
:10152000A702291401300310A30CA20CA10CA00CDB
:10153000FF3E031D932A0130AD02031DA02AA12AFC
:10154000682A2C08A3002B08A2002A08A100290859
:10155000A000080083160313A601A11FB02AB12A18
:10156000B82AA009A109A00A0319A10AA601A60A7E
:10157000A31FBB2ABC2AC52AA209A309A20A0319D0
:10158000A30A0130A4002408A606A701A801200888
:1015900021040319CC2ACD2A042BA501A50ADB2A94
:1015A00001300310A00DA10DFF3E031DD12A013013
:1015B000A4002408A507A11FDE2ADF2AD02A0130B3
:1015C0000310A70DA80DFF3E031DE02A21082302EA
:1015D000031DEC2A20082202031CEF2AF02AF72A16
:1015E0002008A2022108031CA303A3022714013030
:1015F0000310A10CA00CFF3E031DF82A0130A50228
:10160000031D032B042BDF2A26080319082B092BA3
:101610000E2BA709A809A70A0319A80A2808A100E0
:101620002708A00008000310831203133C0D3D0D92
:10163000BE003E08C4004408031D1F2B202B292B8D
:101640000030BD000030BC000030BB000030BA00EC
:101650008E2B3A08BE003B08BF003C08C0003D0886
:10166000C1001F300310C10CC00CBF0CBE0CFF3EEC
:10167000031D322B3E08C2004208C300BC17FF30D6
:10168000BA05FF30BB05FF30BC050030BD05963004
:10169000C402C41F4C2B4D2B672B4408803A973E45
:1016A0000318532B542B552B202B01300310BD0C4A
:1016B000BC0CBB0CBA0CFF3E031D562B0130BE0008
:1016C0003E08C407031D652B662B552B7E2B20304F
:1016D0004402031C6C2B6D2B792B202B0130BE0098
:1016E0000310BA0DBB0DBC0DBD0DBE0B702B013030
:1016F000C4024408031D7D2B7E2B6E2B4308031967
:10170000822B832B8E2BBA09BB09BC09BD09BA0AEF
:101710000319BB0A0319BC0A0319BD0A0800031008
:10172000831603134A0D4B0DCC004C08D20052080F
:10173000031D9B2B9C2BA52B0030CB000030CA0037
:101740000030C9000030C8000A2C4808CC00490805
:10175000CD004A08CE004B08CF001F300310CF0C3D
:10176000CE0CCD0CCC0CFF3E031DAE2B4C08D00094
:101770005008D100CA17FF30C805FF30C905FF3037
:10178000CA050030CB059630D202D21FC82BC92B18
:10179000E32B5208803A973E0318CF2BD02BD12B46
:1017A0009C2B01300310CB0CCA0CC90CC80CFF3E9B
:1017B000031DD22B0130CC004C08D207031DE12BB6
:1017C000E22BD12BFA2B20305202031CE82BE92B01
:1017D000F52B9C2B0130CC000310C80DC90DCA0D90
:1017E000CB0DCC0BEC2B0130D2025208031DF92B90
:1017F000FA2BEA2B51080319FE2BFF2B0A2CC809E0
:10180000C909CA09CB09C80A0319C90A0319CA0AAE
:101810000319CB0A08000C1C0E2C0F2C852C0C1065
:1018200010108F018E010130E9070318EA0A003019
:10183000EA076A08803AFF008B307F02031D222CE2
:101840002D306902031C252C262C342C8312031303
:10185000E901EA010A168A11EA250A128A150A160E
:101860008A11EA220A128A150A30F0000030F100CB
:10187000831203136A08F3006908F2000A168A113A
:10188000A7270A128A1570087104031D482C492CD9
:10189000552C831203136603031D4F2C502C552C1B
:1018A0000A168A1154270A128A150230831203136A
:1018B0006606031D5C2C5D2C822C67086902D00033
:1018C0006808031C680A6A02D1005108803AFF00C8
:1018D00080307F02031D6E2C15305002031C712CCA
:1018E000722C822C0A168A11E1230A128A150A1612
:1018F0008A1154270A128A1583120313E601E60A95
:10190000E701E8018312031310145508FF0054087F
:101910008A0053088400520E8300FE0E7E0E0900DA
:10192000003083160313B7000030B6000030B50056
:101930000030B4000030BB000030BA000030B90005
:101940000030B800BF013F080A168A117B230A1233
:101950008A15831603132208BE002108BD003F0824
:10196000AE00AF012E08A0002F08A1003E08A30082
:101970003D08A2000A168A117D240A128A158316D0
:1019800003132008B0002108B100B201B3013008F0
:10199000B807310803110318013E0319D02CB90709
:1019A000320803110318013E0319D72CBA07330874
:1019B00003110318013E0319DE2CBB073D08AE00DE
:1019C0003E08AF00B001B1012E08B4072F08031183
:1019D0000318013E0319ED2CB50730080311031855
:1019E000013E0319F42CB607310803110318013E18
:1019F0000319FB2CB7070130AE002E08BF07643077
:101A00003F02031C042D052DA32C3708A300360824
:101A1000A2003508A1003408A0003B08A7003A083E
:101A2000A6003908A5003808A4000A128A15422227
:101A30000A128A15831603132008AE002E08BC0074
:101A40003C080800F80078080319272D282D3C2DA4
:101A5000F31F2B2D2C2D3C2D7009FA007109FB0072
:101A60007209FC007309FD00FA0A0319FB0A031945
:101A7000FC0A0319FD0A442D7308FD007208FC00DE
:101A80007108FB007008FA00730872047104700496
:101A9000031D4B2D4C2D552D0030F3000030F2006E
:101AA0000030F1000030F000DB2D9630F4007408B7
:101AB000F900672D0130F4007408F90701300310B4
:101AC000FD0CFC0CFB0CFA0CFF3E031D5F2DFE30E1
:101AD0007D05031D6C2D6D2D5A2D892D0130F400CF
:101AE0007408F9070130FA07003003180130FB07CA
:101AF000003003180130FC07003003180130FD07E7
:101B000001300310FD0CFC0CFB0CFA0CFF3E031D16
:101B1000812DFF307D05031D8E2D8F2D6E2D9B2D6C
:101B20000130F9020130F4000310FA0DFB0DFC0D39
:101B3000FD0DF40B942DFC1B9E2D9F2DA52D023029
:101B400079020318A42DA52D902D7918A82DA92D63
:101B5000B12DFF30FA05FF30FB057F30FC05FF306B
:101B6000FD050310F90C7908F400F501F601F70101
:101B700018300310F40DF50DF60DF70DFF3E031DA3
:101B8000B92D7408FA047508FB047608FC0477087C
:101B9000FD0478080319CD2DCE2DD32DF31FD12DA3
:101BA000D22DD32DFD177D08F3007C08F2007B08B1
:101BB000F1007A08F000080083160313A800280833
:101BC0000319E32DE42DF82DA31FE72DE82DF82DA3
:101BD0002009AA002109AB002209AC002309AD00AD
:101BE000AA0A0319AB0A0319AC0A0319AD0A002E9D
:101BF0002308AD002208AC002108AB002008AA0091
:101C00002308220421042004031D072E082E112E70
:101C10000030A3000030A2000030A1000030A0007E
:101C2000972E9630A4002408A900232E0130A4008A
:101C30002408A90701300310AD0CAC0CAB0CAA0CA6
:101C4000FF3E031D1B2EFE302D05031D282E292EC1
:101C5000162E452E0130A4002408A9070130AA073A
:101C6000003003180130AB07003003180130AC0717
:101C7000003003180130AD0701300310AD0CAC0C7F
:101C8000AB0CAA0CFF3E031D3D2EFF302D05031D9E
:101C90004A2E4B2E2A2E572E0130A9020130A400C5
:101CA0000310AA0DAB0DAC0DAD0DA40B502EAC1B4B
:101CB0005A2E5B2E612E023029020318602E612EEF
:101CC0004C2E2918642E652E6D2EFF30AA05FF308C
:101CD000AB057F30AC05FF30AD050310A90C29081A
:101CE000A400A501A601A70118300310A40DA50D9D
:101CF000A60DA70DFF3E031D752E2408AA04250876
:101D0000AB042608AC042708AD0428080319892E63
:101D10008A2E8F2EA31F8D2E8E2E8F2EAD172D085F
:101D2000A3002C08A2002B08A1002A08A00008008C
:101D30008B138312031386170617861606120000EC
:101D40000000831203130618A62EA72EB62E01300C
:101D500084000A128A150A200A128A1583160313B0
:101D6000A000200883120313EB00EF2E8618B92E73
:101D7000BA2EC92E023084000A128A150A200A12CD
:101D80008A1583160313A000200883120313EB00A7
:101D9000EF2E0619CC2ECD2EDC2E033084000A1235
:101DA0008A150A200A128A1583160313A000200838
:101DB00083120313EB00EF2E8619DF2EE02EEF2E99
:101DC000043084000A128A150A200A128A15831622
:101DD0000313A000200883120313EB00EF2E8617D5
:101DE0000617861206160000000083120313061859
:101DF000FA2EFB2E0A2F053084000A128A150A20BB
:101E00000A128A1583160313A000200883120313F5
:101E1000EB00432F86180D2F0E2F1D2F0630840048
:101E20000A128A150A200A128A1583160313A000C3
:101E3000200883120313EB00432F0619202F212FB4
:101E4000302F073084000A128A150A200A128A15D8
:101E500083160313A000200883120313EB00432F03
:101E60008619332F342F432F083084000A128A1525
:101E70000A200A128A1583160313A0002008831271
:101E80000313EB00432F8617061386160616000071
:101E900000008312031306184E2F4F2F5E2F0930B8
:101EA00084000A128A150A200A128A15831603135F
:101EB000A000200883120313EB00972F8618612FD0
:101EC000622F712F0A3084000A128A150A200A1222
:101ED0008A1583160313A000200883120313EB0056
:101EE000972F0619742F752F842F0B3084000A1238
:101EF0008A150A200A128A1583160313A0002008E7
:101F000083120313EB00972F8619872F882F972FA3
:101F10000C3084000A128A150A200A128A158316C8
:101F20000313A000200883120313EB00972F8613DE
:101F30000617861606160000000083120313061803
:101F4000A22FA32FB22F0D3084000A128A150A2067
:101F50000A128A1583160313A000200883120313A4
:101F6000EB00EB2F8618B52FB62FC52F0E3084004F
:101F70000A128A150A200A128A1583160313A00072
:101F8000200883120313EB00EB2F0619C82FC92F6B
:101F9000D82F0F3084000A128A150A200A128A15D7
:101FA00083160313A000200883120313EB00EB2F0A
:101FB0008619DB2FDC2FEB2F103084000A128A15D4
:101FC0000A200A128A1583160313A0002008831220
:101FD0000313EB00EB2F6B086C060319F02FF12FA6
:101FE000FC2F6B0883160313A00020088312031331
:101FF000EC008B176B08FF2FEB018B176B080800A9
:1023780030343034003430343034003483160313AE
:102388000C148B170B17831203138F018E01313036
:102398009000080083160313AB013330AC00803083
:1023A800AD0000300A168A11A7250A168A110800FE
:1023B80083160313AB014B30AC008030AD00003006
:1023C8000A168A11A7250A168A110800831603130C
:1023D80081138316031789010F30831603138600B0
:1023E800831203138601EC01EB01080054346534B1
:1023F8006D3470342E34203441347434753461347F
:102408006C343A3420342034203443340134F0001E
:10241800831603170C18112A122A0C2A8C18152A4D
:10242800162A0C2A7008831203178D0083160317C7
:102438000C14831203170C080800312A4130F300EA
:10244800EE30F200F20B262AF30B262A00000130A8
:10245800F0020030031CF103F10270087104031D3F
:10246800362A372A222A0800F6007408F50075086B
:10247800F00076080A168A11BD230A168A11730815
:10248800F5007508F0007608643E0A168A11BD2327
:102498000A168A110800FA003F307A05F800770812
:1024A800F90005300310F90DFF3E031D562A0310ED
:1024B800790DFF3A013E803878070A168A110927F4
:1024C8000A168A11080083160313A8010030A30016
:1024D800A40028080A168A11CF220A168A11013088
:1024E80083160313A7002708A80764302802031CD3
:1024F8007E2A7F2A6A2A080083160313AA003F301F
:102508002A05A8002708A90005300310A90DFF3ED9
:10251800031D892A0310290DFF3A013E8038280738
:102528000A128A15DB210A168A110800831603137A
:10253800A000831603170C18A22AA32A9D2A8C1818
:10254800A62AA72A9D2A8316031320088312031795
:102558008D00831603170C14831203170C08080048
:10256800F50075080A168A110B220A168A11F3005B
:10257800F4017308F400F3017508643E0A168A1121
:102588000B220A168A117307F10000300318013074
:102598007407F200080083160313A6002408A50098
:1025A8002508A00026080A168A11CD240A168A11C1
:1025B800831603132308A5002508A0002608643EF7
:1025C8000A168A11CD240A168A110800F70077081E
:1025D8000A168A11B4220A168A117208F9007108BB
:1025E800F8000130F8070318F90A0030F9077908EC
:1025F800F4007808F30077080A168A1138220A16B8
:102608008A11080083160313AB015F30AC008030D9
:10261800AD0004300A168A11A7250A168A118316F6
:102628000313AB01AB0A7130AC008030AD0004304D
:102638000A168A11A7250A168A1108008316031399
:10264800AB015530AC008030AD0004300A168A1159
:10265800A7250A168A1183160313AB01AB0A683043
:10266800AC008030AD0004300A168A11A7250A167E
:102678008A110800522B413083160313A300ED3052
:10268800A200A20B452BA30B452B4A2B0130831626
:102698000313A0020030031CA103A1028316031335
:1026A80020082104031D592B5A2B3F2B08008316A1
:1026B8000313A90029080A168A117B230A168A110E
:1026C800831603132208A8002108A7000130A707D2
:1026D8000318A80A0030A8072808A4002708A300A0
:1026E80029080A168A11CF220A168A1108008316A9
:1026F8000313A50025080A168A119A220A168A11B8
:1027080083160313A300A4012308A400A30125082A
:10271800643E0A168A119A220A168A11831603132E
:102728002307A1000030031801302407A200080085
:10273800831603130514831203130C138316031350
:102748000C138130831203139F0080308316031308
:102758009F00013083160317880001308316031386
:10276800A0000030A1000A168A113E230A168A1119
:102778000800F100831603178C18C32BC42BBE2B3B
:102788007108831203178D0070088C0083160317D5
:102798000C1500308B1B0130F2008B1355308D0067
:1027A800AA308D008C147218DA2BDC2B8B17DD2BDA
:1027B8008B13831603170C1108002630840056303B
:1027C80083120313A2000408A3001030A4002208F7
:1027D800840083130008A500A20A230884002508A2
:1027E8008000A30AA40BEB2BDF30A2002208B40060
:1027F800FB012630FC000030FD0000300A168A116B
:10280800FF240A168A110800F800F401F50170087F
:10281800F200F3017208F6007308F700781C152C13
:10282800162C1C2C7608F4070318F50A7708F50708
:1028380001300310F60DF70DFF3E031D1D2C03108C
:10284800F80C7808031D292C2A2C122C7508F10085
:102858007408F00008002330F0000030F1000A1678
:102868008A1121220A168A11831203131F140130B8
:10287800F0000030F1000A168A1121220A168A1186
:10288800831203139F149F184A2C4B2C472C1E08A5
:10289800F700831603131E08F6007708F50076087C
:1028A800F4000800B4308400563083160313B000D7
:1028B8000408B1001030B200300884008313000807
:1028C800B300B00A3108840033088000B10AB20BA3
:1028D800602CDF30B0003008C200AB01B430AC006F
:1028E8000030AD0000300A168A11A7250A168A1191
:1028F800080083160313A401A501201C842C852C31
:102908008B2C2208A4070318A50A2308A507013061
:102918000310A20DA30DFF3E031D8C2C01300310E4
:10292800A10CA00CFF3E031D932C20082104031DBD
:102938009E2C9F2C812C2508A1002408A0000800AB
:1029480083160313A800A401A5012008A200A3016F
:102958002208A6002308A700281CB32CB42CBA2CE4
:102968002608A4070318A50A2708A507013003109D
:10297800A60DA70DFF3E031DBB2C0310A80C2808AD
:10298800031DC72CC82CB02C2508A1002408A000C2
:10299800080083160313A100831603178C18D52C7F
:1029A800D62CD02C831603132108831203178D000D
:1029B800831603132008831203178C00831603174A
:1029C8000C1500308B1B013083160313A2008B13E8
:1029D8005530831603178D00AA308D008C1483168A
:1029E80003132218F82CFA2C8B17FB2C8B13831645
:1029F80003170C11080083120313A1007B08A00021
:102A08002008F70021080A168A114F220A168A118F
:102A1800212D7D08FF007C0884000A128A150020F9
:102A28000A168A110A168A1132250A168A110130E5
:102A3800FC070318FD0A0030FD077D088312031305
:102A4800FF007C0884000A128A1500200A168A11E1
:102A5800003A031D302D312D0D2D0800F5007508A5
:102A6800F4007408F600831203130816760E0F3963
:102A7800F40008087406F0397406880088120230D9
:102A8800F0000030F1000A168A1121220A168A1174
:102A9800831203138816081676080F39F4000808FD
:102AA8007406F0397406880088120230F00000308D
:102AB800F1000A168A1121220A168A1183120313B9
:102AC80088160800831203130813881308120808CD
:102AD800F039033888008816C0308316031388003D
:102AE8000A30A0000030A1000A168A113E230A16F7
:102AF8008A1120300A128A15DB210A168A11283019
:102B08000A128A15DB210A168A110C300A128A1554
:102B1800DB210A168A1101300A128A15DB210A16EE
:102B28008A1102300A128A15DB210A168A110A3024
:102B380083160313A0000030A1000A168A113E2351
:102B48000A168A11080083160313AF002B08AE007B
:102B58002E08A7002F080A168A1180220A168A1141
:102B6800D32D831603132D0883120313FF00831636
:102B780003132C088400831203130A128A150020F9
:102B88000A168A110A168A11BF260A168A110130F6
:102B980083160313AC070318AD0A0030AD0783167C
:102BA80003132D0883120313FF00831603132C0845
:102BB8008400831203130A128A1500200A168A1148
:102BC800003A031DE82DE92DB52D08008B130A16D0
:102BD8008A112F240A168A11750883120313C60056
:102BE8007408C5004508F0004608F100F201F30139
:102BF80000300A128A1522250A168A1173088312D0
:102C08000313A7007208A6007108A5007008A400A5
:102C18003E30A300FA30A2003D30A1007130A00080
:102C28000A128A11A0230A168A1183120313230891
:102C3800BD002208BC002108BB002008BA000A1207
:102C48008A1513230A168A11831203133B08C80036
:102C58003A08C7008B17470808008B130A128A1511
:102C680088200A168A11831603132508D40024081D
:102C7800D3005308A0005408A100A201A30100300A
:102C88000A128A15DC250A168A11831603132308EB
:102C9800B5002208B4002108B3002008B2003E3075
:102CA800B100FA30B0003D30AF007130AE000A120A
:102CB8008A113F200A168A11831603133108CB00A4
:102CC8003008CA002F08C9002E08C8000A128A1541
:102CD8008F230A168A11831603134908D600480859
:102CE800D5008B17550808000A168A1131260A16CE
:102CF8008A1183160313D700D8015708DC00580837
:102D0800DD006208D9006308DA006408DB000A30D5
:102D1800A0000030A1005D08A3005C08A2000A1210
:102D28008A15AA220A168A11831603132008303E30
:102D3800D7005708D9000A30A0000030A1005D086C
:102D4800A3005C08A2000A128A15B3200A168A1189
:102D5800831603132008303ED7005708DA00AB016A
:102D6800D930AC000030AD000C300A168A11A72506
:102D78000A168A11080083160313A5002508A40063
:102D88002408A60083120313081683160313260EBD
:102D98000F39A400831203130808831603132406AB
:102DA800F039240683120313880088120230831630
:102DB8000313A0000030A1000A168A113E230A1648
:102DC8008A1183120313881608168316031326081C
:102DD8000F39A4008312031308088316031324066B
:102DE800F0392406831203138800881202308316F0
:102DF8000313A0000030A1000A168A113E230A1608
:102E08008A118312031388160800F6007608F40066
:102E18007408F500831203130812750E0F39F400B5
:102E280008087406F0397406880088120230F00029
:102E38000030F1000A168A1121220A168A1183121B
:102E4800031388162030760603192B2F2C2F532FA7
:102E5800081275080F39F40008087406F03974066A
:102E680088008812760303193A2F3B2F412F02302E
:102E78007606031D402F412F4B2F0230F000003003
:102E8800F1000A168A1121220A168A11502F42309F
:102E9800F400F40B4D2F000083120313881608006A
:102EA8000A168A11EA250A168A1183120313C90021
:102EB800CA014908CE004A08CF00831603136208E6
:102EC80083120313CB0083160313630883120313BF
:102ED800CC0083160313640883120313CD000A3051
:102EE800F0000030F1004F08F3004E08F2000A121B
:102EF8008A1574210A168A117008303E831203134A
:102F0800C9004908CB000A30F0000030F1004F0832
:102F1800F3004E08F2000A168A11A7270A168A112A
:102F28007008303E83120313C9004908CC00FB0126
:102F38004B30FC000030FD000C300A168A11FF24CB
:102F48000A168A110800F601F31FAB2FAC2FB32F16
:102F5800F209F309F20A0319F30AF601F60AF11F56
:102F6800B62FB72FBC2FF009F109F00A0319F10A9F
:102F7800700871040319C12FC22FF12FF501F50A4A
:102F8800D02F01300310F00DF10DFF3E031DC62FA9
:102F98000130F4007408F507F11FD32FD42FC52F83
:102FA80071087302031DDA2F70087202031CDD2FEB
:102FB800DE2FE42F7008F2027108031CF303F302FA
:102FC80001300310F10CF00CFF3E031DE52F01301A
:102FD800F502031DF02FF12FD42F76080319F52FD2
:102FE800F62FFB2FF209F309F20A0319F30A730803
:082FF800F1007208F00008006E
:02400E00C2E00E
:00000001FF
